:020000040800F2
:100000006806002001010008BD2D00083D260008FB
:10001000B92D00081D0A0008F13100080000000099
:10002000000000000000000000000000E92D0008B2
:10003000210A000800000000BF2D0008EB2D000879
:100040001B0100081B0100081B0100081B01000820
:100050001B0100081B0100081B0100081B01000810
:100060001B0100081B0100081B0100081B01000800
:100070001B0100081B0100081B0100081B010008F0
:100080001B0100081B0100081B0100081B010008E0
:100090001B0100081B0100081B0100081B010008D0
:1000A0001B0100081B0100081B0100081B010008C0
:1000B0005D2E00081B0100081B0100081B01000841
:1000C0001B0100081B0100081B0100081B010008A0
:1000D0001B0100081B0100081B0100081B01000890
:1000E0001B0100081B0100081B010008DFF80CD0F1
:1000F00000F04EFC00480047A154000868060020AC
:100100000648804706480047FEE7FEE7FEE7FEE7B1
:10011000FEE7FEE7FEE7FEE7FEE7FEE7592E0008F2
:10012000ED000008202A04DB203A21FA02F0002129
:10013000704721FA02F3D040C2F1200291400843F7
:100140001946704740EA01039B0703D009E008C93C
:10015000121F08C0042AFAD203E011F8013B00F88C
:10016000013B521EF9D27047D2B201E000F8012BD8
:10017000491EFBD270470022F6E710B513460A4627
:1001800004461946FFF7F0FF204610BDF0B480EAA0
:100190000102D40F4200B2EB410F02D202460846E0
:1001A00011464A0042D0C30DDDB2C1F3C752AD1AA9
:1001B000202D35DAC1F3160141F4000204B1524298
:1001C000C5F1200602FA06F12A411044B3EBD05FD4
:1001D00023D0C4B1012DA0EBC35009DCF0BC4FF01B
:1001E000004202EAC352DBB200F5000000F0EBBAB5
:1001F000400000F1807000EBC350A0F1807040EA35
:10020000D170490009E0490841EAC071A0EBC35030
:1002100000F50000400800EBC350F0BC00F0CABA83
:100220006142012202EB4101001BF6E7F0BC70477E
:1002300081F00041AAE780F00040A7E780EA0102D0
:1002400010B502F00043400022D04A001FD0010E3A
:1002500001EB1261C0F35600C2F3560240F40000F5
:1002600042F40002A0FB022000047F39140400D0F5
:10027000401C50EA124001D44000491EC2B20C0694
:1002800004EBD010401C4008802A02D003E000207C
:1002900010BD20F00100002900DA0020184310BD35
:1002A00030B480EA010202F0004530F0004221F053
:1002B000004013D090B1C30DD40DC2F31601C0F3AA
:1002C0001600E41A41F4000140F400027D3491422A
:1002D00001D3641C00E04900002C02DA30BC00208D
:1002E00070474FF400000023914201D3891A034361
:1002F00040084FEA4101F7D151B1914202D14FF08C
:10030000004105E002D24FF0010101E06FF0010170
:1003100003EBC450284430BC00F04CBA2DE9FE4F2A
:10032000804681EA0300C00F0C46009021F0004196
:1003300023F00045B8EB0200A94105D24046214612
:1003400090461C460B46024623F00040104347D01F
:10035000270DC7F30A00C3F30A510290401A019017
:1003600040286BDAC3F3130040F4801B00989246D8
:1003700020B10023D2EB030A63EB0B0B0198594623
:10038000C0F14002504600F0F4F906460D465046D2
:100390005946019A00F0FCF910EB08006141002475
:1003A00087EA115284EAE7731A4340D0009A62B395
:1003B000019A012A4FEA075215DC001B61EB02018A
:1003C0004FF0004202EA0752CDE90042001C41F51D
:1003D000801132462B4600F05DFA03B0BDE8F08F85
:1003E00040462146F9E7001B61EB0201001C41F584
:1003F000801300185B412018A2F5001747EB03019A
:1004000040EAD570B6196D4111E06D084FEA360625
:1004100045EAC0754FEA0752001B61EB0201001C60
:1004200041F5801149084FEA300000195141324628
:100430002B4603B0BDE8F04F00F01DBA0098012232
:1004400040000023D0EB020263EBE07300982146EA
:100450004FEAE074B8EB000061EB0401E9E783F0D8
:1004600000435BE781F0004158E72DE9FE4F81EA48
:10047000030404F0004421F0004100944FF0000B0D
:1004800023F0004350EA01045ED052EA03045BD03B
:10049000C3F30A54C1F30A552C44A4F2F334019473
:1004A000A0FB0254C1F3130141F48011C3F3130301
:1004B00043F4801301FB024400FB034E840A970AB5
:1004C00044EA815447EA8357A4FB076802958D0AE2
:1004D00005FB07854FEA932C04FB0C542705029D6E
:1004E0004FEA065847EA1637B5EB08056EEB070CDE
:1004F000870E920E47EA811742EA8312A7FB020198
:10050000B6EB0B0164EB00042B0D43EA0C335E18D1
:1005100044EB1C50DA465146E7FB0201C5F31304D5
:100520004FEA0B3343EA14534FEA0432019C43EA87
:100530000603A4F10C040294009CCDE900B400F081
:10054000A9F903B0BDE8F08F00200146F9E72DE9D5
:10055000F04D81EA030404F0004B21F000451446FD
:100560004FF0000A23F0004150EA050220D054EA7F
:1005700001021DD0C5F30A570246C5F31303C1F3A8
:100580001300C1F30A5640F4801543F48013A7EB1F
:100590000608101BD64608F2FD3873EB050002D39F
:1005A00008F1010801E092185B41B8F1000F03DA8D
:1005B00000200146BDE8F08D00204FF48011064672
:1005C00084460EE0171B73EB050705D3121B63EB84
:1005D000050306434CEA010C49084FEA3000921823
:1005E0005B4150EA0107EDD152EA030012D082EAE2
:1005F000040083EA0501084305D0101BAB4106D275
:100600000122002306E000224FF0004302E06FF0D9
:10061000010253101AEB06004CEB085110EB0A00D4
:1006200041EB0B01BDE8F04D00F025B9C10F80EAA8
:10063000E0700844CA079623002100F0C4B800F017
:10064000004220F00040C10DC0F3160040F400004D
:100650007F2901DA00207047962903DCC1F1960159
:10066000C84001E096398840002AF4D040427047E3
:1006700000F0004230F000400AD0C10D01F5607179
:10068000C0F3160042EA0151C20840071143704707
:1006900000200146704701F0004330B421F00041D2
:1006A00050EA010206D00A0DA2F56072C1F31301EF
:1006B000002A02DC30BC00207047440F44EAC10429
:1006C000C100E01830BC00EBC25000F073B800006D
:1006D000002801DBC0F10040002901DBC1F100412D
:1006E0008142704730B50B4601460020202201248C
:1006F00009E021FA02F59D4205D303FA02F5491BF0
:1007000004FA02F52844151EA2F10102F1DC30BD05
:100710002DE9F05F0546002092469B468846064636
:10072000814640241BE02846414647462246FFF7C3
:10073000F9FC53465A46C01A914110D31146184647
:10074000224600F016F82D1A67EB01084F462246A4
:100750000120002100F00DF817EB00094E41201E8A
:10076000A4F10104DFDC484631462A464346BDE891
:10077000F09F202A04DB203A00FA02F100207047A3
:100780009140C2F1200320FA03F3194390407047CF
:10079000202A06DBCB17203A41FA02F043EAE07345
:1007A00006E041FA02F3D040C2F120029140084332
:1007B000194670470029A8BF7047401C490008BF70
:1007C00020F00100704710B4B0FA80FC00FA0CF081
:1007D00050EA010404BF10BC704749B1CCF12004B9
:1007E00021FA04F411FA0CF118BF01212143084346
:1007F000A3EB0C01CB1D4FEA00614FEA102042BF72
:10080000002010BC704700EBC35010440029A4BF67
:1008100010BC7047401C490008BF20F0010010BC0C
:100820007047420005D0C0F3C7525242914201DCEA
:100830000020704700EBC150704710B541000CD04C
:10084000C0F3C751962908DC7E2909DC06DB41028A
:1008500004D000F0004040F07E5010BD002010BDDC
:10086000C1F19604C4F1200100FA01F1E040FFF764
:10087000A1FFA04010BD10B5141E73F1000408DAEA
:10088000401C41F1000192185B411A4301D120F054
:10089000010010BD2DE9F04D92469B4611B1B1FA11
:1008A00081F202E0B0FA80F220329046FFF761FF59
:1008B00004460F4640EA0A0041EA0B0153465A46F5
:1008C000084313D0114653EA010019D0C8F1400281
:1008D0005046FFF727FC05460E465046594642460D
:1008E000FFF747FF084305D0012004E020463946C2
:1008F000BDE8F08D0020054346EAE0762C433743FF
:100900000A986305E40AA0EB08000022FD0A44EA05
:1009100047540A3002D500200146E9E701051019C5
:100920006941DDE9084500196941BDE8F04DA2E7DC
:10093000C1F30A52C1F3130140F2FF3341F48011B5
:100940009A4202DA00200146704740F233439A424D
:10095000A2F2334202DC5242FFF7E4BBFFF709BFC9
:1009600030B5041E71F1000404DB4FF00044404236
:1009700064EB0101141E73F1000405DB1C464FF00B
:100980000043524263EB0403994208BF904230BDDA
:10099000064C074D06E0E06840F0010394E80700CC
:1009A00098471034AC42F6D3FFF7A4FB146100085B
:1009B00034610008F0B4002802DCF0BC002070476D
:1009C000C0F3C751C0F3160040F40000CA0701D1BC
:1009D0004000491E3F2202EB6105002211464FF400
:1009E000000626FA01F31344D418844201D8001BF0
:1009F0001A464000491C1729F3DD5100814202D2FA
:100A00004FF0FF3100E0002102EBC550F0BCFFF7D2
:100A1000D1BE962300221146FFF7D5BE00BFFEE7E8
:100A20007047704770B5044600F0A6F906462546A3
:100A3000681C10B104480078054400BF00F09CF920
:100A4000801BA842FAD370BD0C0000202DE9F847A6
:100A50000346002294466EE14FF0010808FA02F4C2
:100A6000D1F8008008EA0400A0427DD1DFF8DCA2C2
:100A7000D1F80480A8EB0A09D0453AD014DCB8F1CB
:100A8000030F50D009DCB8F1000F31D0B8F1010FDD
:100A90001CD0B8F1020F49D120E0B8F1110F18D0E5
:100AA000B8F1120F42D11EE0B9F5881F25D006DC3F
:100AB000B9F5803F20D0B9F5801F37D11AE0B9F5DC
:100AC000001F18D0B9F5041F30D117E0D1F80CC0C1
:100AD0002DE0D1F80C8008F1040C28E0D1F80C804E
:100AE00008F1080C23E0D1F80C8008F10C0C1EE092
:100AF00000BF00BF00BF00BF00BF00BFD1F808802B
:100B0000B8F1000F02D14FF0040C0BE0D1F80880CF
:100B1000B8F1010F03D14FF0080C1C6102E04FF057
:100B2000080C5C6103E04FF0000C00E000BF00BF68
:100B3000FF2801D8984601E003F104084646FF2843
:100B400002D84FEA820803E0A2F108084FEA8808B9
:100B50004746D6F800804FF00F0909FA07F928EA4E
:100B600009080CFA07F900E088E048EA0908C6F825
:100B70000080D1F8048008F08058B8F1805F7DD102
:100B800000BFDFF8CC81D8F8188048F00108DFF802
:100B9000C091C9F81880C846D8F8188008F0010834
:100BA000CDF8008000BF00BF4FEAB9384FEA920984
:100BB00058F829504FEA82784FEA18794FF00F0819
:100BC00008FA09F825EA0805DFF88881434502D1CB
:100BD0004FF0000816E0DFF88081434502D14FF066
:100BE00001080FE0DFF87481434502D14FF002089D
:100BF00008E0DFF86C81434502D14FF0030801E0C3
:100C00004FF004084FEA82794FEA197908FA09F897
:100C100048EA0505DFF84C814FEA920948F8295067
:100C2000D1F8048008F48038B8F5803F0AD1DFF8A5
:100C30003881D8F8008048EA0008DFF82C91C9F81C
:100C4000008009E0DFF82081D8F8008028EA000859
:100C5000DFF81491C9F80080D1F8048008F4003856
:100C6000B8F5003F10D1DFF8008108F10408D8F88A
:100C7000008048EA0008DFF8F09000E05AE009F14F
:100C80000409C9F800800DE0DFF8DC8008F10408F1
:100C9000D8F8008028EA0008DFF8CC9009F10409B0
:100CA000C9F80080D1F8048008F48018B8F5801FD6
:100CB0000ED1DFF8B48008F10808D8F8008048EABF
:100CC0000008DFF8A49009F10809C9F800800DE0D8
:100CD000DFF8948008F10808D8F8008028EA0008B6
:100CE000DFF8849009F10809C9F80080D1F8048080
:100CF00008F40018B8F5001F0ED1DFF86C8008F179
:100D00000C08D8F8008048EA0008DFF85C9009F188
:100D10000C09C9F800800DE0DFF84C8008F10C08E0
:100D2000D8F8008028EA0008DFF83C9009F10C09A7
:100D3000C9F80080521CD1F8008028FA02F8B8F1F6
:100D4000000F7FF489AEBDE8F887000000001110A5
:100D50000010024000080140000C0140001001405A
:100D60000014014008000140000401400AB1016183
:100D700001E00B0403617047014800687047000000
:100D80000400002070B504460CB9012070BD94F831
:100D90003D0028B9002084F83C00204600F03EFBCE
:100DA000242084F83D002068006820F001002168BC
:100DB00008602068006840F40040216808602068EE
:100DC000006820F400402168086000F0FFFC054640
:100DD0005C496068884206D85B48854201D20120A0
:100DE00007E0002005E05948854201D2012000E0DB
:100DF0000020012800D1C9E75548B5FBF0F620686E
:100E0000406820F03F003043216848604D496068E9
:100E1000884201D8701C07E04FF4967070434FF47D
:100E20007A71B0FBF1F0401C2168096A21F03F01A2
:100E300008432168086243496068884214D8681EE4
:100E400061684900B0FBF1F0401CC0F30B000428BE
:100E500001D204203DE0681E61684900B0FBF1F05A
:100E6000401CC0F30B0034E0A06838B9681E61680C
:100E700001EB4101B0FBF1F0401C0AE0681E616823
:100E800001EBC10202EB0111B0FBF1F0401C40F498
:100E90008040C0F30B0008B901201AE0A06848B9EF
:100EA000681E616801EB4101B0FBF1F0401CC0F32A
:100EB0000B000CE0681E616801EBC10202EB01113E
:100EC000B0FBF1F0401CC0F30B0040F4804040F454
:100ED00000402168C9694CF6FF72914308432168BC
:100EE000C861D4E9070108432168096821F0C001FD
:100EF000084321680860D4E9031008432168896821
:100F000048F2FF329143084321688860D4E9050123
:100F100008432168C96821F0FF0108432168C860BF
:100F20002068006840F0010021680860002020640B
:100F3000202084F83D000020206384F83E0000BF9C
:100F400024E70000A086010080841E0000093D0007
:100F500040420F002DE9FE4F04460F469046994649
:100F6000DDE90CAB0E9E00200290FFF705FF054661
:100F700094F83D00202872D119230122CA49204645
:100F8000009501F0CBFC10B10220BDE8FE8F00BF40
:100F900094F83C00012801D10220F6E7012084F8F2
:100FA0003C0000BF2068006800F0010028B92068FC
:100FB000006840F00100216808602068006820F4A3
:100FC000006021680860222084F83D00402084F8F9
:100FD0003E0000202064C4F824A0A4F82AB0608D4C
:100FE0002085B248E0624B46424639462046CDE96C
:100FF000006501F045FB08B10120C6E7208D88B9E6
:1010000000BF00200190206840690190206880693D
:10101000019000BF00BF2068006840F400702168A4
:1010200008604BE0208D01281AD12068006820F468
:1010300080602168086072B600BF002001902068BF
:101040004069019020688069019000BF00BF20685E
:10105000006840F400702168086062B62EE020E16C
:10106000208D022819D12068006840F400602168B2
:10107000086072B600BF00200190206840690190AE
:1010800020688069019000BF00BF2068006820F4DC
:1010900080602168086062B610E02068006840F453
:1010A00080602168086000BF0020019020684069CE
:1010B000019020688069019000BF00BFE2E0208DB0
:1010C00003287DD8208D012815D12A463146204697
:1010D00001F0C9FC08B1012057E720680069616A86
:1010E0000870606A401C6062208D401E2085608D03
:1010F000401E6085C6E0208D02282CD13346002298
:101100006B492046009501F009FC08B101203CE73D
:1011100072B62068006840F400702168086020689A
:101120000069616A0870606A401C6062208D401E20
:101130002085608D401E608562B620680069616A06
:101140000870606A401C6062208D401E2085608DA2
:10115000401E608596E033460022554920460095A2
:1011600001F0DCFB08B101200FE72068006820F4E3
:1011700080602168086072B620680069616A087042
:10118000606A401C6062208D401E2085608D401E7C
:101190006085484800681921B0FBF1F04FF47A717E
:1011A000B0FBF1F0C0EBC00000EB8000029000BF8C
:1011B0000298401E02900298A8B90020206300E027
:1011C00039E0202084F83D00002084F83E00206CA7
:1011D00040F02000206462B600BF002084F83C008C
:1011E00000BF0120D1E620684069C0F380000028DC
:1011F000DED02068006840F4007021680860206834
:101200000069616A0870606A401C6062208D401E3F
:101210002085608D401E608562B620680069616A25
:101220000870606A401C6062208D401E2085608DC1
:10123000401E608526E02A463146204601F013FC18
:1012400008B10120A1E620680069616A0870606A3F
:10125000401C6062208D401E2085608D401E608590
:1012600020684069C0F3800060B120680069616A4D
:101270000870606A401C6062208D401E2085608D71
:10128000401E6085208D00287FF419AF202084F84F
:101290003D00002084F83E0000BF84F83C0000BF01
:1012A00073E6022071E60000020010000000FFFF5C
:1012B00004000100100000202DE9FC5F04460F46E9
:1012C00090469946DDE90CAB0E9EFFF755FD0546AD
:1012D00094F83D0020287DD1192301224D49204654
:1012E000009501F01BFB10B10220BDE8FC9F00BF80
:1012F00094F83C00012801D10220F6E7012084F88F
:101300003C0000BF2068006800F0010028B9206898
:10131000006840F00100216808602068006820F43F
:10132000006021680860212084F83D00402084F896
:101330003E0000202064C4F824A0A4F82AB0608DE8
:1013400020853548E0624B46424639462046CDE985
:10135000006501F045FA08B10120C6E731E02A46F0
:101360003146204601F0BFFB50B1206C042805D166
:101370002068006840F40070216808600120B4E72C
:10138000606A007821680861606A401C6062208D94
:10139000401E2085608D401E608520684069C0F336
:1013A000800070B1208D60B1606A007821680861AA
:1013B000606A401C6062208D401E2085608D401E4A
:1013C0006085208D0028CAD12A463146204601F08A
:1013D00077FA00E01CE050B1206C042805D12068A9
:1013E000006840F400702168086001207DE72068F3
:1013F000006840F4007021680860202084F83D00F7
:10140000002084F83E0000BF84F83C0000BF6CE779
:1014100002206AE7020010000000FFFF10B586B04E
:10142000044600200290039004900590154920681E
:10143000884225D100BF1448806940F00800124955
:1014400088610846806900F00800019000BF00BF75
:10145000C0200290122003900320059002A90B489F
:10146000FFF7F4FA00BF0848C06940F400100649CD
:10147000C8610846C06900F40010019000BF00BFB9
:1014800006B010BD0054004000100240000C0140A6
:101490000348006803490978084401490860704717
:1014A000040000200C00002010B50848006840F03F
:1014B000100006490860032000F0A8F8002000F0A2
:1014C00007F800F02BF8002010BD000000200240BB
:1014D00070B504460E4800784FF47A71B1FBF0F015
:1014E0000C490968B1FBF0F5284600F00BFC08B187
:1014F000012070BD102C07D200222146501E00F0A2
:1015000047F80548046001E00120F2E70020F0E719
:101510000C000020100000200800002008B500BFCB
:101520001148806940F001000F49886108468069D0
:1015300000F00100009000BF00BF00BF0846C06976
:1015400040F08050C8610846C06900F080500090AB
:1015500000BF00BF00BF0549486820F0E06040F0D0
:101560000070486000BF08BD00100240000001404C
:1015700001460846002809DB00F01F0301229A40BB
:1015800043099B0003F1E023C3F8002100BF70472B
:101590002DE9F05F80460D461646002701F04EFE0D
:1015A000074639462A46334601F00700C0F1070ACC
:1015B000BAF1040F02D94FF0040A01E0C0F1070AA2
:1015C000D14600F1040ABAF1070F02D24FF0000A27
:1015D00001E0A0F1030AD4464FF0010A0AFA09FA21
:1015E000AAF1010A0AEA020A0AFA0CFA4FF0010B00
:1015F0000BFA0CFBABF1010B0BEA030B4AEA0B04F1
:101600002146404601F022FEBDE8F09F00BF00F0F9
:101610000702064B19684FF6FF031940044B0B43B2
:1016200043EA0221014B196000BF70470CED00E056
:101630000000FA0570B504460D460CB9012070BDD6
:101640005A48006800F00700A8420ED257480068C8
:1016500020F007002843554908600846006800F05C
:101660000700A84201D00120E9E7207800F002003D
:1016700002281DD1207800F00400042805D14C4830
:10168000406840F4E0604A494860207800F0080073
:10169000082805D14648406840F4605044494860F5
:1016A0004348406820F0F000A16808434049486082
:1016B000207800F0010078B36068012806D13C482A
:1016C000006800F4003090B90120B8E76068022893
:1016D00006D13748006800F0007040B90120AEE73D
:1016E0003348006800F0020008B90120A7E730483D
:1016F000406820F00300616808432D494860FFF707
:101700003BFB064609E0FFF737FB801B41F28831BF
:10171000884202D9032092E707E02548406800F09C
:101720000C006168B0EB810FEDD12048006800F03B
:101730000700A8420ED91D48006820F00700284382
:101740001A4908600846006800F00700A84201D066
:10175000012074E7207800F00400042807D1144821
:10176000406820F4E060E16808431149486020784F
:1017700000F00800082808D10D48406820F46050A7
:10178000216940EAC1000A49486000F03FF8084971
:101790004968C1F30311074A515CC8400649086013
:1017A00006480068FFF794FE002048E7002002404A
:1017B00000100240B45E0008100000200800002065
:1017C00001480068704700001000002000B5FFF7D6
:1017D000F7FF04494968C1F30221034A515CC8403C
:1017E00000BD000000100240C45E000800B5FFF715
:1017F000E7FF04494968C1F3C221034A515CC8406C
:1018000000BD000000100240C45E0008F0B585B0C5
:101810000FF26C0C9CE8E01001A8A0E8E0101CA5F9
:101820002D68009500210022002300240020194D7E
:10183000696801F00C05F5B1042D02D0082D19D10D
:1018400001E0154819E001ADC1F38346AC5D01F438
:10185000803555B10F4D6D68C5F340451DF8052025
:101860000D4D6543B5FBF2F302E00C4D04FB05F3AF
:10187000184602E000BF084800BF00BF05B0F0BD39
:1018800002030405060708090A0B0C0D0E0F1010C1
:10189000010200000010024000127A0000093D0021
:1018A000F8B504460CB90120F8BD207800F001001D
:1018B000002878D0F848406800F00C0004280CD0CC
:1018C000F548406800F00C00082811D1F248406843
:1018D00000F48030B0F5803F0AD1EF48006800F492
:1018E000003000285FD0606800285CD10120DBE771
:1018F00000BF6068B0F5803F06D1E748006840F45B
:101900008030E549086028E0606858B9E24800681E
:1019100020F48030E04908600846006820F4802008
:1019200008601AE06068B0F5A02F0BD1DA480068B3
:1019300040F48020D84908600846006840F48030B0
:1019400008600AE0D448006820F48030D24908607A
:101950000846006820F48020086000BF606888B1F5
:10196000FFF70AFA054606E0FFF706FA401B64286F
:1019700001D9032098E7C848006800F40030002827
:10198000F2D010E0FFF7F8F9054606E0FFF7F4F9AA
:10199000401B642801D9032086E7BF48006800F493
:1019A00000300028F2D1207800F00200022857D140
:1019B000B948406800F00C0050B1B748406800F0EA
:1019C0000C00082818D1B448406800F4803098B959
:1019D000B148006800F0020020B12069012801D060
:1019E000012061E7AC48006820F0F800616940EA36
:1019F000C100A949086033E02069E8B10120A74986
:101A00000860FFF7B9F9054606E0FFF7B5F9401B96
:101A1000022801D9032047E79F48006800F0020030
:101A20000028F2D09C48006820F0F800616940EA84
:101A3000C1009949086013E0002098490860FFF749
:101A40009BF9054606E0FFF797F9401B022801D9EC
:101A5000032029E79048006800F002000028F2D136
:101A6000207800F0080008282DD1A069B8B1012025
:101A70008B490860FFF780F9054606E0FFF77CF91F
:101A8000401B022801D903200EE78348406A00F07A
:101A900002000028F2D0012001F092F913E00020AA
:101AA0007F490860FFF768F9054606E0FFF764F92B
:101AB000401B022801D90320F6E67748406A00F06F
:101AC00002000028F2D1207800F00400042873D12D
:101AD00000277148C06900F0805070B900BF6E489F
:101AE000C06940F080506C49C8610846C06900F088
:101AF0008050009000BF00BF01276A48006800F4D2
:101B00008070B0B96748006840F48070654908602B
:101B1000FFF732F9054606E0FFF72EF9401B64286F
:101B200001D90320C0E65F48006800F480700028F7
:101B3000F2D000BFE068012806D15748006A40F0A3
:101B400001005549086227E0E06858B95248006A28
:101B500020F00100504908620846006A20F00400A5
:101B6000086219E0E06805280BD14B48006A40F094
:101B70000400494908620846006A40F00100086212
:101B80000AE04548006A20F001004349086208461F
:101B9000006A20F00400086200BFE068A0B1FFF70F
:101BA000EBF8054609E0FFF7E7F8401B41F2883102
:101BB000884202D9032077E622E03748006A00F025
:101BC00002000028EFD012E0FFF7D6F8054608E043
:101BD000FFF7D2F8401B41F28831884201D9032037
:101BE00062E62D48006A00F002000028F0D1012FC3
:101BF00005D12948C06920F080502749C86100BF3D
:101C0000E069C8B32448406800F00C00082860D0A0
:101C1000E069022848D1002020490866FFF7ACF8A7
:101C2000054606E0FFF7A8F8401B022801D903206B
:101C30003AE61948006800F000700028F2D1206AE6
:101C4000B0F5803F07D11448406820F40030A16807
:101C5000084311494860D4E9080108430E4949681E
:101C600021F4741108430C49486001200B490866AF
:101C7000FFF782F8054607E03DE0FFF77DF8401BDF
:101C8000022801D903200FE60348006800F0007025
:101C90000028F2D02FE00000001002400000424275
:101CA0008004424200700040002014490866FFF79B
:101CB00063F8054606E0FFF75FF8401B022801D9EC
:101CC0000320F1E50E48006800F000700028F2D112
:101CD00011E0E069012800D1E6E50948466806F40C
:101CE0008031206A814204D106F47011606A814219
:101CF00001D00120D8E50020D6E5000000004242D6
:101D00000010024070B504462546681EB0F1807F81
:101D100001D301200FE0681E4FF0E02148610F2140
:101D20004FF0FF3001F092FA00204FF0E02188617F
:101D300007200861002070BD7047704730B502462B
:101D40000B4600BF92F83C00012801D1022030BDB3
:101D5000012082F83C0000BF022082F83D0010689C
:101D600044681068816824F070041868044310689F
:101D70004460104D1068A8420BD01068B0F1804F3D
:101D800007D00D4D1068A84203D00C4D1068A84232
:101D900005D121F08001586801431068816001205D
:101DA00082F83D0000BF002082F83C0000BF00BF69
:101DB000CDE70000002C0140000400400008004076
:101DC00010B504460CB9012010BD94F83D0028B9A7
:101DD000002084F83C00204600F026F8022084F819
:101DE0003D00211D206801F041F8012084F84600E3
:101DF00000BF84F83E0001213F20015540200155DD
:101E00004120015500BF00BF012084F8420043205B
:101E10000155442001554520015500BF012084F89B
:101E20003D000020D0E7000038B504462068B0F13E
:101E3000804F15D100BF0B48C06940F0010009492F
:101E4000C8610846C06900F00100009000BF00BFF3
:101E5000002211461C20FFF79BFB1C20FFF788FB8C
:101E600038BD000000100240014691F83D000128F5
:101E700001D001207047022081F83D000868C06849
:101E800040F001000B68D860124B086898420BD0F4
:101E90000868B0F1804F07D00F4B0868984203D014
:101EA0000E4B086898420CD10868806800F0070261
:101EB000062A0CD00868006840F001000B68186022
:101EC00005E00868006840F001000B681860002019
:101ED000D0E70000002C0140000400400008004052
:101EE0002DE9F04104460D4600BF94F83C0001285E
:101EF00002D10220BDE8F081012084F83C0000BF3F
:101F0000022084F83D002068866826F0770626F4D3
:101F10007F46206886602868502833D00CDC202853
:101F200050D004DC00284BD0102851D149E0302893
:101F300049D040284CD139E060282DD0702807D0F6
:101F4000B0F5805F03D0B0F5005F41D10DE040E017
:101F5000D5E902136A68206800F0D3FF206886681C
:101F600046F077062068866033E0D5E902136A6898
:101F7000206800F0C6FF2068806840F48040216837
:101F8000886026E0EA686968206801F08BF85021D3
:101F9000206800F0C1FF1CE0EA686968206801F071
:101FA00094F86021206800F0B7FF12E0EA686968E1
:101FB000206801F077F84021206800F0ADFF08E0CC
:101FC00000BF00BF00BF2968206800F0A5FF00E047
:101FD00000BF00BF012084F83D0000BF002084F84E
:101FE0003C0000BF00BF85E7704710B5044620687D
:101FF0000069C0F34000D8B12068C068C0F3400059
:10200000B0B16FF0020021680861012020772068DC
:10201000806900F0030018B12046FFF7E5FF05E0F6
:10202000204600F0F1F8204600F0B8F900202077B3
:1020300020680069C0F38000D8B12068C068C0F390
:102040008000B0B16FF004002168086102202077A1
:102050002068806900F4407018B12046FFF7C4FF83
:1020600005E0204600F0D0F8204600F097F9002067
:10207000207720680069C0F3C000D8B12068C0682C
:10208000C0F3C000B0B16FF00800216808610420FF
:1020900020772068C06900F0030018B12046FFF7E0
:1020A000A3FF05E0204600F0AFF8204600F076F9E7
:1020B0000020207720680069C0F30010D8B12068A4
:1020C000C068C0F30010B0B16FF010002168086163
:1020D000082020772068C06900F4407018B12046BD
:1020E000FFF782FF05E0204600F08EF8204600F062
:1020F00055F9002020772068006900F0010058B1F0
:102100002068C06800F0010030B16FF00100216864
:102110000861204600F0AEF920680069C0F3C010E5
:1021200058B12068C068C0F3C01030B16FF08000B3
:10213000216808612046FFF7FFFD20680069C0F3B1
:10214000801058B12068C068C0F3801030B16FF0C3
:10215000400021680861204600F0BEF9206800694F
:10216000C0F3401058B12068C068C0F3401030B1CF
:102170006FF02000216808612046FFF7DEFD10BDEA
:1021800010B586B00446002002900390049005909C
:102190001949206888422CD100BF1848806940F056
:1021A0000400164988610846806900F00400019027
:1021B00000BF00BF00BF0846806940F0080088618A
:1021C0000846806900F00800019000BF00BFC020F1
:1021D000029002200390059002A90948FEF736FC00
:1021E0000320029002200390059002A90548FEF703
:1021F0002DFC06B010BD000000040040001002409D
:1022000000080140000C0140704770B504460D46BF
:10221000164600BF94F83C00012801D1022070BD91
:10222000012084F83C0000BF36B1042E1BD0082EDC
:1022300031D00C2E5ED145E02946206800F076FEB4
:102240002068806940F00800216888612068806902
:1022500020F00400216888612068806929690843AA
:102260002168886147E02946206800F08FFE2068D9
:10227000806940F40060216888612068806920F4EA
:1022800080602168886120688069296940EA0120AE
:10229000216888612FE02946206800F0ABFE2068A5
:1022A000C06940F008002168C8612068C06920F05A
:1022B00004002168C8612068C06929690843216851
:1022C000C86118E02946206800F0C8FE2068C0698F
:1022D00040F400602168C8612068C06920F4806013
:1022E0002168C8612068C069296940EA0120216825
:1022F000C86100E000BF00BF00BF002084F83C00C0
:1023000000BF00BF8BE710B504460CB9012010BD1B
:1023100094F83D0028B9002084F83C00204600F0E5
:1023200025F8022084F83D00211D206800F09EFD64
:10233000012084F8460000BF84F83E0001213F20C0
:102340000155402001554120015500BF00BF01202B
:1023500084F8420043200155442001554520015591
:1023600000BF012084F83D000020D0E708B5094AED
:10237000016891420DD100BF0749C96941F00201CE
:10238000054AD1611146C96901F00201009100BFFF
:1023900000BF08BD0004004000100240704700006C
:1023A00070B504460D4615B994F83E000BE0042DB7
:1023B00002D13F20005D06E0082D02D14020005DE3
:1023C00001E04120005D012801D0012070BD1DB950
:1023D000022084F83E000EE0042D03D102213F20AC
:1023E000015508E0082D03D102214020015502E0EB
:1023F00002214120015501222946206800F070FD8C
:1024000019492068884201D1012000E0002028B14C
:102410002068406C40F400402168486412492068FC
:1024200088420BD02068B0F1804F07D00F49206858
:10243000884203D00E49206888420CD12068806809
:1024400000F00706062E0CD02068006840F001005E
:102450002168086005E02068006840F001002168FC
:1024600008600020B2E70000002C0140000400409A
:102470000008004038B504461149206809688842C0
:102480001CD110480078401C0E490870087800EBF9
:10249000D0714910A0EB410181B9002001231A46F7
:1024A00009490090094803F001F9094B094A064916
:1024B000064801F010FC00200249087038BD0000F9
:1024C00090000020140000201C00002016000020B6
:1024D000F13C000820020020704710B504460CB9FA
:1024E000012010BDA06900B100E000BF94F83D00DC
:1024F00028B9002084F83C00204600F027F824206A
:1025000084F83D002068C06820F400502168C8604D
:10251000204600F0EFFD2068006920F4904021681B
:1025200008612068406920F02A002168486120681D
:10253000C06840F400502168C8600020206420205A
:1025400084F83D0084F83E000020CAE710B586B04C
:1025500004460020029003900490059033492068BF
:1025600088422FD100BF3248806940F48040304912
:1025700088610846806900F48040019000BF00BF78
:1025800000BF0846806940F0040088610846806901
:1025900000F00400019000BF00BF48150290022027
:1025A00003900320059002A92248FEF74FFA4FF44A
:1025B0008060029000200390049002A91D48FEF75D
:1025C00045FA31E01C49206888422DD100BF1848E7
:1025D000C06940F400301649C8610846C06900F47B
:1025E0000030019000BF00BF00BF0846806940F086
:1025F000040088610846806900F00400019000BF73
:1026000000BF04200290022003900320059002A93D
:102610000848FEF71BFA082002900020039004905F
:1026200002A90448FEF712FA06B010BD00380140B6
:1026300000100240000801400044004000BFFEE7D7
:10264000014608684069C0F38020B0B16FF4806033
:102650000A68506100200863202081F83D000020B6
:1026600081F83E00086C40F00400086400BF0020C0
:1026700081F83C0000BF012070470020FCE700000B
:102680002DE9F84304460F4615469946DDE90886CC
:102690002068006840F48060216808602068006855
:1026A00040F4807021680860434600224FF0011119
:1026B0002046009600F032F960B12068006800F40E
:1026C0008070B0F5807F02D14FF400702064032049
:1026D000BDE8F88307F0FE002168086133464246F2
:1026E0003E49204600F05DF908B10120F0E700BF47
:1026F0000020009020684069009020688069009068
:1027000000BF00BF32464146204600F0ECF950B110
:10271000206C042805D12068006840F4007021680E
:1027200008600120D4E7B9F1010F03D1E8B22168B4
:10273000086117E0C5F30720216808613246414669
:10274000204600F0D0F950B1206C042805D1206853
:10275000006840F40070216808600120B8E7E8B222
:102760002168086132464146204600F0BCF950B16C
:10277000206C042805D12068006840F400702168AE
:1027800008600120A4E72068006840F48070216898
:102790000860434600224FF001112046009600F0E9
:1027A000BDF858B12068006800F48070B0F5807FF3
:1027B00002D14FF400702064032089E7F8B240F0A2
:1027C000010021680861334642460449204600F072
:1027D000E8F808B101207BE7002079E7020001005A
:1027E0002DE9F8430446884615469946DDE9086711
:1027F0002068006840F48070216808603346002239
:102800004FF001112046009700F088F860B1206871
:10281000006800F48070B0F5807F02D14FF4007042
:1028200020640320BDE8F88308F0FE0021680861F9
:102830003B4632462149204600F0B3F808B101205A
:10284000F0E700BF002000902068406900902068F9
:102850008069009000BF00BF3A463146204600F034
:1028600042F950B1206C042805D12068006840F47A
:102870000070216808600120D4E7B9F1010F03D18D
:10288000E8B22168086117E0C5F3072021680861F4
:102890003A463146204600F026F950B1206C042813
:1028A00005D12068006840F40070216808600120AC
:1028B000B8E7E8B2216808610020B3E70200010030
:1028C00070B504460D46164620E02046FFF7B8FED8
:1028D00008B1012070BD681CC0B1FEF74DFA801B25
:1028E000A84200D895B900202063202084F83D003C
:1028F000002084F83E00206C40F02000206400BFDF
:10290000002084F83C0000BF0120E3E72068406914
:10291000C0F380000028D8D00020DBE72DE9F0418B
:1029200004460D4617461E46DDF818801CE0701C54
:10293000D0B1FEF721FAA0EB0800B04200D89EB952
:1029400000202063202084F83D00002084F83E0011
:10295000206C40F02000206400BF002084F83C0080
:1029600000BF0120BDE8F081C5F3074001280AD16E
:1029700020684069A9B20840A9B2884201D101206B
:102980000BE0002009E020688069A9B20840A9B2E4
:10299000884201D1012000E00020B842C7D00020C9
:1029A000E0E72DE9F04104460D4616461F463DE09E
:1029B00020684069C0F38020E8B12068006840F4D6
:1029C0000070216808606FF4806021684861002011
:1029D0002063202084F83D00002084F83E00206C15
:1029E00040F00400206400BF002084F83C0000BFD9
:1029F0000120BDE8F081701CC0B1FEF7BDF9C01B1D
:102A0000B04200D896B900202063202084F83D0011
:102A1000002084F83E00206C40F02000206400BFBD
:102A2000002084F83C0000BF0120E2E7C5F3074026
:102A300001280AD120684069A9B20840A9B2884299
:102A400001D101200BE0002009E020688069A9B2D3
:102A50000840A9B2884201D1012000E000200028EE
:102A6000A6D00020C5E770B504460D46164632E0F4
:102A700020684069C0F30010A0B16FF01000216819
:102A8000486100202063202084F83D00002084F865
:102A90003E00206C206400BF002084F83C0000BF92
:102AA000012070BDFEF768F9801BA84200D895B9D7
:102AB00000202063202084F83D00002084F83E00A0
:102AC000206C40F02000206400BF002084F83C000F
:102AD00000BF0120E5E720684069C0F380100028AE
:102AE000C6D00020DDE770B504460D46164620E04E
:102AF0002046FFF7A5FD08B1012070BD681CC0B1DC
:102B0000FEF73AF9801BA84200D895B9002020634F
:102B1000202084F83D00002084F83E00206C40F026
:102B20002000206400BF002084F83C0000BF01208A
:102B3000E3E720684069C0F3C0100028D8D0002027
:102B4000DBE7000000B585B0002001900290039003
:102B5000049000BF2548806940F020002349886127
:102B60000846806900F02000009000BF00BF00BF51
:102B70000846806940F0040088610846806900F0DA
:102B80000400009000BF00BF00BF0846806940F00D
:102B9000080088610846806900F00800009000BFC6
:102BA00000BF01224FF440611148FEF7DFF8002218
:102BB00008210F48FEF7DAF84FF440600190012039
:102BC000029003900320049001A90948FDF73EFFFD
:102BD0000820019001200290002003900220049020
:102BE00001A90348FDF732FF05B000BD0010024007
:102BF000000C014010B50B480B4908600B484860B9
:102C0000002109488160C1604FF4804101610021C9
:102C100041618161C1610162FEF7B4F808B1FDF75D
:102C200000FF10BD005400403C000020A0860100C1
:102C300000B587B0002003900490059006900190A5
:102C400002904FF0804014490860472048600021FE
:102C50001148816041F28731C1600021016180210A
:102C60008161FFF7ADF808B1FDF7DBFE4FF480504E
:102C7000039003A90848FFF733F908B1FDF7D1FE27
:102C800000200190029001A90348FFF757F808B10E
:102C9000FDF7C7FE07B000BD9000002000B589B069
:102CA0000020079008901C216846FDF764FA24482C
:102CB0002449086040F2CF2048600021214881600B
:102CC0004FF47A71C160002101618161FFF71BFB44
:102CD00008B1FDF7A6FE00200790089007A9194843
:102CE000FFF72CF808B1FDF79CFE60200090002053
:102CF000019002900490002269461248FFF785FA7D
:102D000008B1FDF78EFE042269460E48FFF77DFAF2
:102D100008B1FDF786FE082269460A48FFF775FAF2
:102D200008B1FDF77EFE0C2269460648FFF76DFAF2
:102D300008B1FDF776FE0348FFF722FA09B000BD9F
:102D400000040040D800002010B50B480B49086073
:102D50004FF4E1304860002108488160C1600161A2
:102D60000C21416100218161C161FFF7B6FB08B10F
:102D7000FDF757FE10BD0000003801402001002083
:102D800010B50B480B4908604FF4E1304860002152
:102D900008488160C16001610C21416100218161AD
:102DA000C161FFF79AFB08B1FDF73BFE10BD0000C3
:102DB000004400406401002000BFFEE770477047F8
:102DC00008B508490968C9084FF47A72B1FBF2F1F5
:102DD0004143009100BF00BF00994A1E00920029A4
:102DE000F9D108BD10000020704710B5FEF750FB68
:102DF00010BD00B58FB0282105A8FDF7BCF914213E
:102E00006846FDF7B8F901200590000406900020FF
:102E100007900120099002200C90C1030D914FF4FE
:102E2000E0110E9105A8FEF73BFD08B1FDF7F9FD95
:102E30000F20009002200190002002904FF480604B
:102E400003900020049002216846FEF7F3FB08B1CE
:102E5000FDF7E7FD0FB000BD7047000010B5024858
:102E6000FFF7C3F810BD00009000002010B5026805
:102E7000184B984208D0B0F1804F05D0164B9842BD
:102E800002D0164B984203D122F070024B681A43CD
:102E9000104B984208D0B0F1804F05D00E4B9842AD
:102EA00002D00E4B984203D122F44072CB681A43F1
:102EB00022F080034C6943EA040202608B68C3621B
:102EC0000B688362034B984201D10B6903630123B2
:102ED000436110BD002C0140000400400008004088
:102EE00030B501F01F05012404FA05F3046A9C4380
:102EF0000462046A01F01F0502FA05F52C4304621E
:102F000030BD30B50C46816821F47F4142EA03258B
:102F100025432943816030BD0A46816821F0700154
:102F200042F00703194381607047000030B5056A1D
:102F300025F001050562026A4368846924F0700483
:102F400024F003040D682C4322F002028D682A430A
:102F50000D4DA84206D100BF22F00802CD682A43D9
:102F600022F00402084DA84207D123F4807323F411
:102F700000734D692B438D692B43436084614D6819
:102F80004563026230BD0000002C014030B5056A87
:102F900025F010050562026A4368846924F4E04460
:102FA00024F440740D6844EA052422F020028D6860
:102FB00042EA05120E4DA84207D100BF22F080025E
:102FC000CD6842EA051222F04002094DA84209D11B
:102FD00023F4806323F400634D6943EA85038D691C
:102FE00043EA8503436084614D688563026230BDB6
:102FF000002C014030B5056A25F480750562026A2F
:103000004368C46924F0700424F003040D682C4361
:1030100022F400728D6842EA05220F4DA84207D1C2
:1030200000BF22F40062CD6842EA052222F48062E9
:10303000094DA84209D123F4805323F400534D696C
:1030400043EA05138D6943EA05134360C4614D6883
:10305000C563026230BD0000002C014030B5056A36
:1030600025F480550562036A4468C26922F4E0428F
:1030700022F440720D6842EA052223F400538D6861
:1030800043EA0533064DA84204D124F480444D6937
:1030900044EA85144460C2614D680564036230BD32
:1030A000002C014030B50B461446026A056A25F033
:1030B00001050562816921F0F00141EA041122F065
:1030C0000A021A438161026230BD30B50B461446D4
:1030D000056A25F0100505628169026A21F47041D4
:1030E00041EA043122F0A00242EA03128161026245
:1030F00030BD000070B504462168096921F44051D3
:10310000E2681143226811612269A1681143626972
:1031100041EA02052168C96841F20C6291432943E2
:103120002268D1602168496921F44071A269114384
:10313000226851612D4A2168914202D1FEF756FB67
:1031400001E0FEF743FB00EBC00101EB00116268F8
:103150009200B1FBF2F100EBC00202EB00126368D7
:103160009B00B2FBF3F26423B2FBF3F202EBC20367
:1031700003EB0212A1EB8201322202EB0111642265
:10318000B1FBF2F101F0F00100EBC00202EB001222
:1031900063689B00B2FBF3F26423B2FBF3F201EB32
:1031A000021200EBC00101EB001163689B00B1FB50
:1031B000F3F100EBC00303EB00136668B600B3FB4A
:1031C000F6F36426B3FBF6F303EBC30606EB031337
:1031D000A1EB8301322303EB01116423B1FBF3F173
:1031E00001F00F0111442268916070BD0038014068
:1031F00000BFFEE70FB4054B10B503A9044A0298BF
:1032000000F0D2F910BC5DF814FB0000A1530008D7
:10321000000000204100080218BF04200A0E18BF59
:1032200040F001004FF07F4232EA010108BF40F058
:103230000200012808BF052070470000024800680E
:10324000C0F30220704700000CED00E010B500282C
:1032500004DB0A07130E054A135406E00A07140E8E
:10326000034A00F00F031B1FD45410BD00E400E01C
:1032700018ED00E00121FDF7D4BAFCF787BF00216B
:103280000846FDF70DB86FF05E010807FDF7C9BAF3
:103290002DE9F04D0D4614464FF07F41B1EB440F40
:1032A0009EBF4FF0FF312960BDE8F08D4FF0004028
:1032B00040EA0421C4F3C750783810F01F024A4B8B
:1032C0004FEA601CC2F120067B44C4F3C750A0F152
:1032D00078004FEA601003EB800053F82C3008BFF1
:1032E000D0E901C612D0D0F804C093402CFA06F7FA
:1032F0003B4387680CFA02FC27FA06F8C06807FA15
:1033000002F2F0404CEA080C42EA0006A3FB01324C
:10331000ACFB01C0A6FB016101EB0C068E4234BF81
:103320004FF0010C4FF0000CC1186144BCF1000FCC
:1033300002D0814202D903E0814201D2012000E0A3
:103340000020104400F120024FEA92188006CA0CB7
:1033500040EA42304F03C5F80080FDF767F9824626
:103360003846FDF756FB6FF01201FDF75AFA074693
:103370003046FDF74EFB6FF02501FDF752FA83460C
:1033800039465046FCF702FF5946FCF7FFFE00F5B0
:1033900000666FF30B0651463046FCF749FF39468D
:1033A000FCF746FF5946FCF746FF1049FCF746FF7D
:1033B00007460F493046FCF741FF3946FCF7E6FE69
:1033C00007460C493046FCF739FF3946FCF7DEFE6C
:1033D00014F0004F08BFBDE8F08DC8F1805180F0B7
:1033E00000402960BDE8F08D282E0000DB0FC92FBA
:1033F00022AAFD290000C92F02E008C8121F08C137
:10340000002AFAD170477047002001E001C1121F65
:10341000002AFBD170470000014908607047000096
:10342000380000202DE9FF5F82B00021DDE9043083
:10343000020DDDF840B0034318D044F61050A2F25C
:10344000FF3242431514119801281FD0A5EB0B0041
:10345000401C5FEA000A4FF000064E4FDFF838913B
:10346000B046504615D5CAF1000413E01198012466
:103470004AA3012801D16FEA0B010298119AC0E911
:103480000031C0E9024206B0BDE8F09FCBF1000078
:10349000DFE704460021404A491842EB0450CDE9D9
:1034A000001012E0E00707D032463B46404649464E
:1034B000FCF7DBFF8046894632463B4610461946FC
:1034C000FCF7D3FF06460F466410002CEAD1DDE975
:1034D0000401DDE90023BAF1000F06DAFCF7C5FFAD
:1034E00042464B46FCF7C1FF05E0FDF730F8424687
:1034F0004B46FDF72CF804460E460022284BFDF7FC
:103500002FFA03D84FF0FF30014607E00022254B89
:1035100020463146FCF702FFFDF70AFA102409E0C5
:10352000002C0ADB0A220023FDF7F2F8039B30325D
:103530001A55641E50EA0102F2D1641C039AC4F1C8
:1035400011031444119A012A03D0012208430DD11A
:103550000AE0084304D000204FF0110B119072E7ED
:10356000A3EB0B056D1E0DE05B4504DD4FF0000283
:1035700005F1010504E003DA4FF00002A5F10105B1
:10358000002AECD002981199C0E90231C0E9004547
:1035900079E70000000014400000F03F3000000018
:1035A0000000F0430000E03F2DE9FF4F95B09B463F
:1035B0008946064600250FE2252877D100242746B4
:1035C000F84A0121059400E0044316F8013F203B2E
:1035D00001FA03F01042F7D130782A2811D06FF0A9
:1035E0002F033078A0F13002092A16D8059A44F04A
:1035F000020402EB820203EB42021044761C0590A7
:10360000EFE759F8042B0592002A03DA504244F4FC
:103610000054059044F00204761C30782E2816D110
:1036200016F8010F44F004042A280DD06FF02F0281
:103630003078A0F13003092B09D807EB870302EBA0
:103640004303C718761CF3E759F8047B761C3078DF
:103650006C280FD006DC4C2817D068280DD06A28BB
:1036600014D104E0742810D07A280FD10DE044F46E
:1036700000140AE044F4801401E044F44014727829
:10368000824202D104F58014761C761C30786628BC
:103690000BD013DC582877D009DC002875D04528DA
:1036A000F6D04628F4D047281AD19DE118E06328C7
:1036B00035D0642879D0652812D195E1702873D06F
:1036C00008DC6728F1D069286FD06E280DD06F28EC
:1036D00006D1B5E073282CD0752875D0782874D021
:1036E0005A46179990476D1C75E1C4F302500228A1
:1036F00009D003280DD0D9F8001004280DD00D6092
:1037000009F1040967E1D9F80010EA17C1E900528C
:10371000F6E7D9F800100D80F2E70D70F0E719F820
:10372000041B8DF8001000208DF80100EA460120EE
:1037300003E059F804AB4FF0FF3061074FF0000190
:1037400002D40DE008F101018846B9420FDA804544
:10375000F8DB1AF808100029F4D108E008F101019B
:1037600088468142FADB1AF808100029F6D105983C
:103770005B46A0EB080721463846179A00F094FAFA
:10378000284400EB080507E04DE029E10DE01AF8B8
:10379000010B5A4617999047B8F10108F7D25B46DA
:1037A00021463846179A13E142E00A220092C4F3F8
:1037B00002524FF0000A022A08D059F804CB032A1B
:1037C0004FEAEC710AD00DE029E02AE009F1070187
:1037D00021F00702F2E802C1914609E00FFA8CFCE1
:1037E0004FEAEC71042A03D14FFA8CFC4FEAEC71DA
:1037F000002907DA0A460021DCF1000C61EB020126
:103800002D2202E0220504D52B228DF8042001226E
:1038100003E0E20701D02022F7E7904659E00A21B1
:1038200002E010220DE010214FF0000A00910BE0A1
:1038300010224FF0000A44F004040827009203E02D
:1038400008224FF0000A0092C4F30252022A05D067
:1038500059F804CB0021032A08D009E009F1070137
:1038600021F00702F2E802C1914605E01FFA8CFC44
:10387000042A01D10CF0FF0C4FF00008220728D5D4
:10388000702806D0009B83F0100353EA0A0305D08A
:103890000EE040228DF80420012208E05CEA0102DB
:1038A00006D030228DF804208DF8050002229046C3
:1038B000009B83F0080353EA0A030AD15CEA010281
:1038C00001D1620705D530228DF804204FF00108A0
:1038D0007F1E582804D034A003900EA802900DE05B
:1038E00036A0F9E753466046009AFCF711FF84467C
:1038F0000398825C0298401E029002705CEA01000C
:10390000F0D1029806A9081A00F1200A600702D532
:1039100024F4803400E00127574502DDA7EB0A00BC
:1039200000E0002000EB0A01009005984144401A95
:103930000590E00306D45B462146179A059800F0EF
:10394000B3F90544002706E001A85A46C05D17995F
:1039500090476D1C7F1C4745F6DBE0030CD55B46AA
:103960002146179A059800F09FF9054404E030209D
:103970005A46179990476D1C0099481E00900029DF
:10398000F5DC08E0029802995A460078491C029139
:10399000179990476D1CBAF10001AAF1010AF1DCF8
:1039A00065E1000009280100303132333435363703
:1039B000383961626364656600000000303132337B
:1039C000343536373839414243444546000000001B
:1039D00000F058F90544761C307800287FF4ECADEF
:1039E00019B02846BDE8F08F620700D4062709F118
:1039F000070222F0070CFCE80223E14603F000482E
:103A00005FEA080C02D00FF2702C0DE05FEA045C54
:103A100002D50FF2682C07E05FEAC47C02D00FF2F7
:103A2000602C01E0AFF2700C4FF0FF3823F0004340
:103A3000CDF850C065280CD006DC452809D04628B2
:103A40001DD047283DD13DE0662818D067287ED19B
:103A500038E00021112F01DB112000E0781CCDE9B6
:103A6000000106A90EA8FFF7DDFCDDE90F010E9AA3
:103A700003910021009207F1010A04914DE04FF0FB
:103A800000400097CDE9011006A90EA8FFF7CAFC77
:103A9000DDE90F0203920E9B11990022DDF80CA0C4
:103AA0000093049211B9791C00EB010AB7EB0A00EC
:103AB00004D4C0F1FF3007F1010A0490AAEB07001B
:103AC000019044E0012F00DA01270021112F01DDD0
:103AD000112000E03846CDE9000106A90EA8FFF745
:103AE000A1FCDDE90F010E9A0391002104910092DF
:103AF000BA4621070CD40399514500DA8A46BAF137
:103B0000010F05DD009AAAF10101515C302908D0AE
:103B1000B84202DA10F1040F06DA0121CDE90110F2
:103B200015E0AAF10101E9E7002805DC0499014448
:103B30000491AAEB000102E0411C514500DD8A46D8
:103B40000499401A401C01904FF000400290200759
:103B500004D40198504501DBCDF8048000208DF895
:103B60004F0002980DF14F07B0F1004F25D02B20E8
:103B70000E9002984FF0020800280CDA40420290A2
:103B80002D200E9007E00A210298FCF7ABFD3031A2
:103B9000029007F8011DB8F10001A8F10108F2DC5C
:103BA00002980028EFD1791E0E980870307800F046
:103BB000200040F0450007F8020D12A8C01B00F1DC
:103BC00007081498007800B1012000EB0A01019861
:103BD00001EBE07105984144401A401E0590E00356
:103BE00006D45B462146179A059800F05DF8054417
:103BF0001498007818B15A46179990476D1CE00345
:103C000024D55B462146179A059800F04DF80544E7
:103C10001CE00498002807DBDDE90301884203DD8E
:103C20000098405C179901E0179930205A46904758
:103C3000049805F10105401C04900198401E019074
:103C400004D12E205A46179990476D1CBAF10001F5
:103C5000AAF1010ADDDC05E017F8010B5A461799B5
:103C600090476D1CB8F10001A8F10108F4DC5B4637
:103C70002146179A0598ABE62D0000002B000000A6
:103C8000200000002DE9F041044600251E4617469D
:103C9000880404D405E039462020B0476D1C641E1A
:103CA000F9D52846BDE8F0812DE9F041044600250C
:103CB0001E469046C80301D5302700E0202788041F
:103CC00004D505E041463846B0476D1C641EF9D561
:103CD0002846BDE8F0812DE9F04105460E4617461D
:103CE0001C463A4631462846A047BDE8F081000010
:103CF00007B5A6B0FE482590FE480078401CFD4957
:103D00000870084600780F9000EBD07041100F98B3
:103D1000A0EB4100002849D02798B0F900000E9090
:103D2000FCF784FCF4490F90FCF788FAF34908602B
:103D30002798B0F902000E90FCF778FCEE490F903E
:103D4000FCF77CFAED4948602798B0F904000E9022
:103D5000FCF76CFCE8490F90FCF770FAE7498860C3
:103D60002698B0F900000E90FCF760FCE4490F9033
:103D7000FCF764FAE34908602698B0F902000E9057
:103D8000FCF754FCDE490F90FCF758FADD49486017
:103D90002698B0F904000E90FCF748FCD8490F9023
:103DA000FCF74CFAD749886029B000BDD1480078AB
:103DB0000F9000EBD07041100F98A0EB410000284D
:103DC00047D12798B0F900000E90FCF72FFCCA49A4
:103DD0000F90FCF733FACC4908602798B0F902003D
:103DE0000E90FCF723FCC4490F90FCF727FAC64954
:103DF00048602798B0F904000E90FCF717FCBE4904
:103E00000F90FCF71BFAC04988602698B0F90000B3
:103E10000E90FCF70BFCBA490F90FCF70FFABB4968
:103E200008602698B0F902000E90FCF7FFFBB44939
:103E30000F90FCF703FAB54948602698B0F90400E2
:103E40000E90FCF7F3FBAE490F90FCF7F7F9AF4982
:103E500088600020A74908702490AD4880680890C9
:103E6000AC48C06807900899FCF7E8F90A90A848A0
:103E700040680690A748806805900699FCF7DEF92F
:103E80000890A34800680490A248406803900499F1
:103E9000FCF7D4F906909F48006804902499FCF739
:103EA000CDF905900699FCF7C3F907900899FCF73E
:103EB000BFF909900A99FCF7BBF90B90FCF7D8FB06
:103EC0000022954BCDE90C01FCF7CFFACDE90E01AC
:103ED000FCF7E1FB20908E48406808908D48C06850
:103EE00007900899FCF7AAF90A908948806806901B
:103EF0008848806805900699FCF7A0F908908548E5
:103F0000406804902499FCF799F90690804800686D
:103F100004908048006803900499FCF78FF905909D
:103F20000699FCF733F907900899FCF72FF90990E7
:103F30000A99FCF77DF90B90FCF79AFB0022764B6F
:103F4000CDE90C01FCF791FACDE90E01FCF7A3FBDA
:103F500021906F48006808906E48C06807900899E3
:103F6000FCF76CF90A906B48806806902499FCF77E
:103F700065F9089066488068049066484068039038
:103F80000499FCF75BF90690614840680490614829
:103F9000006803900499FCF751F905900699FCF725
:103FA00047F907900899FCF743F909900A99FCF73B
:103FB000EDF80B90FCF75CFB0022574BCDE90C01B0
:103FC000FCF753FACDE90E01FCF765FB229051484E
:103FD000C06808902499FCF731F90A904C480068B1
:103FE00006904C48806805900699FCF727F90890E0
:103FF0004748406804904748406803900499FCF79C
:104000001DF9069042488068049042480068039079
:104010000499FCF713F905900699FCF7B7F8079097
:104020000899FCF705F909900A99FCF701F90B903A
:10403000FCF71EFB0022384BCDE90C01FCF715FA0A
:10404000CDE90E01FCF727FB239020980590FCF7A3
:104050000FFBCDE908012598FCF70AFB00222E4B47
:10406000CDE90401FCF701FACDE90601DDE90823F9
:10407000FCF7FBF9CDE90C01264800680990FCF734
:10408000F7FACDE90A01DDE90C23FCF747F9CDE9A0
:104090000E01FCF700FB109021980590FCF7E8FA60
:1040A000CDE908012598FCF7E3FA00221A4BCDE987
:1040B0000401FCF7DAF9CDE90601DDE90823FCF794
:1040C000D4F9CDE90C01134840680990FCF7D0FA07
:1040D000CDE90A01DDE90C23FCF720F9CDE90E0159
:1040E000FCF7D9FA119022980590FCF7C1FA15E077
:1040F0000AD7A33C34000020CCB38B39380200200F
:104100000AE81C3B50020020440200205C02002010
:104110002C020020240000200000E03FCDE908012F
:104120002598FCF7A5FA0022FE4BCDE90401FCF727
:104130009CF9CDE90601DDE90823FCF796F9CDE904
:104140000C01F94880680990FCF792FACDE90A0160
:10415000DDE90C23FCF7E2F8CDE90E01FCF79BFA50
:10416000129023980590FCF783FACDE90801259871
:10417000FCF77EFA0022EB4BCDE90401FCF775F960
:10418000CDE90601DDE90823FCF76FF9CDE90C0163
:10419000E548C0680990FCF76BFACDE90A01DDE952
:1041A0000C23FCF7BBF8CDE90E01FCF774FA139071
:1041B00010A801F03BFDDD48806808901398079037
:1041C0000899FCF73BF80A90D84840680690129886
:1041D00005900699FCF732F80890D44800680490DE
:1041E000119803900499FCF729F806901098049010
:1041F0002499FCF723F805900699FCF719F8079025
:104200000899FCF715F809900A99FCF711F80B903A
:10421000FCF72EFA0022C34BCDE90C01FCF725F97F
:10422000CDE90E01FCF737FA1C90C04840680890B1
:10423000139807900899FCF701F80A90BB4880682A
:104240000690129805900699FBF7F8FF08901198D0
:1042500004902499FBF7F2FF0690B448006804909C
:10426000109803900499FBF7E9FF05900699FBF776
:104270008DFF07900899FBF789FF09900A99FBF7D2
:10428000D7FF0B90FCF7F4F90022A64BCDE90C0107
:10429000FCF7EBF8CDE90E01FCF7FDF91D90A34802
:1042A00000680890139807900899FBF7C7FF0A90D9
:1042B000129806902499FBF7C1FF08909B488068EC
:1042C0000490119803900499FBF7B8FF0690974863
:1042D00040680490109803900499FBF7AFFF059095
:1042E0000699FBF7A5FF07900899FBF7A1FF099036
:1042F0000A99FBF74BFF0B90FCF7BAF90022894BA8
:10430000CDE90C01FCF7B1F8CDE90E01FCF7C3F9DA
:104310001E90139808902499FBF790FF0A90834809
:1043200000680690129805900699FBF787FF0890A1
:104330007E4840680490119803900499FBF77EFF33
:1043400006907A4880680490109803900499FBF7CF
:1043500075FF05900699FBF719FF07900899FBF781
:1043600067FF09900A99FBF763FF0B90FCF780F950
:1043700000226C4BCDE90C01FCF777F8CDE90E017A
:10438000FCF789F91F901C980590FCF771F9CDE9AD
:1043900008012598FCF76CF90022624BCDE9040175
:1043A000FCF763F8CDE90601DDE90823FCF75DF8C9
:1043B000CDE90C015C4800680990FCF759F9CDE99A
:1043C0000A01DDE90C23FBF7A9FFCDE90E01FCF79B
:1043D00062F910901D980590FCF74AF9CDE90801A3
:1043E0002598FCF745F900224E4BCDE90401FCF776
:1043F0003CF8CDE90601DDE90823FCF736F8CDE904
:104400000C01494840680990FCF732F9CDE90A01EE
:10441000DDE90C23FBF782FFCDE90E01FCF73BF948
:1044200011901E980590FCF723F9CDE90801259815
:10443000FCF71EF900223B4BCDE90401FCF715F80F
:10444000CDE90601DDE90823FCF70FF8CDE90C0101
:10445000354880680990FCF70BF9CDE90A01DDE9E0
:104460000C23FBF75BFFCDE90E01FCF714F912906A
:104470001F980590FCF7FCF8CDE908012598FCF79A
:10448000F7F80022274BCDE90401FBF7EEFFCDE959
:104490000601DDE90823FBF7E8FFCDE90C0122481E
:1044A000C0680990FCF7E4F8CDE90A01DDE90C23C6
:1044B000FBF734FFCDE90E01FCF7EDF8139010A8DF
:1044C00001F0B4FB19488068089013980790089988
:1044D000FBF7B4FE0A9015484068069012980590C4
:1044E0000699FBF7ABFE08901048006804901198FD
:1044F00003900499FBF7A2FE06901098049024996B
:10450000FBF79CFE05900699FBF792FE0790089931
:10451000FBF78EFE09900A99FBF78AFE0B90FCF7D9
:10452000A7F805E00000E03F24000020380200204A
:104530000022FE4BCDE90C01FBF797FFCDE90E0100
:10454000FCF7A9F81890FA4840680890139807906B
:104550000899FBF773FE0A90F54880680690129858
:1045600005900699FBF76AFE08901198049024992B
:10457000FBF764FE0690EE480068049010980390E4
:104580000499FBF75BFE05900699FBF7FFFD07908A
:104590000899FBF7FBFD09900A99FBF749FE0B9080
:1045A000FCF766F80022E14BCDE90C01FBF75DFF5B
:1045B000CDE90E01FCF76FF81990DD48006808900E
:1045C000139807900899FBF739FE0A901298069005
:1045D0002499FBF733FE0890D54880680490119821
:1045E00003900499FBF72AFE0690D1484068049096
:1045F000109803900499FBF721FE05900699FBF7AC
:1046000017FE07900899FBF713FE09900A99FBF72C
:10461000BDFD0B90FCF72CF80022C44BCDE90C013A
:10462000FBF723FFCDE90E01FCF735F81A9013983C
:1046300008902499FBF702FE0A90BD480068069096
:10464000129805900699FBF7F9FD0890B848406864
:104650000490119803900499FBF7F0FD0690B4487C
:1046600080680490109803900499FBF7E7FD05908B
:104670000699FBF78BFD07900899FBF7D9FD099088
:104680000A99FBF7D5FD0B90FBF7F2FF0022A74B31
:10469000CDE90C01FBF7E9FECDE90E01FBF7FBFFCD
:1046A0001B90189801460E902598FBF7C7FD0F90B8
:1046B000A048006801460E900F98FBF767FD109028
:1046C000199801460E902598FBF7B8FD0F90994870
:1046D000406801460E900F98FBF758FD11901A980C
:1046E00001460E902598FBF7A9FD0F909148806830
:1046F00001460E900F98FBF749FD12901B9801465A
:104700000E902598FBF79AFD0F908A48C0680146E5
:104710000E900F98FBF73AFD139010A801F086FA5F
:10472000854880680890139807900899FBF786FDE4
:104730000A90814840680690129805900699FBF708
:104740007DFD08907C4800680490119803900499BE
:10475000FBF774FD0690109804902499FBF76EFD0A
:1047600005900699FBF764FD07900899FBF760FD3B
:1047700009900A99FBF75CFD0B90FBF779FF00228B
:104780006A4BCDE90C01FBF770FECDE90E01FBF79A
:1047900082FF149068484068089013980790089921
:1047A000FBF74CFD0A9064488068069012980590CB
:1047B0000699FBF743FD0890119804902499FBF7A4
:1047C0003DFD06905C4800680490109803900499A1
:1047D000FBF734FD05900699FBF7D8FC0790089984
:1047E000FBF7D4FC09900A99FBF722FD0B90FBF72D
:1047F0003FFF00224D4BCDE90C01FBF736FECDE922
:104800000E01FBF748FF15904B480068089013987D
:1048100007900899FBF712FD0A90129806902499C8
:10482000FBF70CFD089044488068049011980390B1
:104830000499FBF703FD06903F48406804901098E8
:1048400003900499FBF7FAFC05900699FBF7F0FC3E
:1048500007900899FBF7ECFC09900A99FBF796FC86
:104860000B90FBF705FF0022304BCDE90C01FBF765
:10487000FCFDCDE90E01FBF70EFF16901398089092
:104880002499FBF7DBFC0A902B48006806901298ED
:1048900005900699FBF7D2FC0890274840680490E1
:1048A000119803900499FBF7C9FC06902248806890
:1048B0000490109803900499FBF7C0FC05900699AA
:1048C000FBF764FC07900899FBF7B2FC09900A9982
:1048D000FBF7AEFC0B90FBF7CBFE0022134BCDE9B0
:1048E0000C01FBF7C2FDCDE90E01FBF7D4FE1790DA
:1048F0001898014601904FF08040FBF79FFC039011
:104900001C98014600904FF08040FBF797FC019007
:104910002098014600900198FBF738FC029003991B
:10492000FBF734FC04901498014607E00000E03FD8
:104930003802002024000020440200200390049844
:10494000FBF724FC0590FBF793FECDE908012598C1
:10495000FBF78EFED74AD84BCDE90401FBF785FD66
:10496000CDE90601DDE90823FBF77FFDCDE90C0168
:10497000D24800680990FBF77BFECDE90A01DDE92A
:104980000C23FBF7CBFCCDE90E01FBF784FECB49F2
:1049900008601998014601904FF08040FBF74EFCEB
:1049A00003901D98014600904FF08040FBF746FCB5
:1049B00001902198014600900198FBF7E7FB0290D7
:1049C0000399FBF7E3FB04901598014603900498C4
:1049D000FBF7DCFB0590FBF74BFECDE908012598C2
:1049E000FBF746FEB34AB44BCDE90401FBF73DFDAE
:1049F000CDE90601DDE90823FBF737FDCDE90C0120
:104A0000AE4840680990FBF733FECDE90A01DDE9C5
:104A10000C23FBF783FCCDE90E01FBF73CFEA74915
:104A200048601A98014601904FF08040FBF706FC61
:104A300003901E98014600904FF08040FBF7FEFB6C
:104A400001902298014600900198FBF79FFB02908D
:104A50000399FBF79BFB049016980146039004987A
:104A6000FBF794FB0590FBF703FECDE908012598C1
:104A7000FBF7FEFD8F4A904BCDE90401FBF7F5FCF7
:104A8000CDE90601DDE90823FBF7EFFCCDE90C01D8
:104A90008A4880680990FBF7EBFDCDE90A01DDE962
:104AA0000C23FBF73BFCCDE90E01FBF7F4FD83493A
:104AB00088601B98014601904FF08040FBF7BEFBD9
:104AC00003901F98014600904FF08040FBF7B6FB23
:104AD00001902398014600900198FBF757FB029044
:104AE0000399FBF753FB0490179801460390049831
:104AF000FBF74CFB0590FBF7BBFDCDE908012598C2
:104B0000FBF7B6FD6B4A6C4BCDE90401FBF7ADFC3E
:104B1000CDE90601DDE90823FBF7A7FCCDE90C018F
:104B20006648C0680990FBF7A3FDCDE90A01DDE9FD
:104B30000C23FBF7F3FBCDE90E01FBF7ACFD5F495E
:104B4000C860084601F072F85D4800685D49086079
:104B50005B48406848605A48806888605748806869
:104B600009905648806808900999FBF767FB0B90FD
:104B70005248406809905148406808900999FBF7ED
:104B80005DFB0A900B99FBF701FB4FF080410C9005
:104B9000FBF754FB4FF07E510D90FBF74CFB0F9051
:104BA0004648C0680A904548806809900A99FBF712
:104BB00045FB0C90414840680A90404800680990C5
:104BC0000A99FBF73BFB0B900C99FBF7DFFA4FF0D0
:104BD00080410D90FBF732FB0E900F9900F006F923
:104BE00028998860354840680B903448C0680A901E
:104BF0000B99FBF723FB0D90304880680B902F48F2
:104C000000680A900B99FBF719FB0C900D99FBF7C4
:104C10000FFB4FF080410E90FBF710FB0F9000F060
:104C200053F8289908602548C06809902348C0684F
:104C300008900999FBF702FB0B90204880680990C7
:104C40001E48806808900999FBF7F8FA0A900B99BA
:104C5000FBF79CFA4FF080410C90FBF7EFFA4FF016
:104C60007E510D90FBF7E7FA0F90144880680A9088
:104C70001248406809900A99FBF7E0FA0C900F4837
:104C8000C0680A900D48006809900A99FBF7D6FAA7
:104C90000B900C99FBF77AFA4FF080410D90FBF7DF
:104CA000CDFA0E900F9900F0A1F82899486000BF46
:104CB000FFF77AB8A5BDC1172653C53F24000020D1
:104CC000440200202C0200202DE9F04104464FF060
:104CD0000E4000EB4400B0F1506F204655D84FF025
:104CE000FC41B1EB440F1CD224F000404FF07E5148
:104CF000FBF7A1FA4FF0FF31FBF793FD054601F0FA
:104D000001F814F0004F1DBF2F4F304E80F00040CF
:104D10002F4F08BF2F4E4FF04041FBF78FFA04464C
:104D200005E000273E460146FBF788FA05462A497A
:104D30002846FBF783FA2949FBF728FA2946FBF7AF
:104D40007DFA2749FBF722FA2946FBF777FA25492E
:104D5000FBF71CFA2946FBF771FA2349FBF716FA11
:104D6000804629462046FBF769FA4146FBF766FA7A
:104D7000054631462046FBF709FA2946FBF706FAB5
:104D80003946BDE8F041FBF701BA4FF0E441B1EB21
:104D9000440F08D9FEF73EFA042808BFFEF773FA5D
:104DA0002046BDE8F0814FF07F41B1EB440F03D2C4
:104DB000BDE8F041FEF75EBA0120FEF72DFBBDE82D
:104DC000F041FEF75CBA00000000C9BF22AAFDB99D
:104DD0000000C93F22AAFD3924FE1C3DC78AD83CE9
:104DE0001E67383D1B93993DAFAA2A3E2DE9F04737
:104DF0004FF0684202EB40030C460546B3F1654FA5
:104E00003CBF02EB4102B2F1654F7CD2C0F3C75305
:104E1000C1F3C7529A1A1B2A06DD10F0004F14BFC7
:104E200076487748BDE8F08712F11A0F17DA11F0CB
:104E3000004F06D010F0004F0CBF72487248BDE81A
:104E4000F08721462846FBF72BFA0446FEF7E2F9E5
:104E5000042808BFFEF717FA2046BDE8F087420095
:104E6000B2EB410F25D910F0004F19BF674F684EC4
:104E7000684F694E224685F0004415460A4680F088
:104E8000004110460A1A5200B2F1807F40D24840D9
:104E90006249DFF88CA110F0004F18D04FF03F4866
:104EA0003846FBF7C5F9074651463046FBF7C0F9CF
:104EB00017E011F0004F04BF00263746E2D010F093
:104EC000004F19BF574F584E584F594EDAE74FF021
:104ED0007C583846FBF75AF9074651463046FBF7EF
:104EE00055F9064641462846FBF7A8F92146FBF747
:104EF0004DF9824621464046FBF7A0F92946FBF7CB
:104F00009AF9514600E037E0FBF7CAF9044604E09D
:104F100021462846FBF7C4F904460146FBF78EF903
:104F200080464449FBF78AF94349FBF72FF941468C
:104F3000FBF784F94149FBF729F94146FBF77EF974
:104F40003F49FBF723F94146FBF778F93D49FBF769
:104F50001DF9054641462046FBF770F92946FBF747
:104F60006DF93146FBF712F92146FBF70FF9394687
:104F7000BDE8F047FBF70AB94FF07F42B2EB400FB4
:104F800028BFB2EB410F03D2BDE8F047FEF775B979
:104F900040EA01035B0008BF44F0FF410AD0B2EBD6
:104FA000400F08BFB2EB410F06D125F0804024F03E
:104FB000804105460C4629E7B2EB400F12BF5FEA7D
:104FC000410245F0FF4004F000413FF41FAF4A00AA
:104FD00092EA40033FF51AAF002AACBF4FF09F465C
:104FE0004FF03E563146FBF729F90546314620463B
:104FF000FBF724F904462846214607E7DB0FC9BF23
:10500000DB0FC93FDB0F4940DB0F49C00000C9BFC0
:1050100022AAFDB90000C93F22AAFD390060ED3E79
:10502000C30ACE37000049C022AA7DBA0000494019
:1050300022AA7D3A2DAD65BD8FB8D53D0FB511BE05
:1050400061C84C3EA8AAAABE2DE9FE4F06460C46F2
:105050001546A660E168A868FBF7F0F802902169A0
:105060006868FBF7EBF8824621686869FBF7E6F8A9
:10507000019061682869FBF7E1F80090A168E86891
:10508000FBF7DCF883460099FBF780F8814601992D
:10509000FBF77CF880465146FBF7CAF807460299B1
:1050A000FBF7C6F8606160682060A06860602069F6
:1050B000E060616921616069BDE8FE8F2DE9F74F0D
:1050C00084B08946144649460498FBF7E9F80390F2
:1050D0000398FBF7CDFA07463A460B463A483B4958
:1050E000FBF735FA0546FBF7D6FA834600F020FEBB
:1050F000824651465046FBF7A1F88046344800F0FE
:1051000069F883464FF08041FBF798F8074651460F
:10511000FBF794F806464FF07E51FBF737F805464B
:105120004146FBF733F8029000214846FBF7D0FADE
:1051300002D807B0BDE8F08F51465046FBF77EF825
:1051400005460299FBF7ACF8E0604FF08040E1685B
:10515000FBF774F82061E16861614FF07E502060D8
:1051600051465046FBF76AF807464FF07E51FBF771
:105170005FF806464FF08041FBF760F8054602995C
:10518000FBF78EF8606051465046FBF757F88346B0
:105190000F4800F01FF84FF080410190FBF74EF8E8
:1051A00080465146FBF74AF807464FF07E51FBF721
:1051B00042F806465946FAF7E9FF05460299FBF719
:1051C0006FF8A06000BFB4E77A008BFCFA210940B9
:1051D000D80F493F2DE9F843044602464F48694637
:1051E000B0EB420F09D94FF0E640B0EB420F94BF4D
:1051F00000204FF0FF30009030E0494B22F000409B
:10520000834271D947492046FBF718F8FBF715FB95
:105210008046FBF714FA00F0030000904249404634
:10522000FBF70CF8054641494046FBF707F80646F0
:105230003F494046FBF702F807463E494046FAF729
:10524000FDFF2146FAF7F7FF3946FAF7F1FF31463D
:10525000FAF7EEFF2946FAF7EBFF04462546009CD5
:10526000002C45DB294614F0010F08461CD0FAF744
:10527000E5FF06463049FAF7E1FF3049FAF7DBFF70
:105280003146FAF7DBFF2E49FAF780FF3146FAF78D
:10529000D5FF2946FAF7D2FF2946FAF777FF14F02F
:1052A000020F1CD0BDE8F883FAF7C8FF0546254970
:1052B000FAF7C4FF2449FAF769FF2946FAF7BEFF57
:1052C0002249FAF763FF2946FAF7B8FF4FF07E51FB
:1052D000FAF75CFF14F0020F08BFBDE8F88380F016
:1052E0000040BDE8F883FFE71046FDF7D1FFB4E7C3
:1052F0006800B0F17F4F3CBF4FF07E50BDE8F883AF
:1053000007D14FF00100FEF787F8BDE8F843FDF73D
:10531000B6BF2846BDE8F843FDF7ACBFB61F927E86
:10532000490E494683F9223F1A61342C0020A233EA
:1053300000A0FD390000C93F336D4C39DA82083CCA
:10534000A0AA2ABEB93AB2BACA9F2A3DDDFFFFBE63
:1053500010B504462046FBF765FB10BD10B509A04B
:10536000FDF748FF00BF00F04FFA0128FBD109A06C
:10537000FDF740FF00F0DEF800F0DCFA00F092FDEF
:1053800010BD000053797374656D20496E697421F6
:105390000D0A00006D707520496E6974210D0A00B8
:1053A00000BF054A126802F04002002AF9D0C2B2DA
:1053B000014B1B1D1A6070470044004010B50022CD
:1053C0004FF480610148FBF7D1FC10BD000C014097
:1053D00010B5012291020248FBF7C8FC10BD000085
:1053E000000C014010B500224FF400610148FBF7AA
:1053F000BDFC10BD000C014010B50122D1020248D5
:10540000FBF7B4FC10BD0000000C0140FEB50446E3
:105410000D4616461F4642F20F70610001232A46D0
:10542000CDE9006702900448FBF794FD10B14FF0FE
:10543000FF30FEBD0020FCE73C000020FEB5044626
:105440000D46164642F20F700121CDE9006102902F
:10545000610001232A460448FBF77CFD10B14FF0A0
:10546000FF30FEBD0020FCE73C00002037B584B0D3
:1054700004460D4642F20F70012106AACDE9002133
:105480000290610001232A460448FBF715FF18B17A
:105490004FF0FF3007B030BD0020FBE73C0000209C
:1054A000FCF702F8FDF7A5FCFDF74CFBFDF7A2FBAE
:1054B000FDF74AFCFDF7BCFBFDF7F0FBFDF760FCD8
:1054C0000348FCF7D1FCFFF749FF00BFFEE70000EF
:1054D0009000002010B50446204600F001F810BDF1
:1054E0000149096848637047D800002010B5044698
:1054F000204600F001F810BD014909688863704733
:10550000D800002010B50446204600F001F810BD78
:1055100001490968C8637047D800002010B50446E7
:10552000204600F001F810BD014909680864704781
:10553000D800002010B500F00DF80020FFF7CAFFDA
:105540000020FFF7D3FF0020FFF7DCFF0020FFF76C
:10555000E5FF10BD10B500210748FCF721FF04212D
:105560000548FCF71DFF08210348FCF719FF0C2133
:105570000148FCF715FF10BDD800002070B50446A7
:10558000B4F90000FBF752F80646144AA2F14801AC
:10559000FFF75AFD0546FBF752F800B22080B4F938
:1055A0000200FBF743F806460C4AA2F13001FFF770
:1055B0004BFD0546FBF743F800B26080B4F90400E8
:1055C000FBF734F80646054AA2F11801FFF73CFD47
:1055D0000546FBF734F800B2A08070BD0802002039
:1055E0000188094A1288891A09B201804188064A4D
:1055F0009288891A09B241808188034A1289891ADE
:1056000009B2818070470000A801002010B586B063
:105610000020039004900590002417E001A800F0FA
:105620000DF9BDF90410039808440390BDF9061064
:10563000049808440490BDF90800A0F5805005992D
:10564000084405900520FFF783FE641C642CE5DB0D
:10565000039890FBF4F006490860049890FBF4F07E
:105660004860059890FBF4F0886006B010BD00001B
:10567000A801002010B500226B216820FFF7F6FE7C
:10568000002219216820FFF7F1FE00221A2168206C
:10569000FFF7ECFE08221B216820FFF7E7FE10222F
:1056A0001C216820FFF7E2FE10BD00002DE9F0414B
:1056B00004460D4616461F46DDF81880204600F0C9
:1056C000BDF8284600F0E6F8012E05D12046FFF788
:1056D00087FF284600F04EF8B8F1010F11D1B4F958
:1056E0000430B4F90220B4F9001010A0FDF782FDD7
:1056F000B5F90430B5F90220B5F9001011A0FDF795
:1057000079FD012F02D12046FFF738FFB8F1010FD4
:1057100008D1B4F90430B4F90220B4F900100FA094
:10572000FDF768FD0120BDE8F08100007B414343A7
:105730005F7261773A25642C25642C25647D0A0DFF
:10574000000000007B4759525F7261773A25642C54
:1057500025642C25647D0A0D000000007B41434335
:105760005F66696C7465723A25642C25642C256427
:105770007D0A0D000188094A9289891A09B20180BF
:1057800042880649098A511A09B241808288034930
:10579000898A511A09B2818070470000A80100204F
:1057A00010B586B00020039004900590002415E009
:1057B00001A800F06FF8BDF90410039808440390A5
:1057C000BDF90610049808440490BDF90810059826
:1057D000084405900520FFF7BBFD641C642CE7DB43
:1057E000039890FBF4F00749C860049890FBF4F12B
:1057F00004480161059890FBF4F10248416106B04C
:1058000010BD0000A801002010B500BF00F06EF828
:105810000128FBD1FFF72EFFFFF7F8FEFFF7C0FFCF
:10582000034A04490448FFF749FC012010BD000069
:1058300008020020000020410000C8427CB5044658
:10584000052608E006236A463B216820FFF7DEFDB7
:10585000054605B904E0301EA6F10101CEB2F1D132
:1058600000BF9DF801009DF8001040EA012000B241
:1058700020809DF803009DF8021040EA012000B24C
:1058800060809DF805009DF8041040EA012000B2F8
:10589000A0807CBD7CB50446052608E006236A4648
:1058A00043216820FFF7B2FD054605B904E0301E2C
:1058B000A6F10101CEB2F1D100BF9DF801009DF823
:1058C000001040EA012000B220809DF803009DF8FE
:1058D000021040EA012000B260809DF805009DF8AA
:1058E000041040EA012000B2A0807CBD08B56A46E1
:1058F00075216820FFF7A2FD9DF80000682801D1FE
:10590000012008BD0020FCE770B5064600240EE02B
:105910002146002000F071F8002504E0304600F038
:105920006FF9681CC5B2802DF8DB601CC4B2082C6E
:10593000EEDB70BD10B500F00DF8FF20FFF7E4FFBF
:105940004FF4FA70FBF76EF80020FFF7DDFF00F070
:10595000A7F810BD10B5AE2000F03CF9022000F011
:1059600039F9102000F036F9402000F033F9B0206A
:1059700000F030F9812000F02DF9FF2000F02AF925
:10598000A12000F027F9A62000F024F9A82000F0BB
:1059900021F93F2000F01EF9C82000F01BF9D320A8
:1059A00000F018F9002000F015F9D52000F012F9E8
:1059B000802000F00FF9D82000F00CF9052000F04D
:1059C00009F9D92000F006F9F12000F003F9DA20F6
:1059D00000F000F9122000F0FDF8DB2000F0FAF8EA
:1059E000302000F0F7F88D2000F0F4F8142000F0DB
:1059F000F1F8AF2000F0EEF810BD70B504460D468A
:105A000005F1B001C8B200F0E5F8A11CC1F3031123
:105A100041F0100000F0DEF8A11C01F00F0000F0D2
:105A2000D9F870BD2DE9F0470546884616461F4651
:105A3000DDF8209000240CE0325D04EB440105EB1E
:105A40004101C8B2414600F009F84846FFF780FC22
:105A5000641CBC42F0DBBDE8F08700002DE9F0419A
:105A600006460F461446A4F12000C4B2792E00DD8C
:105A7000002639463046FFF7C0FF002509E004EB59
:105A80004401064A02EB4101485D00F0B9F8681C88
:105A9000C5B2062DF3DBBDE8F0810000CC5E000846
:105AA00000B59DB00020FFF72FFF18222DA117A8E9
:105AB000FAF748FB0A20152317AA00210090084690
:105AC000FFF7B0FF2DA0D0E901320168C068CDE931
:105AD0001432139116900A200C2313AA012100906E
