:020000040800F2
:10000000E8050020010100083D2C0008FD2400083F
:10001000392C00081D0A00084D30000800000000BF
:10002000000000000000000000000000692C000833
:10003000210A0008000000003F2C00086B2C00087B
:100040001B0100081B0100081B0100081B01000820
:100050001B0100081B0100081B0100081B01000810
:100060001B0100081B0100081B0100081B01000800
:100070001B0100081B0100081B0100081B010008F0
:100080001B0100081B0100081B0100081B010008E0
:100090001B0100081B0100081B0100081B010008D0
:1000A0001B0100081B0100081B0100081B010008C0
:1000B000DD2C00081B0100081B0100081B010008C3
:1000C0001B0100081B0100081B0100081B010008A0
:1000D0001B0100081B0100081B0100081B01000890
:1000E0001B0100081B0100081B010008DFF80CD0F1
:1000F00000F04EFC00480047654A0008E805002073
:100100000648804706480047FEE7FEE7FEE7FEE7B1
:10011000FEE7FEE7FEE7FEE7FEE7FEE7D92C000874
:10012000ED000008202A04DB203A21FA02F0002129
:10013000704721FA02F3D040C2F1200291400843F7
:100140001946704740EA01039B0703D009E008C93C
:10015000121F08C0042AFAD203E011F8013B00F88C
:10016000013B521EF9D27047D2B201E000F8012BD8
:10017000491EFBD270470022F6E710B513460A4627
:1001800004461946FFF7F0FF204610BDF0B480EAA0
:100190000102D40F4200B2EB410F02D202460846E0
:1001A00011464A0042D0C30DDDB2C1F3C752AD1AA9
:1001B000202D35DAC1F3160141F4000204B1524298
:1001C000C5F1200602FA06F12A411044B3EBD05FD4
:1001D00023D0C4B1012DA0EBC35009DCF0BC4FF01B
:1001E000004202EAC352DBB200F5000000F0EBBAB5
:1001F000400000F1807000EBC350A0F1807040EA35
:10020000D170490009E0490841EAC071A0EBC35030
:1002100000F50000400800EBC350F0BC00F0CABA83
:100220006142012202EB4101001BF6E7F0BC70477E
:1002300081F00041AAE780F00040A7E780EA0102D0
:1002400010B502F00043400022D04A001FD0010E3A
:1002500001EB1261C0F35600C2F3560240F40000F5
:1002600042F40002A0FB022000047F39140400D0F5
:10027000401C50EA124001D44000491EC2B20C0694
:1002800004EBD010401C4008802A02D003E000207C
:1002900010BD20F00100002900DA0020184310BD35
:1002A00030B480EA010202F0004530F0004221F053
:1002B000004013D090B1C30DD40DC2F31601C0F3AA
:1002C0001600E41A41F4000140F400027D3491422A
:1002D00001D3641C00E04900002C02DA30BC00208D
:1002E00070474FF400000023914201D3891A034361
:1002F00040084FEA4101F7D151B1914202D14FF08C
:10030000004105E002D24FF0010101E06FF0010170
:1003100003EBC450284430BC00F04CBA2DE9FE4F2A
:10032000804681EA0300C00F0C46009021F0004196
:1003300023F00045B8EB0200A94105D24046214612
:1003400090461C460B46024623F00040104347D01F
:10035000270DC7F30A00C3F30A510290401A019017
:1003600040286BDAC3F3130040F4801B00989246D8
:1003700020B10023D2EB030A63EB0B0B0198594623
:10038000C0F14002504600F0F4F906460D465046D2
:100390005946019A00F0FCF910EB08006141002475
:1003A00087EA115284EAE7731A4340D0009A62B395
:1003B000019A012A4FEA075215DC001B61EB02018A
:1003C0004FF0004202EA0752CDE90042001C41F51D
:1003D000801132462B4600F05DFA03B0BDE8F08F85
:1003E00040462146F9E7001B61EB0201001C41F584
:1003F000801300185B412018A2F5001747EB03019A
:1004000040EAD570B6196D4111E06D084FEA360625
:1004100045EAC0754FEA0752001B61EB0201001C60
:1004200041F5801149084FEA300000195141324628
:100430002B4603B0BDE8F04F00F01DBA0098012232
:1004400040000023D0EB020263EBE07300982146EA
:100450004FEAE074B8EB000061EB0401E9E783F0D8
:1004600000435BE781F0004158E72DE9FE4F81EA48
:10047000030404F0004421F0004100944FF0000B0D
:1004800023F0004350EA01045ED052EA03045BD03B
:10049000C3F30A54C1F30A552C44A4F2F334019473
:1004A000A0FB0254C1F3130141F48011C3F3130301
:1004B00043F4801301FB024400FB034E840A970AB5
:1004C00044EA815447EA8357A4FB076802958D0AE2
:1004D00005FB07854FEA932C04FB0C542705029D6E
:1004E0004FEA065847EA1637B5EB08056EEB070CDE
:1004F000870E920E47EA811742EA8312A7FB020198
:10050000B6EB0B0164EB00042B0D43EA0C335E18D1
:1005100044EB1C50DA465146E7FB0201C5F31304D5
:100520004FEA0B3343EA14534FEA0432019C43EA87
:100530000603A4F10C040294009CCDE900B400F081
:10054000A9F903B0BDE8F08F00200146F9E72DE9D5
:10055000F04D81EA030404F0004B21F000451446FD
:100560004FF0000A23F0004150EA050220D054EA7F
:1005700001021DD0C5F30A570246C5F31303C1F3A8
:100580001300C1F30A5640F4801543F48013A7EB1F
:100590000608101BD64608F2FD3873EB050002D39F
:1005A00008F1010801E092185B41B8F1000F03DA8D
:1005B00000200146BDE8F08D00204FF48011064672
:1005C00084460EE0171B73EB050705D3121B63EB84
:1005D000050306434CEA010C49084FEA3000921823
:1005E0005B4150EA0107EDD152EA030012D082EAE2
:1005F000040083EA0501084305D0101BAB4106D275
:100600000122002306E000224FF0004302E06FF0D9
:10061000010253101AEB06004CEB085110EB0A00D4
:1006200041EB0B01BDE8F04D00F025B9C10F80EAA8
:10063000E0700844CA079623002100F0C4B800F017
:10064000004220F00040C10DC0F3160040F400004D
:100650007F2901DA00207047962903DCC1F1960159
:10066000C84001E096398840002AF4D040427047E3
:1006700000F0004230F000400AD0C10D01F5607179
:10068000C0F3160042EA0151C20840071143704707
:1006900000200146704701F0004330B421F00041D2
:1006A00050EA010206D00A0DA2F56072C1F31301EF
:1006B000002A02DC30BC00207047440F44EAC10429
:1006C000C100E01830BC00EBC25000F073B800006D
:1006D000002801DBC0F10040002901DBC1F100412D
:1006E0008142704730B50B4601460020202201248C
:1006F00009E021FA02F59D4205D303FA02F5491BF0
:1007000004FA02F52844151EA2F10102F1DC30BD05
:100710002DE9F05F0546002092469B468846064636
:10072000814640241BE02846414647462246FFF7C3
:10073000F9FC53465A46C01A914110D31146184647
:10074000224600F016F82D1A67EB01084F462246A4
:100750000120002100F00DF817EB00094E41201E8A
:10076000A4F10104DFDC484631462A464346BDE891
:10077000F09F202A04DB203A00FA02F100207047A3
:100780009140C2F1200320FA03F3194390407047CF
:10079000202A06DBCB17203A41FA02F043EAE07345
:1007A00006E041FA02F3D040C2F120029140084332
:1007B000194670470029A8BF7047401C490008BF70
:1007C00020F00100704710B4B0FA80FC00FA0CF081
:1007D00050EA010404BF10BC704749B1CCF12004B9
:1007E00021FA04F411FA0CF118BF01212143084346
:1007F000A3EB0C01CB1D4FEA00614FEA102042BF72
:10080000002010BC704700EBC35010440029A4BF67
:1008100010BC7047401C490008BF20F0010010BC0C
:100820007047420005D0C0F3C7525242914201DCEA
:100830000020704700EBC150704710B541000CD04C
:10084000C0F3C751962908DC7E2909DC06DB41028A
:1008500004D000F0004040F07E5010BD002010BDDC
:10086000C1F19604C4F1200100FA01F1E040FFF764
:10087000A1FFA04010BD10B5141E73F1000408DAEA
:10088000401C41F1000192185B411A4301D120F054
:10089000010010BD2DE9F04D92469B4611B1B1FA11
:1008A00081F202E0B0FA80F220329046FFF761FF59
:1008B00004460F4640EA0A0041EA0B0153465A46F5
:1008C000084313D0114653EA010019D0C8F1400281
:1008D0005046FFF727FC05460E465046594642460D
:1008E000FFF747FF084305D0012004E020463946C2
:1008F000BDE8F08D0020054346EAE0762C433743FF
:100900000A986305E40AA0EB08000022FD0A44EA05
:1009100047540A3002D500200146E9E701051019C5
:100920006941DDE9084500196941BDE8F04DA2E7DC
:10093000C1F30A52C1F3130140F2FF3341F48011B5
:100940009A4202DA00200146704740F233439A424D
:10095000A2F2334202DC5242FFF7E4BBFFF709BFC9
:1009600030B5041E71F1000404DB4FF00044404236
:1009700064EB0101141E73F1000405DB1C464FF00B
:100980000043524263EB0403994208BF904230BDDA
:10099000064C074D06E0E06840F0010394E80700CC
:1009A00098471034AC42F6D3FFF7A4FB6855000813
:1009B00088550008F0B4002802DCF0BC0020704725
:1009C000C0F3C751C0F3160040F40000CA0701D1BC
:1009D0004000491E3F2202EB6105002211464FF400
:1009E000000626FA01F31344D418844201D8001BF0
:1009F0001A464000491C1729F3DD5100814202D2FA
:100A00004FF0FF3100E0002102EBC550F0BCFFF7D2
:100A1000D1BE962300221146FFF7D5BE00BFFEE7E8
:100A20007047704770B5044600F0A6F906462546A3
:100A3000681C10B104480078054400BF00F09CF920
:100A4000801BA842FAD370BD0C0000202DE9F847A6
:100A50000346002294466EE14FF0010808FA02F4C2
:100A6000D1F8008008EA0400A0427DD1DFF8DCA2C2
:100A7000D1F80480A8EB0A09D0453AD014DCB8F1CB
:100A8000030F50D009DCB8F1000F31D0B8F1010FDD
:100A90001CD0B8F1020F49D120E0B8F1110F18D0E5
:100AA000B8F1120F42D11EE0B9F5881F25D006DC3F
:100AB000B9F5803F20D0B9F5801F37D11AE0B9F5DC
:100AC000001F18D0B9F5041F30D117E0D1F80CC0C1
:100AD0002DE0D1F80C8008F1040C28E0D1F80C804E
:100AE00008F1080C23E0D1F80C8008F10C0C1EE092
:100AF00000BF00BF00BF00BF00BF00BFD1F808802B
:100B0000B8F1000F02D14FF0040C0BE0D1F80880CF
:100B1000B8F1010F03D14FF0080C1C6102E04FF057
:100B2000080C5C6103E04FF0000C00E000BF00BF68
:100B3000FF2801D8984601E003F104084646FF2843
:100B400002D84FEA820803E0A2F108084FEA8808B9
:100B50004746D6F800804FF00F0909FA07F928EA4E
:100B600009080CFA07F900E088E048EA0908C6F825
:100B70000080D1F8048008F08058B8F1805F7DD102
:100B800000BFDFF8CC81D8F8188048F00108DFF802
:100B9000C091C9F81880C846D8F8188008F0010834
:100BA000CDF8008000BF00BF4FEAB9384FEA920984
:100BB00058F829504FEA82784FEA18794FF00F0819
:100BC00008FA09F825EA0805DFF88881434502D1CB
:100BD0004FF0000816E0DFF88081434502D14FF066
:100BE00001080FE0DFF87481434502D14FF002089D
:100BF00008E0DFF86C81434502D14FF0030801E0C3
:100C00004FF004084FEA82794FEA197908FA09F897
:100C100048EA0505DFF84C814FEA920948F8295067
:100C2000D1F8048008F48038B8F5803F0AD1DFF8A5
:100C30003881D8F8008048EA0008DFF82C91C9F81C
:100C4000008009E0DFF82081D8F8008028EA000859
:100C5000DFF81491C9F80080D1F8048008F4003856
:100C6000B8F5003F10D1DFF8008108F10408D8F88A
:100C7000008048EA0008DFF8F09000E05AE009F14F
:100C80000409C9F800800DE0DFF8DC8008F10408F1
:100C9000D8F8008028EA0008DFF8CC9009F10409B0
:100CA000C9F80080D1F8048008F48018B8F5801FD6
:100CB0000ED1DFF8B48008F10808D8F8008048EABF
:100CC0000008DFF8A49009F10809C9F800800DE0D8
:100CD000DFF8948008F10808D8F8008028EA0008B6
:100CE000DFF8849009F10809C9F80080D1F8048080
:100CF00008F40018B8F5001F0ED1DFF86C8008F179
:100D00000C08D8F8008048EA0008DFF85C9009F188
:100D10000C09C9F800800DE0DFF84C8008F10C08E0
:100D2000D8F8008028EA0008DFF83C9009F10C09A7
:100D3000C9F80080521CD1F8008028FA02F8B8F1F6
:100D4000000F7FF489AEBDE8F887000000001110A5
:100D50000010024000080140000C0140001001405A
:100D60000014014008000140000401400AB1016183
:100D700001E00B0403617047014800687047000000
:100D80000400002070B504460CB9012070BD94F831
:100D90003D0028B9002084F83C00204600F03EFBCE
:100DA000242084F83D002068006820F001002168BC
:100DB00008602068006840F40040216808602068EE
:100DC000006820F400402168086000F0FFFC054640
:100DD0005C496068884206D85B48854201D20120A0
:100DE00007E0002005E05948854201D2012000E0DB
:100DF0000020012800D1C9E75548B5FBF0F620686E
:100E0000406820F03F003043216848604D496068E9
:100E1000884201D8701C07E04FF4967070434FF47D
:100E20007A71B0FBF1F0401C2168096A21F03F01A2
:100E300008432168086243496068884214D8681EE4
:100E400061684900B0FBF1F0401CC0F30B000428BE
:100E500001D204203DE0681E61684900B0FBF1F05A
:100E6000401CC0F30B0034E0A06838B9681E61680C
:100E700001EB4101B0FBF1F0401C0AE0681E616823
:100E800001EBC10202EB0111B0FBF1F0401C40F498
:100E90008040C0F30B0008B901201AE0A06848B9EF
:100EA000681E616801EB4101B0FBF1F0401CC0F32A
:100EB0000B000CE0681E616801EBC10202EB01113E
:100EC000B0FBF1F0401CC0F30B0040F4804040F454
:100ED00000402168C9694CF6FF72914308432168BC
:100EE000C861D4E9070108432168096821F0C001FD
:100EF000084321680860D4E9031008432168896821
:100F000048F2FF329143084321688860D4E9050123
:100F100008432168C96821F0FF0108432168C860BF
:100F20002068006840F0010021680860002020640B
:100F3000202084F83D000020206384F83E0000BF9C
:100F400024E70000A086010080841E0000093D0007
:100F500040420F002DE9FE4F04460F469046994649
:100F6000DDE90CAB0E9E00200290FFF705FF054661
:100F700094F83D00202872D119230122CA49204645
:100F8000009501F02BFC10B10220BDE8FE8F00BFE0
:100F900094F83C00012801D10220F6E7012084F8F2
:100FA0003C0000BF2068006800F0010028B92068FC
:100FB000006840F00100216808602068006820F4A3
:100FC000006021680860222084F83D00402084F8F9
:100FD0003E0000202064C4F824A0A4F82AB0608D4C
:100FE0002085B248E0624B46424639462046CDE96C
:100FF000006501F0A5FA08B10120C6E7208D88B987
:1010000000BF00200190206840690190206880693D
:10101000019000BF00BF2068006840F400702168A4
:1010200008604BE0208D01281AD12068006820F468
:1010300080602168086072B600BF002001902068BF
:101040004069019020688069019000BF00BF20685E
:10105000006840F400702168086062B62EE020E16C
:10106000208D022819D12068006840F400602168B2
:10107000086072B600BF00200190206840690190AE
:1010800020688069019000BF00BF2068006820F4DC
:1010900080602168086062B610E02068006840F453
:1010A00080602168086000BF0020019020684069CE
:1010B000019020688069019000BF00BFE2E0208DB0
:1010C00003287DD8208D012815D12A463146204697
:1010D00001F029FC08B1012057E720680069616A26
:1010E0000870606A401C6062208D401E2085608D03
:1010F000401E6085C6E0208D02282CD13346002298
:101100006B492046009501F069FB08B101203CE7DE
:1011100072B62068006840F400702168086020689A
:101120000069616A0870606A401C6062208D401E20
:101130002085608D401E608562B620680069616A06
:101140000870606A401C6062208D401E2085608DA2
:10115000401E608596E033460022554920460095A2
:1011600001F03CFB08B101200FE72068006820F483
:1011700080602168086072B620680069616A087042
:10118000606A401C6062208D401E2085608D401E7C
:101190006085484800681921B0FBF1F04FF47A717E
:1011A000B0FBF1F0C0EBC00000EB8000029000BF8C
:1011B0000298401E02900298A8B90020206300E027
:1011C00039E0202084F83D00002084F83E00206CA7
:1011D00040F02000206462B600BF002084F83C008C
:1011E00000BF0120D1E620684069C0F380000028DC
:1011F000DED02068006840F4007021680860206834
:101200000069616A0870606A401C6062208D401E3F
:101210002085608D401E608562B620680069616A25
:101220000870606A401C6062208D401E2085608DC1
:10123000401E608526E02A463146204601F073FBB9
:1012400008B10120A1E620680069616A0870606A3F
:10125000401C6062208D401E2085608D401E608590
:1012600020684069C0F3800060B120680069616A4D
:101270000870606A401C6062208D401E2085608D71
:10128000401E6085208D00287FF419AF202084F84F
:101290003D00002084F83E0000BF84F83C0000BF01
:1012A00073E6022071E60000020010000000FFFF5C
:1012B00004000100100000202DE9FC5F04460F46E9
:1012C00090469946DDE90CAB0E9EFFF755FD0546AD
:1012D00094F83D0020287DD1192301224D49204654
:1012E000009501F07BFA10B10220BDE8FC9F00BF21
:1012F00094F83C00012801D10220F6E7012084F88F
:101300003C0000BF2068006800F0010028B9206898
:10131000006840F00100216808602068006820F43F
:10132000006021680860212084F83D00402084F896
:101330003E0000202064C4F824A0A4F82AB0608DE8
:1013400020853548E0624B46424639462046CDE985
:10135000006501F0A5F908B10120C6E731E02A4691
:101360003146204601F01FFB50B1206C042805D106
:101370002068006840F40070216808600120B4E72C
:10138000606A007821680861606A401C6062208D94
:10139000401E2085608D401E608520684069C0F336
:1013A000800070B1208D60B1606A007821680861AA
:1013B000606A401C6062208D401E2085608D401E4A
:1013C0006085208D0028CAD12A463146204601F08A
:1013D000D7F900E01CE050B1206C042805D120684A
:1013E000006840F400702168086001207DE72068F3
:1013F000006840F4007021680860202084F83D00F7
:10140000002084F83E0000BF84F83C0000BF6CE779
:1014100002206AE7020010000000FFFF10B586B04E
:10142000044600200290039004900590154920681E
:10143000884225D100BF1448806940F00800124955
:1014400088610846806900F00800019000BF00BF75
:10145000C0200290122003900320059002A90B489F
:10146000FFF7F4FA00BF0848C06940F400100649CD
:10147000C8610846C06900F40010019000BF00BFB9
:1014800006B010BD0054004000100240000C0140A6
:101490000348006803490978084401490860704717
:1014A000040000200C00002010B50848006840F03F
:1014B000100006490860032000F0A8F8002000F0A2
:1014C00007F800F02BF8002010BD000000200240BB
:1014D00070B504460E4800784FF47A71B1FBF0F015
:1014E0000C490968B1FBF0F5284600F00BFC08B187
:1014F000012070BD102C07D200222146501E00F0A2
:1015000047F80548046001E00120F2E70020F0E719
:101510000C000020100000200800002008B500BFCB
:101520001148806940F001000F49886108468069D0
:1015300000F00100009000BF00BF00BF0846C06976
:1015400040F08050C8610846C06900F080500090AB
:1015500000BF00BF00BF0549486820F0E06040F0D0
:101560000070486000BF08BD00100240000001404C
:1015700001460846002809DB00F01F0301229A40BB
:1015800043099B0003F1E023C3F8002100BF70472B
:101590002DE9F05F80460D461646002701F07CFDE0
:1015A000074639462A46334601F00700C0F1070ACC
:1015B000BAF1040F02D94FF0040A01E0C0F1070AA2
:1015C000D14600F1040ABAF1070F02D24FF0000A27
:1015D00001E0A0F1030AD4464FF0010A0AFA09FA21
:1015E000AAF1010A0AEA020A0AFA0CFA4FF0010B00
:1015F0000BFA0CFBABF1010B0BEA030B4AEA0B04F1
:101600002146404601F050FDBDE8F09F00BF00F0CC
:101610000702064B19684FF6FF031940044B0B43B2
:1016200043EA0221014B196000BF70470CED00E056
:101630000000FA0570B504460D460CB9012070BDD6
:101640005A48006800F00700A8420ED257480068C8
:1016500020F007002843554908600846006800F05C
:101660000700A84201D00120E9E7207800F002003D
:1016700002281DD1207800F00400042805D14C4830
:10168000406840F4E0604A494860207800F0080073
:10169000082805D14648406840F4605044494860F5
:1016A0004348406820F0F000A16808434049486082
:1016B000207800F0010078B36068012806D13C482A
:1016C000006800F4003090B90120B8E76068022893
:1016D00006D13748006800F0007040B90120AEE73D
:1016E0003348006800F0020008B90120A7E730483D
:1016F000406820F00300616808432D494860FFF707
:101700003BFB064609E0FFF737FB801B41F28831BF
:10171000884202D9032092E707E02548406800F09C
:101720000C006168B0EB810FEDD12048006800F03B
:101730000700A8420ED91D48006820F00700284382
:101740001A4908600846006800F00700A84201D066
:10175000012074E7207800F00400042807D1144821
:10176000406820F4E060E16808431149486020784F
:1017700000F00800082808D10D48406820F46050A7
:10178000216940EAC1000A49486000F03FF8084971
:101790004968C1F30311074A515CC8400649086013
:1017A00006480068FFF794FE002048E7002002404A
:1017B000001002400853000810000020080000201C
:1017C00001480068704700001000002000B5FFF7D6
:1017D000F7FF04494968C1F30221034A515CC8403C
:1017E00000BD0000001002401853000800B5FFF7CC
:1017F000E7FF04494968C1F3C221034A515CC8406C
:1018000000BD00000010024018530008F0B585B07C
:101810000FF26C0C9CE8E01001A8A0E8E0101CA5F9
:101820002D68009500210022002300240020194D7E
:10183000696801F00C05F5B1042D02D0082D19D10D
:1018400001E0154819E001ADC1F38346AC5D01F438
:10185000803555B10F4D6D68C5F340451DF8052025
:101860000D4D6543B5FBF2F302E00C4D04FB05F3AF
:10187000184602E000BF084800BF00BF05B0F0BD39
:1018800002030405060708090A0B0C0D0E0F1010C1
:10189000010200000010024000127A0000093D0021
:1018A000F8B504460CB90120F8BD207800F001001D
:1018B000002878D0F848406800F00C0004280CD0CC
:1018C000F548406800F00C00082811D1F248406843
:1018D00000F48030B0F5803F0AD1EF48006800F492
:1018E000003000285FD0606800285CD10120DBE771
:1018F00000BF6068B0F5803F06D1E748006840F45B
:101900008030E549086028E0606858B9E24800681E
:1019100020F48030E04908600846006820F4802008
:1019200008601AE06068B0F5A02F0BD1DA480068B3
:1019300040F48020D84908600846006840F48030B0
:1019400008600AE0D448006820F48030D24908607A
:101950000846006820F48020086000BF606888B1F5
:10196000FFF70AFA054606E0FFF706FA401B64286F
:1019700001D9032098E7C848006800F40030002827
:10198000F2D010E0FFF7F8F9054606E0FFF7F4F9AA
:10199000401B642801D9032086E7BF48006800F493
:1019A00000300028F2D1207800F00200022857D140
:1019B000B948406800F00C0050B1B748406800F0EA
:1019C0000C00082818D1B448406800F4803098B959
:1019D000B148006800F0020020B12069012801D060
:1019E000012061E7AC48006820F0F800616940EA36
:1019F000C100A949086033E02069E8B10120A74986
:101A00000860FFF7B9F9054606E0FFF7B5F9401B96
:101A1000022801D9032047E79F48006800F0020030
:101A20000028F2D09C48006820F0F800616940EA84
:101A3000C1009949086013E0002098490860FFF749
:101A40009BF9054606E0FFF797F9401B022801D9EC
:101A5000032029E79048006800F002000028F2D136
:101A6000207800F0080008282DD1A069B8B1012025
:101A70008B490860FFF780F9054606E0FFF77CF91F
:101A8000401B022801D903200EE78348406A00F07A
:101A900002000028F2D0012001F0D2F813E000206B
:101AA0007F490860FFF768F9054606E0FFF764F92B
:101AB000401B022801D90320F6E67748406A00F06F
:101AC00002000028F2D1207800F00400042873D12D
:101AD00000277148C06900F0805070B900BF6E489F
:101AE000C06940F080506C49C8610846C06900F088
:101AF0008050009000BF00BF01276A48006800F4D2
:101B00008070B0B96748006840F48070654908602B
:101B1000FFF732F9054606E0FFF72EF9401B64286F
:101B200001D90320C0E65F48006800F480700028F7
:101B3000F2D000BFE068012806D15748006A40F0A3
:101B400001005549086227E0E06858B95248006A28
:101B500020F00100504908620846006A20F00400A5
:101B6000086219E0E06805280BD14B48006A40F094
:101B70000400494908620846006A40F00100086212
:101B80000AE04548006A20F001004349086208461F
:101B9000006A20F00400086200BFE068A0B1FFF70F
:101BA000EBF8054609E0FFF7E7F8401B41F2883102
:101BB000884202D9032077E622E03748006A00F025
:101BC00002000028EFD012E0FFF7D6F8054608E043
:101BD000FFF7D2F8401B41F28831884201D9032037
:101BE00062E62D48006A00F002000028F0D1012FC3
:101BF00005D12948C06920F080502749C86100BF3D
:101C0000E069C8B32448406800F00C00082860D0A0
:101C1000E069022848D1002020490866FFF7ACF8A7
:101C2000054606E0FFF7A8F8401B022801D903206B
:101C30003AE61948006800F000700028F2D1206AE6
:101C4000B0F5803F07D11448406820F40030A16807
:101C5000084311494860D4E9080108430E4949681E
:101C600021F4741108430C49486001200B490866AF
:101C7000FFF782F8054607E03DE0FFF77DF8401BDF
:101C8000022801D903200FE60348006800F0007025
:101C90000028F2D02FE00000001002400000424275
:101CA0008004424200700040002014490866FFF79B
:101CB00063F8054606E0FFF75FF8401B022801D9EC
:101CC0000320F1E50E48006800F000700028F2D112
:101CD00011E0E069012800D1E6E50948466806F40C
:101CE0008031206A814204D106F47011606A814219
:101CF00001D00120D8E50020D6E5000000004242D6
:101D00000010024070B504462546681EB0F1807F81
:101D100001D301200FE0681E4FF0E02148610F2140
:101D20004FF0FF3001F0C0F900204FF0E021886152
:101D300007200861002070BD7047704730B502462B
:101D40000B4600BF92F83C00012801D1022030BDB3
:101D5000012082F83C0000BF022082F83D0010689C
:101D600044681068816824F070041868044310689F
:101D70004460104D1068A8420BD01068B0F1804F3D
:101D800007D00D4D1068A84203D00C4D1068A84232
:101D900005D121F08001586801431068816001205D
:101DA00082F83D0000BF002082F83C0000BF00BF69
:101DB000CDE70000002C0140000400400008004076
:101DC00010B504460CB9012010BD94F83D0028B9A7
:101DD000002084F83C00204600F026F8022084F819
:101DE0003D00211D206800F081FF012084F846009D
:101DF00000BF84F83E0001213F20015540200155DD
:101E00004120015500BF00BF012084F8420043205B
:101E10000155442001554520015500BF012084F89B
:101E20003D000020D0E7000038B504462068B0F13E
:101E3000804F15D100BF0B48C06940F0010009492F
:101E4000C8610846C06900F00100009000BF00BFF3
:101E5000002211461C20FFF79BFB1C20FFF788FB8C
:101E600038BD000000100240014691F83D000128F5
:101E700001D001207047022081F83D000868C06849
:101E800040F001000B68D860124B086898420BD0F4
:101E90000868B0F1804F07D00F4B0868984203D014
:101EA0000E4B086898420CD10868806800F0070261
:101EB000062A0CD00868006840F001000B68186022
:101EC00005E00868006840F001000B681860002019
:101ED000D0E70000002C0140000400400008004052
:101EE0002DE9F04104460D4600BF94F83C0001285E
:101EF00002D10220BDE8F081012084F83C0000BF3F
:101F0000022084F83D002068866826F0770626F4D3
:101F10007F46206886602868502833D00CDC202853
:101F200050D004DC00284BD0102851D149E0302893
:101F300049D040284CD139E060282DD0702807D0F6
:101F4000B0F5805F03D0B0F5005F41D10DE040E017
:101F5000D5E902136A68206800F002FF20688668ED
:101F600046F077062068866033E0D5E902136A6898
:101F7000206800F0F5FE2068806840F48040216809
:101F8000886026E0EA686968206800F0B9FF50219F
:101F9000206800F0F0FE1CE0EA686968206800F044
:101FA000C2FF6021206800F0E6FE12E0EA6869687E
:101FB000206800F0A5FF4021206800F0DCFE08E06A
:101FC00000BF00BF00BF2968206800F0D4FE00E019
:101FD00000BF00BF012084F83D0000BF002084F84E
:101FE0003C0000BF00BF85E7704710B5044620687D
:101FF0000069C0F34000D8B12068C068C0F3400059
:10200000B0B16FF0020021680861012020772068DC
:10201000806900F0030018B12046FFF7E5FF05E0F6
:10202000204600F0F1F8204600F0B8F900202077B3
:1020300020680069C0F38000D8B12068C068C0F390
:102040008000B0B16FF004002168086102202077A1
:102050002068806900F4407018B12046FFF7C4FF83
:1020600005E0204600F0D0F8204600F097F9002067
:10207000207720680069C0F3C000D8B12068C0682C
:10208000C0F3C000B0B16FF00800216808610420FF
:1020900020772068C06900F0030018B12046FFF7E0
:1020A000A3FF05E0204600F0AFF8204600F076F9E7
:1020B0000020207720680069C0F30010D8B12068A4
:1020C000C068C0F30010B0B16FF010002168086163
:1020D000082020772068C06900F4407018B12046BD
:1020E000FFF782FF05E0204600F08EF8204600F062
:1020F00055F9002020772068006900F0010058B1F0
:102100002068C06800F0010030B16FF00100216864
:102110000861204600F044F920680069C0F3C0104F
:1021200058B12068C068C0F3C01030B16FF08000B3
:10213000216808612046FFF7FFFD20680069C0F3B1
:10214000801058B12068C068C0F3801030B16FF0C3
:10215000400021680861204600F052F920680069BB
:10216000C0F3401058B12068C068C0F3401030B1CF
:102170006FF02000216808612046FFF7DEFD10BDEA
:1021800010B586B00446002002900390049005909C
:102190001949206888422CD100BF1848806940F056
:1021A0000400164988610846806900F00400019027
:1021B00000BF00BF00BF0846806940F0080088618A
:1021C0000846806900F00800019000BF00BFC020F1
:1021D000029002200390059002A90948FEF736FC00
:1021E0000320029002200390059002A90548FEF703
:1021F0002DFC06B010BD000000040040001002409D
:1022000000080140000C0140704770B504460D46BF
:10221000164600BF94F83C00012801D1022070BD91
:10222000012084F83C0000BF36B1042E1BD0082EDC
:1022300031D00C2E5ED145E02946206800F0A4FD87
:102240002068806940F00800216888612068806902
:1022500020F00400216888612068806929690843AA
:102260002168886147E02946206800F0BDFD2068AC
:10227000806940F40060216888612068806920F4EA
:1022800080602168886120688069296940EA0120AE
:10229000216888612FE02946206800F0D9FD206878
:1022A000C06940F008002168C8612068C06920F05A
:1022B00004002168C8612068C06929690843216851
:1022C000C86118E02946206800F0F6FD2068C06962
:1022D00040F400602168C8612068C06920F4806013
:1022E0002168C8612068C069296940EA0120216825
:1022F000C86100E000BF00BF00BF002084F83C00C0
:1023000000BF00BF8BE710B504460CB9012010BD1B
:1023100094F83D0028B9002084F83C00204600F0E5
:1023200025F8022084F83D00211D206800F0DEFC25
:10233000012084F8460000BF84F83E0001213F20C0
:102340000155402001554120015500BF00BF01202B
:1023500084F8420043200155442001554520015591
:1023600000BF012084F83D000020D0E708B5094AED
:10237000016891420DD100BF0749C96941F00201CE
:10238000054AD1611146C96901F00201009100BFFF
:1023900000BF08BD0004004000100240704700006C
:1023A00038B5044610492068096888421BD10F4897
:1023B0000088401C00B20D490880B1F9000000EB14
:1023C000D0714910A0EB410169B9002001231A46E0
:1023D00007490090074802F03DFC074B074A0449B3
:1023E000044801F0A6FB38BD8C000020140000203A
:1023F0001C000020160000204D3B0008D8010020E2
:10240000704710B504460CB9012010BDA06900B199
:1024100000E000BF94F83D0028B9002084F83C009B
:10242000204600F027F8242084F83D002068C0688A
:1024300020F400502168C860204600F089FD206823
:10244000006920F49040216808612068406920F00C
:102450002A00216848612068C06840F40050216863
:10246000C86000202064202084F83D0084F83E00ED
:102470000020CAE710B586B0044600200290039001
:10248000049005901A49206888422ED100BF19484F
:10249000806940F48040174988610846806900F4EB
:1024A0008040019000BF00BF00BF0846806940F037
:1024B000040088610846806900F00400019000BFB4
:1024C00000BF48150290022003900320059002A946
:1024D0000948FEF7BBFA4FF4806002900020039099
:1024E000049002A90448FEF7B1FA06B010BD00003E
:1024F00000380140001002400008014000BFFEE724
:10250000014608684069C0F38020B0B16FF4806074
:102510000A68506100200863202081F83D000020F7
:1025200081F83E00086C40F00400086400BF002001
:1025300081F83C0000BF012070470020FCE700004C
:102540002DE9F84304460F4615469946DDE908860D
:102550002068006840F48060216808602068006896
:1025600040F4807021680860434600224FF001115A
:102570002046009600F032F960B12068006800F44F
:102580008070B0F5807F02D14FF40070206403208A
:10259000BDE8F88307F0FE00216808613346424633
:1025A0003E49204600F05DF908B10120F0E700BF88
:1025B00000200090206840690090206880690090A9
:1025C00000BF00BF32464146204600F0ECF950B152
:1025D000206C042805D12068006840F40070216850
:1025E00008600120D4E7B9F1010F03D1E8B22168F6
:1025F000086117E0C5F307202168086132464146AB
:10260000204600F0D0F950B1206C042805D1206894
:10261000006840F40070216808600120B8E7E8B263
:102620002168086132464146204600F0BCF950B1AD
:10263000206C042805D12068006840F400702168EF
:1026400008600120A4E72068006840F480702168D9
:102650000860434600224FF001112046009600F02A
:10266000BDF858B12068006800F48070B0F5807F34
:1026700002D14FF400702064032089E7F8B240F0E3
:10268000010021680861334642460449204600F0B3
:10269000E8F808B101207BE7002079E7020001009B
:1026A0002DE9F8430446884615469946DDE9086752
:1026B0002068006840F4807021680860334600227A
:1026C0004FF001112046009700F088F860B12068B3
:1026D000006800F48070B0F5807F02D14FF4007084
:1026E00020640320BDE8F88308F0FE00216808613B
:1026F0003B4632462149204600F0B3F808B101209C
:10270000F0E700BF0020009020684069009020683A
:102710008069009000BF00BF3A463146204600F075
:1027200042F950B1206C042805D12068006840F4BB
:102730000070216808600120D4E7B9F1010F03D1CE
:10274000E8B22168086117E0C5F307202168086135
:102750003A463146204600F026F950B1206C042854
:1027600005D12068006840F40070216808600120ED
:10277000B8E7E8B2216808610020B3E70200010071
:1027800070B504460D46164620E02046FFF7B8FE19
:1027900008B1012070BD681CC0B1FEF7EDFA801BC6
:1027A000A84200D895B900202063202084F83D007D
:1027B000002084F83E00206C40F02000206400BF20
:1027C000002084F83C0000BF0120E3E72068406956
:1027D000C0F380000028D8D00020DBE72DE9F041CD
:1027E00004460D4617461E46DDF818801CE0701C96
:1027F000D0B1FEF7C1FAA0EB0800B04200D89EB9F4
:1028000000202063202084F83D00002084F83E0052
:10281000206C40F02000206400BF002084F83C00C1
:1028200000BF0120BDE8F081C5F3074001280AD1AF
:1028300020684069A9B20840A9B2884201D10120AC
:102840000BE0002009E020688069A9B20840A9B225
:10285000884201D1012000E00020B842C7D000200A
:10286000E0E72DE9F04104460D4616461F463DE0DF
:1028700020684069C0F38020E8B12068006840F417
:102880000070216808606FF4806021684861002052
:102890002063202084F83D00002084F83E00206C56
:1028A00040F00400206400BF002084F83C0000BF1A
:1028B0000120BDE8F081701CC0B1FEF75DFAC01BBD
:1028C000B04200D896B900202063202084F83D0053
:1028D000002084F83E00206C40F02000206400BFFF
:1028E000002084F83C0000BF0120E2E7C5F3074068
:1028F00001280AD120684069A9B20840A9B28842DB
:1029000001D101200BE0002009E020688069A9B214
:102910000840A9B2884201D1012000E0002000282F
:10292000A6D00020C5E770B504460D46164632E035
:1029300020684069C0F30010A0B16FF0100021685A
:10294000486100202063202084F83D00002084F8A6
:102950003E00206C206400BF002084F83C0000BFD3
:10296000012070BDFEF708FA801BA84200D895B977
:1029700000202063202084F83D00002084F83E00E1
:10298000206C40F02000206400BF002084F83C0050
:1029900000BF0120E5E720684069C0F380100028EF
:1029A000C6D00020DDE770B504460D46164620E08F
:1029B0002046FFF7A5FD08B1012070BD681CC0B11D
:1029C000FEF7DAF9801BA84200D895B900202063F1
:1029D000202084F83D00002084F83E00206C40F068
:1029E0002000206400BF002084F83C0000BF0120CC
:1029F000E3E720684069C0F3C0100028D8D0002069
:102A0000DBE7000000B585B0002001900290039044
:102A1000049000BF2548806940F020002349886168
:102A20000846806900F02000009000BF00BF00BF92
:102A30000846806940F0040088610846806900F01B
:102A40000400009000BF00BF00BF0846806940F04E
:102A5000080088610846806900F00800009000BF07
:102A600000BF01224FF440611148FEF77FF90022B8
:102A700008210F48FEF77AF94FF4406001900120D9
:102A8000029003900320049001A90948FDF7DEFF9E
:102A90000820019001200290002003900220049061
:102AA00001A90348FDF7D2FF05B000BD00100240A8
:102AB000000C014010B50B480B4908600B484860FA
:102AC000002109488160C1604FF48041016100210B
:102AD00041618161C1610162FEF754F908B1FDF7FE
:102AE000A0FF10BD0054004038000020A086010067
:102AF00000B587B0002003900490059006900190E7
:102B000002904FF08040144908604720486000213F
:102B10001148816041F28731C1600021016180214B
:102B20008161FFF74DF908B1FDF77BFF4FF480504D
:102B3000039003A90848FFF7D3F908B1FDF771FF27
:102B400000200190029001A90348FFF7F7F808B1AF
:102B5000FDF767FF07B000BD8C00002000B589B00D
:102B60000020079008901C216846FDF704FB2248CE
:102B70002249086000204860002120488160C1602F
:102B800001618161FFF7BFFB08B1FDF74AFF00203B
:102B90000790089007A91948FFF7D0F808B1FDF78A
:102BA00040FF6020009000200190029004900022DD
:102BB00069461248FFF729FB08B1FDF732FF0422EE
:102BC00069460E48FFF721FB08B1FDF72AFF0822EE
:102BD00069460A48FFF719FB08B1FDF722FF0C22EE
:102BE00069460648FFF711FB08B1FDF71AFF0348D5
:102BF000FFF7C6FA09B000BD00040040D400002071
:102C000010B50B480B4908604FF4E13048600021D3
:102C100008488160C16001610C214161002181612E
:102C2000C161FFF7EEFB08B1FDF7FBFE10BD000030
:102C3000003801401C01002000BFFEE770477047CC
:102C400008B508490968C9084FF47A72B1FBF2F176
:102C50004143009100BF00BF00994A1E0092002925
:102C6000F9D108BD10000020704710B5FEF710FC28
:102C700010BD00B58FB0282105A8FDF77CFA1421FE
:102C80006846FDF778FA01200590000406900020C0
:102C900007900120099002200C90C1030D914FF480
:102CA000E0110E9105A8FEF7FBFD08B1FDF7B9FE96
:102CB0000F20009002200190002002904FF48060CD
:102CC00003900020049002216846FEF7B3FC08B18F
:102CD000FDF7A7FE0FB000BD7047000010B5024819
:102CE000FFF783F910BD00008C00002010B50268CA
:102CF000184B984208D0B0F1804F05D0164B98423F
:102D000002D0164B984203D122F070024B681A434E
:102D1000104B984208D0B0F1804F05D00E4B98422E
:102D200002D00E4B984203D122F44072CB681A4372
:102D300022F080034C6943EA040202608B68C3629C
:102D40000B688362034B984201D10B690363012333
:102D5000436110BD002C0140000400400008004009
:102D600030B50C46816821F47F4142EA03252543B2
:102D70002943816030BD0A46816821F0700142F02C
:102D8000070319438160704730B5056A25F00105D6
:102D90000562026A4368846924F0700424F0030425
:102DA0000D682C4322F002028D682A430D4DA84283
:102DB00006D100BF22F00802CD682A4322F00402A7
:102DC000084DA84207D123F4807323F400734D69A2
:102DD0002B438D692B43436084614D6845630262D8
:102DE00030BD0000002C014030B5056A25F010050B
:102DF0000562026A4368846924F4E04424F4407460
:102E00000D6844EA052422F020028D6842EA05128A
:102E10000E4DA84207D100BF22F08002CD6842EAE1
:102E2000051222F04002094DA84209D123F4806323
:102E300023F400634D6943EA85038D6943EA850302
:102E4000436084614D688563026230BD002C01409F
:102E500030B5056A25F480750562026A4368C46965
:102E600024F0700424F003040D682C4322F4007253
:102E70008D6842EA05220F4DA84207D100BF22F417
:102E80000062CD6842EA052222F48062094DA84220
:102E900009D123F4805323F400534D6943EA051309
:102EA0008D6943EA05134360C4614D68C5630262DE
:102EB00030BD0000002C014030B5056A25F4805576
:102EC0000562036A4468C26922F4E04222F4407257
:102ED0000D6842EA052223F400538D6843EA053366
:102EE000064DA84204D124F480444D6944EA851477
:102EF0004460C2614D680564036230BD002C01402E
:102F000030B50B461446026A056A25F001050562D4
:102F1000816921F0F00141EA041122F00A021A430A
:102F20008161026230BD30B50B461446056A25F05A
:102F3000100505628169026A21F4704141EA043199
:102F400022F0A00242EA03128161026230BD000059
:102F500070B504462168096921F44051E2681143C3
:102F6000226811612269A1681143626941EA020580
:102F70002168C96841F20C62914329432268D160FB
:102F80002168496921F44071A269114322685161A5
:102F90002D4A2168914202D1FEF728FC01E0FEF79C
:102FA00015FC00EBC00101EB001162689200B1FB5F
:102FB000F2F100EBC00202EB001263689B00B2FB6F
:102FC000F3F26423B2FBF3F202EBC20303EB02124F
:102FD000A1EB8201322202EB01116422B1FBF2F17A
:102FE00001F0F00100EBC00202EB001263689B00ED
:102FF000B2FBF3F26423B2FBF3F201EB021200EB3B
:10300000C00101EB001163689B00B1FBF3F100EB21
:10301000C00303EB00136668B600B3FBF6F3642647
:10302000B3FBF6F303EBC30606EB0313A1EB83013B
:10303000322303EB01116423B1FBF3F101F00F0123
:1030400011442268916070BD0038014000BFFEE766
:103050000FB4054B10B503A9044A029800F0D2F949
:1030600010BC5DF814FB000065490008000000205A
:103070004100080218BF04200A0E18BF40F00100EA
:103080004FF07F4232EA010108BF40F00200012800
:1030900008BF05207047000002480068C0F3022006
:1030A000704700000CED00E010B5002804DB0A07B3
:1030B000130E054A135406E00A07140E034A00F0E3
:1030C0000F031B1FD45410BD00E400E018ED00E016
:1030D0000121FDF7A6BBFDF759B800210846FDF711
:1030E000DFB86FF05E010807FDF79BBB2DE9F04DDF
:1030F0000D4614464FF07F41B1EB440F9EBF4FF099
:10310000FF312960BDE8F08D4FF0004040EA042116
:10311000C4F3C750783810F01F024A4B4FEA601CC6
:10312000C2F120067B44C4F3C750A0F178004FEAF7
:10313000601003EB800053F82C3008BFD0E901C6C3
:1031400012D0D0F804C093402CFA06F73B438768AE
:103150000CFA02FC27FA06F8C06807FA02F2F040FF
:103160004CEA080C42EA0006A3FB0132ACFB01C0AA
:10317000A6FB016101EB0C068E4234BF4FF0010C3F
:103180004FF0000CC1186144BCF1000F02D0814225
:1031900002D903E0814201D2012000E00020104466
:1031A00000F120024FEA92188006CA0C40EA423031
:1031B0004F03C5F80080FDF739FA82463846FDF71F
:1031C00028FC6FF01201FDF72CFB07463046FDF797
:1031D00020FC6FF02501FDF724FB8346394650465D
:1031E000FCF7D4FF5946FCF7D1FF00F500666FF3FA
:1031F0000B0651463046FDF71BF83946FDF718F827
:103200005946FDF718F81049FDF718F807460F4919
:103210003046FDF713F83946FCF7B8FF07460C496E
:103220003046FDF70BF83946FCF7B0FF14F0004FBD
:1032300008BFBDE8F08DC8F1805180F000402960E2
:10324000BDE8F08D20240000DB0FC92F22AAFD2944
:103250000000C92F02E008C8121F08C1002AFAD1D5
:1032600070477047002001E001C1121F002AFBD106
:1032700070470000014908607047000034000020DA
:103280002DE9FF5F82B00021DDE90430020DDDF899
:1032900040B0034318D044F61050A2F2FF3242432C
:1032A0001514119801281FD0A5EB0B00401C5FEAF4
:1032B000000A4FF000064E4FDFF83891B0465046F6
:1032C00015D5CAF1000413E0119801244AA301287E
:1032D00001D16FEA0B010298119AC0E90031C0E9EF
:1032E000024206B0BDE8F09FCBF10000DFE70446E4
:1032F0000021404A491842EB0450CDE9001012E089
:10330000E00707D032463B4640464946FDF7ADF858
:103310008046894632463B4610461946FDF7A5F8D9
:1033200006460F466410002CEAD1DDE90401DDE910
:103330000023BAF1000F06DAFDF797F842464B4634
:10334000FDF793F805E0FDF702F942464B46FDF71D
:10335000FEF804460E460022284BFDF701FB03D879
:103360004FF0FF30014607E00022254B2046314652
:10337000FCF7D4FFFDF7DCFA102409E0002C0ADB8F
:103380000A220023FDF7C4F9039B30321A55641E4C
:1033900050EA0102F2D1641C039AC4F111031444EF
:1033A000119A012A03D0012208430DD10AE00843F3
:1033B00004D000204FF0110B119072E7A3EB0B0526
:1033C0006D1E0DE05B4504DD4FF0000205F10105C7
:1033D00004E003DA4FF00002A5F10105002AECD069
:1033E00002981199C0E90231C0E9004579E700006F
:1033F000000014400000F03F300000000000F043E7
:103400000000E03F2DE9FF4F95B09B4689460646F8
:1034100000250FE2252877D100242746F84A01210C
:10342000059400E0044316F8013F203B01FA03F045
:103430001042F7D130782A2811D06FF02F0330785E
:10344000A0F13002092A16D8059A44F0020402EBD2
:10345000820203EB42021044761C0590EFE759F814
:10346000042B0592002A03DA504244F400540590DC
:1034700044F00204761C30782E2816D116F8010F7D
:1034800044F004042A280DD06FF02F023078A0F108
:103490003003092B09D807EB870302EB4303C71856
:1034A000761CF3E759F8047B761C30786C280FD033
:1034B00006DC4C2817D068280DD06A2814D104E007
:1034C000742810D07A280FD10DE044F400140AE0DB
:1034D00044F4801401E044F440147278824202D132
:1034E00004F58014761C761C307866280BD013DC2B
:1034F000582877D009DC002875D04528F6D0462812
:10350000F4D047281AD19DE118E0632835D064280B
:1035100079D0652812D195E1702873D008DC67282E
:10352000F1D069286FD06E280DD06F2806D1B5E094
:1035300073282CD0752875D0782874D05A461799DE
:1035400090476D1C75E1C4F30250022809D003288E
:103550000DD0D9F8001004280DD00D6009F1040930
:1035600067E1D9F80010EA17C1E90052F6E7D9F887
:1035700000100D80F2E70D70F0E719F8041B8DF8CC
:10358000001000208DF80100EA46012003E059F800
:1035900004AB4FF0FF3061074FF0000102D40DE0A3
:1035A00008F101018846B9420FDA8045F8DB1AF8C4
:1035B00008100029F4D108E008F101018846814291
:1035C000FADB1AF808100029F6D105985B46A0EB43
:1035D000080721463846179A00F094FA284400EB71
:1035E000080507E04DE029E10DE01AF8010B5A4605
:1035F00017999047B8F10108F7D25B462146384643
:10360000179A13E142E00A220092C4F302524FF0EB
:10361000000A022A08D059F804CB032A4FEAEC71B9
:103620000AD00DE029E02AE009F1070121F00702A4
:10363000F2E802C1914609E00FFA8CFC4FEAEC7106
:10364000042A03D14FFA8CFC4FEAEC71002907DA07
:103650000A460021DCF1000C61EB02012D2202E0A0
:10366000220504D52B228DF80420012203E0E20775
:1036700001D02022F7E7904659E00A2102E010220B
:103680000DE010214FF0000A00910BE010224FF0E6
:10369000000A44F004040827009203E008224FF0D7
:1036A000000A0092C4F30252022A05D059F804CB52
:1036B0000021032A08D009E009F1070121F00702DF
:1036C000F2E802C1914605E01FFA8CFC042A01D100
:1036D0000CF0FF0C4FF00008220728D5702806D008
:1036E000009B83F0100353EA0A0305D00EE040224A
:1036F0008DF80420012208E05CEA010206D03022A5
:103700008DF804208DF8050002229046009B83F07E
:10371000080353EA0A030AD15CEA010201D16207F5
:1037200005D530228DF804204FF001087F1E58285F
:1037300004D034A003900EA802900DE036A0F9E763
:1037400053466046009AFCF7E3FF84460398825C88
:103750000298401E029002705CEA0100F0D10298CB
:1037600006A9081A00F1200A600702D524F4803463
:1037700000E00127574502DDA7EB0A0000E000202A
:1037800000EB0A01009005984144401A0590E003BF
:1037900006D45B462146179A059800F0B3F9054414
:1037A000002706E001A85A46C05D179990476D1C96
:1037B0007F1C4745F6DBE0030CD55B462146179A94
:1037C000059800F09FF9054404E030205A46179907
:1037D00090476D1C0099481E00900029F5DC08E018
:1037E000029802995A460078491C0291179990470D
:1037F0006D1CBAF10001AAF1010AF1DC65E10000DB
:1038000009280100303132333435363738396162B6
:10381000636465660000000030313233343536377A
:1038200038394142434445460000000000F058F951
:103830000544761C307800287FF4ECAD19B028469A
:10384000BDE8F08F620700D4062709F1070222F0D5
:10385000070CFCE80223E14603F000485FEA080C8D
:1038600002D00FF2702C0DE05FEA045C02D50FF27B
:10387000682C07E05FEAC47C02D00FF2602C01E004
:10388000AFF2700C4FF0FF3823F00043CDF850C07A
:1038900065280CD006DC452809D046281DD04728CD
:1038A0003DD13DE0662818D067287ED138E0002160
:1038B000112F01DB112000E0781CCDE9000106A9E1
:1038C0000EA8FFF7DDFCDDE90F010E9A0391002140
:1038D000009207F1010A04914DE04FF0004000977B
:1038E000CDE9011006A90EA8FFF7CAFCDDE90F0219
:1038F00003920E9B11990022DDF80CA00093049214
:1039000011B9791C00EB010AB7EB0A0004D4C0F12D
:10391000FF3007F1010A0490AAEB0700019044E090
:10392000012F00DA01270021112F01DD112000E015
:103930003846CDE9000106A90EA8FFF7A1FCDDE994
:103940000F010E9A0391002104910092BA462107BB
:103950000CD40399514500DA8A46BAF1010F05DD0E
:10396000009AAAF10101515C302908D0B84202DA6C
:1039700010F1040F06DA0121CDE9011015E0AAF1DA
:103980000101E9E7002805DC049901440491AAEB50
:10399000000102E0411C514500DD8A460499401AAD
:1039A000401C01904FF000400290200704D4019881
:1039B000504501DBCDF8048000208DF84F000298BF
:1039C0000DF14F07B0F1004F25D02B200E9002983B
:1039D0004FF0020800280CDA404202902D200E9091
:1039E00007E00A210298FCF77DFE3031029007F8CB
:1039F000011DB8F10001A8F10108F2DC02980028CD
:103A0000EFD1791E0E980870307800F0200040F059
:103A1000450007F8020D12A8C01B00F10708149812
:103A2000007800B1012000EB0A01019801EBE07180
:103A300005984144401A401E0590E00306D45B46B9
:103A40002146179A059800F05DF80544149800780F
:103A500018B15A46179990476D1CE00324D55B4670
:103A60002146179A059800F04DF805441CE004988B
:103A7000002807DBDDE90301884203DD0098405C94
:103A8000179901E0179930205A469047049805F19C
:103A90000105401C04900198401E019004D12E2085
:103AA0005A46179990476D1CBAF10001AAF1010A14
:103AB000DDDC05E017F8010B5A46179990476D1C9D
:103AC000B8F10001A8F10108F4DC5B462146179A21
:103AD0000598ABE62D0000002B0000002000000040
:103AE0002DE9F041044600251E461746880404D4FB
:103AF00005E039462020B0476D1C641EF9D52846E4
:103B0000BDE8F0812DE9F041044600251E469046AF
:103B1000C80301D5302700E02027880404D505E03C
:103B200041463846B0476D1C641EF9D52846BDE8AD
:103B3000F0812DE9F04105460E4617461C463A46EF
:103B400031462846A047BDE8F081000007B59CB08B
:103B5000FE481B901D98B0F900001290FCF766FD1E
:103B6000FB491390FCF76AFB18901D98B0F902000E
:103B70001290FCF75BFDF6491390FCF75FFB199080
:103B80001D98B0F904001290FCF750FDF049139015
:103B9000FCF754FB1A901C98B0F900001290FCF747
:103BA00045FDEC491390FCF749FB15901C98B0F9C2
:103BB00002001290FCF73AFDE6491390FCF73EFB39
:103BC00016901C98B0F904001290FCF72FFDE14903
:103BD0001390FCF733FB1790002014901A9806906E
:103BE000DD48C06805900699FCF728FB08901998F5
:103BF0000490D948806803900499FCF71FFB069055
:103C000018980290D448406801900299FCF716FB7E
:103C10000490D148006802901499FCF70FFB0390C0
:103C20000499FCF705FB05900699FCF701FB07904A
:103C30000899FCF7FDFA0990FCF71AFDCDE90C0193
:103C40001B98FCF715FD0022C44BCDE90801FCF7D9
:103C50000CFCCDE90A01DDE90C23FCF706FCCDE9FB
:103C60001001BD4800680D90FCF702FDCDE90E0182
:103C7000DDE91023FCF752FBCDE91201FCF70BFD47
:103C8000B5490860199806900846C06805900699DD
:103C9000FCF7D4FA08901A980490AF488068039013
:103CA0000499FCF7CBFA0690AB484068029014994F
:103CB000FCF7C4FA049018980290A7480068019095
:103CC0000299FCF7BBFA03900499FCF75FFA0590A0
:103CD0000699FCF75BFA07900899FCF7A9FA099096
:103CE000FCF7C6FCCDE90C011B98FCF7C1FC0022D7
:103CF0009A4BCDE90801FCF7B8FBCDE90A01DDE9F3
:103D00000C23FCF7B2FBCDE91001934840680D90FD
:103D1000FCF7AEFCCDE90E01DDE91023FCF7FEFA5D
:103D2000CDE91201FCF7B7FC8B4948601898069062
:103D30000846C06805900699FCF780FA0890864806
:103D4000806804901499FCF779FA06901A9802900A
:103D50008148406801900299FCF770FA0490199824
:103D600002907D48006801900299FCF767FA039081
:103D70000499FCF75DFA05900699FCF759FA07904B
:103D80000899FCF703FA0990FCF772FCCDE90C01E5
:103D90001B98FCF76DFC0022704BCDE90801FCF785
:103DA00064FBCDE90A01DDE90C23FCF75EFBCDE9FC
:103DB0001001694880680D90FCF75AFCCDE90E01AE
:103DC000DDE91023FCF7AAFACDE91201FCF763FC48
:103DD000614988600846C06806901499FCF72EFA7D
:103DE0000890189804905C48806803900499FCF748
:103DF00025FA069019980290574840680190029958
:103E0000FCF71CFA04901A9802905348006801903D
:103E10000299FCF713FA03900499FCF7B7F905909F
:103E20000699FCF705FA07900899FCF701FA099042
:103E3000FCF71EFCCDE90C011B98FCF719FC0022D5
:103E4000464BCDE90801FCF710FBCDE90A01DDE99D
:103E50000C23FCF70AFBCDE910013F48C0680D9028
:103E6000FCF706FCCDE90E01DDE91023FCF756FA5C
:103E7000CDE91201FCF70FFC3749C8600846C0685D
:103E800010900846C0680F901099FCF7D7F912906F
:103E9000314880680E90304880680D900E99FCF78C
:103EA000CDF910902C4840680C902B4840680B903E
:103EB0000C99FCF7C3F90E90274800680C9026482F
:103EC00000680B900C99FCF7B9F90D900E99FCF76E
:103ED0005DF90F901099FCF759F911901299FCF7C0
:103EE00055F913901C48006812901399FCF7D8F903
:103EF000194908600846C06810900846C0680F90CD
:103F00001099FCF79BF91290134880680E901248A4
:103F100080680D900E99FCF791F910900E4840685A
:103F20000C900D4840680B900C99FCF787F90E90A7
:103F3000094800680C90084800680B900C99FCF741
:103F40007DF90D900E99FCF721F909E00AD7233C81
:103F5000CCB38B390AE81C3B240000200000E03F72
:103F60000F901099FCF712F911901299FCF70EF9C5
:103F70001390A648406812901399FCF791F9A34951
:103F800048600846C06810900846C0680F901099B5
:103F9000FCF754F912909D4880680E909B48806809
:103FA0000D900E99FCF74AF91090984840680C90D3
:103FB000964840680B900C99FCF740F90E90934896
:103FC00000680C90914800680B900C99FCF736F94A
:103FD0000D900E99FCF7DAF80F901099FCF7D6F8CF
:103FE00011901299FCF7D2F81390884880681290CB
:103FF0001399FCF755F9854988600846C068109008
:104000000846C0680F901099FCF718F912907F4885
:1040100080680E907D4880680D900E99FCF70EF92F
:1040200010907A4840680C90784840680B900C9942
:10403000FCF704F90E90754800680C90734800680E
:104040000B900C99FCF7FAF80D900E99FCF79EF87E
:104050000F901099FCF79AF811901299FCF796F8C6
:1040600013906A48C06812901399FCF719F96749D0
:10407000C860084680680D90084680680C900D99CD
:10408000FCF7DCF80F90614840680D905F4840688D
:104090000C900D99FCF7D2F80E900F99FCF776F87A
:1040A0004FF080411090FCF7C9F84FF07E5111900D
:1040B000FCF7C1F813905548C0680E9053488068CB
:1040C0000D900E99FCF7BAF81090504840680E9089
:1040D0004E4800680D900E99FCF7B0F80F901099BB
:1040E000FCF754F84FF080411190FCF7A7F81290BC
:1040F000139900F029F91E998860444840680F9090
:104100004248C0680E900F99FCF798F811903F480C
:1041100080680F903D4800680E900F99FCF78EF86C
:1041200010901199FCF784F84FF080411290FCF741
:1041300085F8139000F076F81E9908603348C0683F
:104140000D903248C0680C900D99FCF777F80F90ED
:104150002E4880680D902D4880680C900D99FCF7D2
:104160006DF80E900F99FCF711F84FF08041109008
:10417000FCF764F84FF07E511190FCF75CF8139057
:10418000224880680E90214840680D900E99FCF7F7
:1041900055F810901D48C0680E901C4800680D909E
:1041A0000E99FCF74BF80F901099FBF7EFFF4FF0CB
:1041B00080411190FCF742F81290139900F0C4F876
:1041C0001E9948601E9840680D90FCF751FACDE9A1
:1041D00012011E9880680D90FCF74AFACDE9100193
:1041E0001E9800680D90FCF743FACDE90E01DDE959
:1041F0001201CDE90201DDE91001CDE9000104A0C1
:10420000DDE90E23FEF724FF1FB000BD24000020CF
:104210007B706F73653A25662C25662C25667D0AB2
:104220000D0000002DE9F04104464FF00E4000EB78
:104230004400B0F1506F204655D84FF0FC41B1EB2F
:10424000440F1CD224F000404FF07E51FBF7F3FFE7
:104250004FF0FF31FCF7E5FA054600F084FF14F05B
:10426000004F1DBF2F4F304E80F000402F4F08BF32
:104270002F4E4FF04041FBF7E1FF044605E00027D9
:104280003E460146FBF7DAFF05462A492846FBF77A
:10429000D5FF2949FBF77AFF2946FBF7CFFF2749CE
:1042A000FBF774FF2946FBF7C9FF2549FBF76EFFB3
:1042B0002946FBF7C3FF2349FBF768FF80462946E1
:1042C0002046FBF7BBFF4146FBF7B8FF05463146EA
:1042D0002046FBF75BFF2946FBF758FF3946BDE850
:1042E000F041FBF753BF4FF0E441B1EB440F08D965
:1042F000FEF7BEFE042808BFFEF7F3FE2046BDE829
:10430000F0814FF07F41B1EB440F03D2BDE8F041A3
:10431000FEF7DEBE0120FEF7ADFFBDE8F041FEF77F
:10432000DCBE00000000C9BF22AAFDB90000C93FE1
:1043300022AAFD3924FE1C3DC78AD83C1E67383DA1
:104340001B93993DAFAA2A3E2DE9F0474FF06842F2
:1043500002EB40030C460546B3F1654F3CBF02EB50
:104360004102B2F1654F7CD2C0F3C753C1F3C752CB
:104370009A1A1B2A06DD10F0004F14BF76487748C2
:10438000BDE8F08712F11A0F17DA11F0004F06D0CE
:1043900010F0004F0CBF72487248BDE8F08721460C
:1043A0002846FBF77DFF0446FEF762FE042808BF9F
:1043B000FEF797FE2046BDE8F0874200B2EB410FC2
:1043C00025D910F0004F19BF674F684E684F694EEE
:1043D000224685F0004415460A4680F0004110460A
:1043E0000A1A5200B2F1807F40D248406249DFF899
:1043F0008CA110F0004F18D04FF03F483846FBF723
:1044000017FF074651463046FBF712FF17E011F041
:10441000004F04BF00263746E2D010F0004F19BF0E
:10442000574F584E584F594EDAE74FF07C583846A0
:10443000FBF7ACFE074651463046FBF7A7FE0646A3
:1044400041462846FBF7FAFE2146FBF79FFE8246CF
:1044500021464046FBF7F2FE2946FBF7ECFE5146AB
:1044600000E037E0FBF71CFF044604E02146284645
:10447000FBF716FF04460146FBF7E0FE8046444981
:10448000FBF7DCFE4349FBF781FE4146FBF7D6FE16
:104490004149FBF77BFE4146FBF7D0FE3F49FBF766
:1044A00075FE4146FBF7CAFE3D49FBF76FFE054628
:1044B00041462046FBF7C2FE2946FBF7BFFE3146C8
:1044C000FBF764FE2146FBF761FE3946BDE8F04785
:1044D000FBF75CBE4FF07F42B2EB400F28BFB2EB60
:1044E000410F03D2BDE8F047FEF7F5BD40EA0103F6
:1044F0005B0008BF44F0FF410AD0B2EB400F08BF99
:10450000B2EB410F06D125F0804024F080410546F2
:104510000C4629E7B2EB400F12BF5FEA410245F0BB
:10452000FF4004F000413FF41FAF4A0092EA40030D
:104530003FF51AAF002AACBF4FF09F464FF03E56F2
:104540003146FBF77BFE054631462046FBF776FEFB
:1045500004462846214607E7DB0FC9BFDB0FC93FEA
:10456000DB0F4940DB0F49C00000C9BF22AAFDB9DB
:104570000000C93F22AAFD390060ED3EC30ACE37D4
:10458000000049C022AA7DBA0000494022AA7D3A13
:104590002DAD65BD8FB8D53D0FB511BE61C84C3E80
:1045A000A8AAAABE2DE9FE4F06460C461546A660EF
:1045B000E168A868FBF742FE029021696868FBF792
:1045C0003DFE824621686869FBF738FE019061680C
:1045D0002869FBF733FE0090A168E868FBF72EFE20
:1045E00083460099FBF7D2FD81460199FBF7CEFD8A
:1045F00080465146FBF71CFE07460299FBF718FE62
:10460000606160682060A06860602069E060616946
:1046100021616069BDE8FE8F2DE9F74F84B08946BE
:10462000144649460498FBF73BFE03900398FCF7B9
:104630001FF807463A460B463A483B49FBF787FFC7
:104640000546FCF728F8834600F0A4FD8246514653
:104650005046FBF7F3FD8046344800F069F8834686
:104660004FF08041FBF7EAFD07465146FBF7E6FDB8
:1046700006464FF07E51FBF789FD05464146FBF7A4
:1046800085FD029000214846FCF722F802D807B0C9
:10469000BDE8F08F51465046FBF7D0FD0546029924
:1046A000FBF7FEFDE0604FF08040E168FBF7C6FDE0
:1046B0002061E16861614FF07E50206051465046B4
:1046C000FBF7BCFD07464FF07E51FBF7B1FD0646F8
:1046D0004FF08041FBF7B2FD05460299FBF7E0FD84
:1046E000606051465046FBF7A9FD83460F4800F035
:1046F0001FF84FF080410190FBF7A0FD8046514626
:10470000FBF79CFD07464FF07E51FBF794FD0646F4
:104710005946FBF73BFD05460299FBF7C1FDA0603A
:1047200000BFB4E77A008BFCFA210940D80F493F5B
:104730002DE9F843044602464F486946B0EB420F64
:1047400009D94FF0E640B0EB420F94BF00204FF084
:10475000FF30009030E0494B22F00040834271D995
:1047600047492046FBF76AFDFCF767F88046FBF7F0
:1047700066FF00F00300009042494046FBF75EFDF3
:10478000054641494046FBF759FD06463F4940462C
:10479000FBF754FD07463E494046FBF74FFD2146D7
:1047A000FBF749FD3946FBF743FD3146FBF740FD7A
:1047B0002946FBF73DFD04462546009C002C45DBC1
:1047C000294614F0010F08461CD0FBF737FD0646BA
:1047D0003049FBF733FD3049FBF72DFD3146FBF740
:1047E0002DFD2E49FBF7D2FC3146FBF727FD29466C
:1047F000FBF724FD2946FBF7C9FC14F0020F1CD07F
:10480000BDE8F883FBF71AFD05462549FBF716FDC1
:104810002449FBF7BBFC2946FBF710FD2249FBF7B7
:10482000B5FC2946FBF70AFD4FF07E51FBF7AEFCC5
:1048300014F0020F08BFBDE8F88380F00040BDE827
:10484000F883FFE71046FEF751FCB4E76800B0F1CB
:104850007F4F3CBF4FF07E50BDE8F88307D14FF04B
:104860000100FEF707FDBDE8F843FEF736BC284619
:10487000BDE8F843FEF72CBCB61F927E490E4946B0
:1048800083F9223F1A61342C0020A23300A0FD39A5
:104890000000C93F336D4C39DA82083CA0AA2ABE19
:1048A000B93AB2BACA9F2A3DDDFFFFBE10B5044631
:1048B0002046FCF7B7F810BD00B585B01DA0FEF787
:1048C000C7FB00F051FBFF2000F038FB4FF4FA70FB
:1048D000FCF7A8F8002000F031FB58220021084620
:1048E00000F0C0FB4D220021062000F0BBFB41225E
:1048F00000210C2000F0B6FB46220021122000F01F
:10490000B1FB14220FA16846FBF71CFC10236A467A
:104910000121002000F090FB4FF4FA70FCF782F8C0
:1049200000BF00F08BFA0128FBD10BA0FEF790FB33
:1049300005B000BD53797374656D20496E697421AB
:104940000D0A00007A656E6779757869616F736822
:1049500061677561000000006D707520496E6974B3
:10496000210D0A0000BF054A126802F04002002A29
:10497000F9D0C2B2014B1B1D1A60704700380140CC
:1049800010B500224FF480610148FCF7EFF910BD2B
:10499000000C014010B5012291020248FCF7E6F933
:1049A00010BD0000000C014010B500224FF4006162
:1049B0000148FCF7DBF910BD000C014010B50122E5
:1049C000D1020248FCF7D2F910BD0000000C0140F2
:1049D000FEB504460D4616461F4642F20F706100B2
:1049E00001232A46CDE9006702900448FCF7B2FA99
:1049F00010B14FF0FF30FEBD0020FCE73800002072
:104A0000FEB504460D46164642F20F700121CDE96F
:104A100000610290610001232A460448FCF79AFADB
:104A200010B14FF0FF30FEBD0020FCE73800002041
:104A300037B584B004460D4642F20F70012106AA34
:104A4000CDE900210290610001232A460448FCF7C9
:104A500033FC18B14FF0FF3007B030BD0020FBE74A
:104A600038000020FCF720FDFEF703F9FDF7CAFF30
:104A7000FEF720F8FEF7C4F8FEF73AF8FEF76EF8F6
:104A80000348FDF7F1F9FFF717FF00BFFEE700004D
:104A90008C00002070B50446B4F90000FBF7C6FD99
:104AA0000646144AA2F14801FFF77CFD0546FBF7D4
:104AB000C6FD00B22080B4F90200FBF7B7FD064640
:104AC0000C4AA2F13001FFF76DFD0546FBF7B7FD7B
:104AD00000B26080B4F90400FBF7A8FD0646054A61
:104AE000A2F11801FFF75EFD0546FBF7A8FD00B235
:104AF000A08070BDC00100200188094A1288891A6F
:104B000009B201804188064A9288891A09B2418017
:104B10008188034A1289891A09B28180704700008E
:104B20006001002010B586B000200390049005902D
:104B30001EA0FEF78DFA00241CE001A800F098F9F1
:104B4000BDF90410039808440390BDF906100498B9
:104B500008440490BDF90800A0F580500599084468
:104B6000059018A003A90EC9FEF772FA0520FFF7F9
:104B70009DFE641C642CE0DB039890FBF4F0184964
:104B80000860049890FBF4F04860059890FBF4F0FE
:104B90008860084683684268016812A0FEF758FAE8
:104BA00018A0FEF755FA06B010BD0000416363205F
:104BB00043616C6962726174696F6E2053746172D3
:104BC000740A0D00616363655F73616D706C655F8E
:104BD00073756D3A25642C25642C25640A0D00003C
:104BE000600100204163635F526177446174615FDB
:104BF0004F66667365743A25642C25642C25640A17
:104C00000D0000004163632043616C69627261744E
:104C1000696F6E2053746F700A0D000010B500228A
:104C20006B216820FFF704FF002219216820FFF79D
:104C3000FFFE00221A216820FFF7FAFE08221B213E
:104C40006820FFF7F5FE10221C216820FFF7F0FE18
:104C500010BD00002DE9F04104460D4616461F46E2
:104C6000DDF81880204600F003F9284600F02CF902
:104C7000012E05D12046FFF73FFF284600F04EF8F1
:104C8000B8F1010F08D1B4F90430B4F90220B4F935
:104C9000001010A0FEF7DCF9B5F90430B5F90220D8
:104CA000B5F9001011A0FEF7D3F9012F02D120466B
:104CB000FFF7F0FEB8F1010F08D1B4F90430B4F9F0
:104CC0000220B4F900100FA0FEF7C2F90120BDE8E0
:104CD000F08100007B4143435F7261773A25642C89
:104CE00025642C25647D0A0D000000007B47595285
:104CF0005F7261773A25642C25642C25647D0A0D4A
:104D0000000000007B4143435F66696C7465723A42
:104D100025642C25642C25647D0A0D000188094A30
:104D20009289891A09B2018042880649098A511A72
:104D300009B2418082880349898A511A09B2818067
:104D4000704700006001002010B586B0002003907D
:104D5000049005901DA0FEF77BF900241AE001A83D
:104D600000F0B2F8BDF90410039808440390BDF9AF
:104D70000610049808440490BDF9081005980844EA
:104D8000059019A003A90EC9FEF762F90520FFF7E7
:104D90008DFD641C642CE2DB039890FBF4F0184951
:104DA000C860049890FBF4F115480161059890FBE8
:104DB000F4F11348416143690269C16811A0FEF72B
:104DC00047F918A0FEF744F906B010BD4779726F95
:104DD0002043616C6962726174696F6E2053746103
:104DE00072740A0D000000005F73616D706C655F86
:104DF00073756D3A25642C25642C25640A0D00001A
:104E0000600100204779726F5F526177446174617D
:104E10005F4F66667365743A25642C25642C25649F
:104E20000A0D00004779726F2043616C69627261FC
:104E300074696F6E2053746F700A0D0010B500BF57
:104E400000F06EF80128FBD1FFF7E8FEFFF76AFEDD
:104E5000FFF77AFF034A04490448FFF7DDFB01200E
:104E600010BD0000C0010020000020410000C84229
:104E70007CB50446052608E006236A463B216820E7
:104E8000FFF7A6FD054605B904E0301EA6F10101B5
:104E9000CEB2F1D100BF9DF801009DF8001040EAAC
:104EA000012000B220809DF803009DF8021040EA26
:104EB000012000B260809DF805009DF8041040EAD2
:104EC000012000B2A0807CBD7CB50446052608E028
:104ED00006236A4643216820FFF77AFD054605B997
:104EE00004E0301EA6F10101CEB2F1D100BF9DF861
:104EF00001009DF8001040EA012000B220809DF8DA
:104F000003009DF8021040EA012000B260809DF885
:104F100005009DF8041040EA012000B2A0807CBD8D
:104F200008B56A4675216820FFF76AFD9DF8000004
:104F3000682801D1012008BD0020FCE770B50646B5
:104F400000240EE02146002000F061F8002504E076
:104F5000304600F0BFF8681CC5B2802DF8DB601C3D
:104F6000C4B2082CEEDB70BD10B5AE2000F09CF88A
:104F7000022000F099F8102000F096F8402000F090
:104F800093F8B02000F090F8812000F08DF8FF2019
:104F900000F08AF8A12000F087F8A62000F084F83D
:104FA000A82000F081F83F2000F07EF8C82000F033
:104FB0007BF8D32000F078F8002000F075F8D520B9
:104FC00000F072F8802000F06FF8D82000F06CF844
:104FD000052000F069F8D92000F066F8F12000F013
:104FE00063F8DA2000F060F8122000F05DF8DB20B2
:104FF00000F05AF8302000F057F88D2000F054F8F7
:10500000142000F051F8AF2000F04EF810BD70B53C
:1050100004460D4605F1B001C8B200F045F8A11CE8
:10502000C1F3031141F0100000F03EF8A11C01F0A3
:105030000F0000F039F870BD2DE9F04105468846B3
:1050400016461F46002409E0325D04EB440105EBDF
:105050004101C8B2414600F005F8641CBC42F3DBD4
:10506000BDE8F0812DE9F04106460F461446A4F153
:105070002000C4B2792E00DD002639463046FFF705
:10508000C6FF002509E004EB4401064A02EB41019A
:10509000485D00F01FF8681CC5B2062DF3DBBDE8C3
:1050A000F08100002053000810B5044600F028F8F5
:1050B000782000F03DF800F035F8002000F038F8D6
:1050C00000F030F8204600F033F800F02BF800F044
:1050D00021F810BD10B5044600F012F8782000F059
:1050E00027F800F01FF8402000F022F800F01AF82E
:1050F000204600F01DF800F015F800F00BF810BD88
:1051000010B5FFF747FCFFF759FCFFF74DFCFFF721
:1051100037FC10BD10B5FFF73DFCFFF745FCFFF76E
:105120004DFC10BD10B5FFF735FCFFF729FC10BD95
:1051300070B50446FFF724FC002611E0254605F073
:105140008005802D02D1FFF739FC01E0FFF72CFC30
:105150006006040EFFF71EFCFFF712FC701CC6B2BF
:10516000082EEBDB70BD70B50546FBF723FC04464B
:1051700020F00040C0F1FF40C00F08D025F00040F3
:10518000C0F1FF40C00F04BF0120FEF773F82046B6
:1051900070BD00002DE9F843044602464C486946BC
:1051A000B0EB420F09D94FF0E640B0EB420F94BF8D
:1051B00000204FF0FF30009030E0464B22F00040DE
:1051C000834265D944492046FBF738F8FBF735FBA5
:1051D0008046FBF734FA00F0030000903F49404658
:1051E000FBF72CF805463E494046FBF727F80646F4
:1051F0003C494046FBF722F807463B494046FBF74F
:105200001DF82146FBF717F83946FBF711F8314630
:10521000FBF70EF82946FBF70BF80446009D002D1E
:105220003ADB21460846FBF709F806462F49FBF70B
:1052300005F82F49FAF7AAFF3146FAF7FFFF2D4983
:10524000FAF7A4FF3146FAF7F9FF2B49FAF79EFF68
:105250003146FAF7F3FF2949FAF798FF3146FAF792
:10526000EDFF2749FAF792FF3146FAF7E7FF2146AB
:10527000FAF7E4FF2146FAF789FF15F0010F08BF9E
:10528000BDE8F8830146BDE8F8431E48FBF708B8BF
:105290001046FDF72BFFC0E76000B0F17F4F09D249
:1052A0002046FDF7E5FE042808BFFDF71AFF20465B
:1052B000BDE8F88306D10120FDF7DCFFBDE8F84327
:1052C000FDF70BBF2046BDE8F843FDF701BF000026
:1052D000B61F927E490E494683F9223F1A61342C4B
:1052E0000020A23300A0FD390000C93FBBE9223CE9
:1052F0000C6D063B8A76CE3CACB5593D35A1083ED7
:1053000029AAAA3E000080BF0000000000000000A3
:10531000010203040607080900000000010203045B
:105320000000000000000000002F00000000070047
:10533000070000147F147F1400242A7F2A120062C1
:10534000640813230036495522500000050300006D
:1053500000001C224100000041221C000014083EF5
:1053600008140008083E0808000000A060000008BB
:10537000080808080000606000000020100804020F
:10538000003E5149453E0000427F400000426151CD
:105390004946002141454B31001814127F10002767
:1053A00045454539003C4A4949300001710905032A
:1053B00000364949493600064949291E000036365B
:1053C00000000000563600000008142241000014BE
:1053D000141414140000412214080002015109069B
:1053E00000324959513E007C1211127C007F49491C
:1053F0004936003E41414122007F4141221C007F4D
:1054000049494941007F09090901003E4149497A5A
:10541000007F0808087F0000417F410000204041D4
:105420003F01007F08142241007F40404040007F40
:10543000020C027F007F0408107F003E4141413E84
:10544000007F09090906003E4151215E007F0919CC
:1054500029460046494949310001017F0101003FC9
:105460004040403F001F2040201F003F4038403F49
:1054700000631408146300070870080700615149AD
:10548000454300007F41410000552A552A55000040
:1054900041417F00000402010204004040404040BE
:1054A000000001020400002054545478007F484456
:1054B000443800384444442000384444487F00388D
:1054C0005454541800087E0901020018A4A4A47CB6
:1054D000007F080404780000447D40000040808480
:1054E0007D00007F102844000000417F4000007CC8
:1054F00004180478007C08040478003844444438D4
:1055000000FC242424180018242418FC007C08041F
:10551000040800485454542000043F444020003CF8
:105520004040207C001C2040201C003C4030403C7F
:10553000004428102844001CA0A0A07C004464540F
:105540004C44141414141414000000006E83F9A2C7
:105550002915444ED15727FCC0DD34F5999562DBFF
:105560004190433CAB6351FE885500080000002089
:105570003800000054320008C055000838000020F0
:10558000B0050000643200080000000000000000C8
:1055900010000000010000000024F40000000000E2
:1055A0000000000000000000000000000000803F3C
:1055B00000000000000000000000000000000000EB
:04000005080000ED02
:00000001FF
