:020000040800F2
:100000002806002001010008012D0008A92500088C
:10001000FD2C00086B0A00081131000800000000E8
:100020000000000000000000000000002D2D00086E
:100030006F0A000800000000032D00082F2D0008A3
:100040001B0100081B0100081B0100081B01000820
:100050001B0100081B0100081B0100081B01000810
:100060001B0100081B0100081B0100081B01000800
:100070001B0100081B0100081B0100081B010008F0
:100080001B0100081B0100081B0100081B010008E0
:100090001B0100081B0100081B0100081B010008D0
:1000A0001B0100081B0100081B0100081B010008C0
:1000B000A12D00081B0100081B0100081B010008FE
:1000C0001B0100081B0100081B0100081B010008A0
:1000D0001B0100081B0100081B0100081B01000890
:1000E0001B0100081B0100081B010008DFF80CD0F1
:1000F00000F060FC00480047554500082806002035
:100100000648804706480047FEE7FEE7FEE7FEE7B1
:10011000FEE7FEE7FEE7FEE7FEE7FEE79D2D0008AF
:10012000ED000008202A04DB203A21FA02F0002129
:10013000704721FA02F3D040C2F1200291400843F7
:1001400019467047D2B201E000F8012B491EFBD2DC
:1001500070470022F6E710B513460A4604461946D2
:10016000FFF7F0FF204610BDF0B480EA0102D40F83
:100170004200B2EB410F02D20246084611464A0045
:1001800042D0C30DDDB2C1F3C752AD1A202D35DA0E
:10019000C1F3160141F4000204B15242C5F1200638
:1001A00002FA06F12A411044B3EBD05F23D0C4B168
:1001B000012DA0EBC35009DCF0BC4FF0004202EA75
:1001C000C352DBB200F5000000F0B0B9400000F10E
:1001D000807000EBC350A0F1807040EAD1704900FC
:1001E00009E0490841EAC071A0EBC35000F50000E6
:1001F000400800EBC350F0BC00F08FB9614201220F
:1002000002EB4101001BF6E7F0BC704781F00041B2
:10021000AAE780F00040A7E780EA010210B502F0EB
:100220000043400022D04A001FD0010E01EB1261B2
:10023000C0F35600C2F3560240F4000042F400023C
:10024000A0FB022000047F39140400D0401C50EAB7
:10025000124001D44000491EC2B20C0604EBD0107B
:10026000401C4008802A02D003E0002010BD20F08E
:100270000100002900DA0020184310BD30B480EAE4
:10028000010202F0004530F0004221F0004013D09E
:1002900090B1C30DD40DC2F31601C0F31600E41AD9
:1002A00041F4000140F400027D34914201D3641C0A
:1002B00000E04900002C02DA30BC002070474FF407
:1002C00000000023914201D3891A034340084FEAFA
:1002D0004101F7D151B1914202D14FF0004105E007
:1002E00002D24FF0010101E06FF0010103EBC450B5
:1002F000284430BC00F011B92DE9F04D81EA030427
:1003000004F0004B21F0004514464FF0000A23F0A2
:10031000004150EA050220D054EA01021DD0C5F385
:100320000A570246C5F31303C1F31300C1F30A567B
:1003300040F4801543F48013A7EB0608101BD64643
:1003400008F2FD3873EB050002D308F1010801E063
:1003500092185B41B8F1000F03DA00200146BDE8B6
:10036000F08D00204FF48011064684460EE0171BE6
:1003700073EB050705D3121B63EB050306434CEA39
:10038000010C49084FEA300092185B4150EA01071E
:10039000EDD152EA030012D082EA040083EA05019B
:1003A000084305D0101BAB4106D20122002306E012
:1003B00000224FF0004302E06FF0010253101AEBED
:1003C00006004CEB085110EB0A0041EB0B01BDE8B5
:1003D000F04D00F0F7B8C10F80EAE0700844CA079A
:1003E0009623002100F0A2B800F0004220F0004067
:1003F000C10DC0F3160040F400007F2901DA00208F
:100400007047962903DCC1F19601C84001E0963996
:100410008840002AF4D04042704700F0004230F09B
:1004200000400AD0C10D01F56071C0F3160042EA28
:100430000151C20840071143704700200146704730
:1004400001F0004330B421F0004150EA010206D02F
:100450000A0DA2F56072C1F31301002A02DC30BC60
:1004600000207047440F44EAC104C100E01830BCCA
:1004700000EBC25000F051B8002801DBC0F1004091
:10048000002901DBC1F100418142704730B50B46C4
:10049000014600202022012409E021FA02F59D42B4
:1004A00005D303FA02F5491B04FA02F52844151E88
:1004B000A2F10102F1DC30BD2DE9F05F054600201C
:1004C00092469B4688460646814640241BE02846C5
:1004D000414647462246FFF725FE53465A46C01A74
:1004E000914110D311461846224600F075FA2D1A94
:1004F00067EB01084F4622460120002100F06CFA0C
:1005000017EB00094E41201EA4F10104DFDC484630
:1005100031462A464346BDE8F09F0029A8BF7047F0
:10052000401C490008BF20F00100704710B4B0FA29
:1005300080FC00FA0CF050EA010404BF10BC7047C4
:1005400049B1CCF1200421FA04F411FA0CF118BFDE
:10055000012121430843A3EB0C01CB1D4FEA0061AD
:100560004FEA102042BF002010BC704700EBC35080
:1005700010440029A4BF10BC7047401C490008BFAC
:1005800020F0010010BC704710B541000CD0C0F342
:10059000C751962908DC7E2909DC06DB410204D01C
:1005A00000F0004040F07E5010BD002010BDC1F1B1
:1005B0009604C4F1200100FA01F1E040FFF7ADFF1D
:1005C000A04010BD10B5141E73F1000408DA401CE1
:1005D00041F1000192185B411A4301D120F0010062
:1005E00010BD2DE9F04D92469B4611B1B1FA81F252
:1005F00002E0B0FA80F22032904600F0EDF90446B5
:100600000F4640EA0A0041EA0B0153465A460843A6
:1006100013D0114653EA010019D0C8F140025046E8
:10062000FFF780FD05460E4650465946424600F00B
:10063000D3F9084305D0012004E020463946BDE83F
:10064000F08D0020054346EAE0762C4337430A98B4
:100650006305E40AA0EB08000022FD0A44EA4754BF
:100660000A3002D500200146E9E701051019694169
:10067000DDE9084500196941BDE8F04DA2E72DE923
:10068000FE4F804681EA0300C00F0C46009021F027
:10069000004123F00045B8EB0200A94105D24046D5
:1006A000214690461C460B46024623F0004010436C
:1006B00047D0270DC7F30A00C3F30A510290401A2E
:1006C000019040286BDAC3F3130040F4801B0098BC
:1006D000924620B10023D2EB030A63EB0B0B019887
:1006E0005946C0F14002504600F076F906460D46E4
:1006F00050465946019A00F07EF910EB080061411E
:10070000002487EA115284EAE7731A4340D0009A22
:1007100062B3019A012A4FEA075215DC001B61EB14
:1007200002014FF0004202EA0752CDE90042001CEC
:1007300041F5801132462B46FFF753FF03B0BDE869
:10074000F08F40462146F9E7001B61EB0201001CD7
:1007500041F5801300185B412018A2F5001747EB04
:10076000030140EAD570B6196D4111E06D084FEAFA
:10077000360645EAC0754FEA0752001B61EB0201DD
:10078000001C41F5801149084FEA30000019514121
:1007900032462B4603B0BDE8F04FFFF713BF009879
:1007A000012240000023D0EB020263EBE0730098CB
:1007B00021464FEAE074B8EB000061EB0401E9E781
:1007C00083F000435BE781F0004158E72DE9FE4FDD
:1007D00081EA030404F0004421F0004100944FF04A
:1007E000000B23F0004350EA01045ED052EA0304F8
:1007F0005BD0C3F30A54C1F30A552C44A4F2F3347A
:100800000194A0FB0254C1F3130141F48011C3F31E
:10081000130343F4801301FB024400FB034E840ADC
:10082000970A44EA815447EA8357A4FB0768029574
:100830008D0A05FB07854FEA932C04FB0C54270512
:10084000029D4FEA065847EA1637B5EB08056EEBEE
:10085000070C870E920E47EA811742EA8312A7FB24
:100860000201B6EB0B0164EB00042B0D43EA0C33E1
:100870005E1844EB1C50DA465146E7FB0201C5F313
:1008800013044FEA0B3343EA14534FEA0432019C3A
:1008900043EA0603A4F10C040294009CCDE900B4E1
:1008A000FFF79FFE03B0BDE8F08F00200146F9E797
:1008B0002DE9F04D00231A461B1A8A4103DB002064
:1008C0000146BDE8F08DC1F30A52C1F3130141F4B2
:1008D00080154FF0000BD10702D100186D41521E58
:1008E0000027044640F2FF11384601EB620A3E46FB
:1008F0008046024600204FF48011FFF713FCC21916
:100900007141BB1846EB0100B4EB030C75EB000C16
:1009100004D3E41A65EB000517460E46241908F1C6
:1009200001006D4180463428E3DDF91946EB0600ED
:10093000091BA84103D24FF0FF32134601E0002209
:1009400013461BEB070046EB0A51BDE8F04DFFF7DD
:1009500039BEC1F30A52C1F3130140F2FF3341F42F
:1009600080119A4202DA00200146704740F2334378
:100970009A42A2F2334202DC5242FFF7D3BB00F0AC
:100980002BB8000030B5041E71F1000404DB4FF0F9
:100990000044404264EB0101141E73F1000405DBC6
:1009A0001C464FF00043524263EB0403994208BFD8
:1009B000904230BD064C074D06E0E06840F0010370
:1009C00094E8070098471034AC42F6D3FFF792FB47
:1009D000C84C0008E84C0008202A04DB203A00FA42
:1009E00002F1002070479140C2F1200320FA03F386
:1009F000194390407047202A06DBCB17203A41FA72
:100A000002F043EAE07306E041FA02F3D040C2F19B
:100A100020029140084319467047420005D0C0F3B8
:100A2000C7525242914201DC0020704700EBC15096
:100A3000704770B521F0004303430CD0C1F30A5551
:100A40000024D5EB040564EB0403D617AD1AB341BB
:100A500002DB0020014670BD201841EB025170BD41
:100A6000962300221146FFF761BD00BFFEE77047E5
:100A70007047000070B5044600F0A6F9064625460A
:100A8000681C10B104480078054400BF00F09CF9D0
:100A9000801BA842FAD370BD0C0000202DE9F84756
:100AA0000346002294466EE14FF0010808FA02F472
:100AB000D1F8008008EA0400A0427DD1DFF8DCA272
:100AC000D1F80480A8EB0A09D0453AD014DCB8F17B
:100AD000030F50D009DCB8F1000F31D0B8F1010F8D
:100AE0001CD0B8F1020F49D120E0B8F1110F18D095
:100AF000B8F1120F42D11EE0B9F5881F25D006DCEF
:100B0000B9F5803F20D0B9F5801F37D11AE0B9F58B
:100B1000001F18D0B9F5041F30D117E0D1F80CC070
:100B20002DE0D1F80C8008F1040C28E0D1F80C80FD
:100B300008F1080C23E0D1F80C8008F10C0C1EE041
:100B400000BF00BF00BF00BF00BF00BFD1F80880DA
:100B5000B8F1000F02D14FF0040C0BE0D1F808807F
:100B6000B8F1010F03D14FF0080C1C6102E04FF007
:100B7000080C5C6103E04FF0000C00E000BF00BF18
:100B8000FF2801D8984601E003F104084646FF28F3
:100B900002D84FEA820803E0A2F108084FEA880869
:100BA0004746D6F800804FF00F0909FA07F928EAFE
:100BB00009080CFA07F900E088E048EA0908C6F8D5
:100BC0000080D1F8048008F08058B8F1805F7DD1B2
:100BD00000BFDFF8CC81D8F8188048F00108DFF8B2
:100BE000C091C9F81880C846D8F8188008F00108E4
:100BF000CDF8008000BF00BF4FEAB9384FEA920934
:100C000058F829504FEA82784FEA18794FF00F08C8
:100C100008FA09F825EA0805DFF88881434502D17A
:100C20004FF0000816E0DFF88081434502D14FF015
:100C300001080FE0DFF87481434502D14FF002084C
:100C400008E0DFF86C81434502D14FF0030801E072
:100C50004FF004084FEA82794FEA197908FA09F847
:100C600048EA0505DFF84C814FEA920948F8295017
:100C7000D1F8048008F48038B8F5803F0AD1DFF855
:100C80003881D8F8008048EA0008DFF82C91C9F8CC
:100C9000008009E0DFF82081D8F8008028EA000809
:100CA000DFF81491C9F80080D1F8048008F4003806
:100CB000B8F5003F10D1DFF8008108F10408D8F83A
:100CC000008048EA0008DFF8F09000E05AE009F1FF
:100CD0000409C9F800800DE0DFF8DC8008F10408A1
:100CE000D8F8008028EA0008DFF8CC9009F1040960
:100CF000C9F80080D1F8048008F48018B8F5801F86
:100D00000ED1DFF8B48008F10808D8F8008048EA6E
:100D10000008DFF8A49009F10809C9F800800DE087
:100D2000DFF8948008F10808D8F8008028EA000865
:100D3000DFF8849009F10809C9F80080D1F804802F
:100D400008F40018B8F5001F0ED1DFF86C8008F128
:100D50000C08D8F8008048EA0008DFF85C9009F138
:100D60000C09C9F800800DE0DFF84C8008F10C0890
:100D7000D8F8008028EA0008DFF83C9009F10C0957
:100D8000C9F80080521CD1F8008028FA02F8B8F1A6
:100D9000000F7FF489AEBDE8F88700000000111055
:100DA0000010024000080140000C0140001001400A
:100DB0000014014008000140000401400AB1016133
:100DC00001E00B04036170470148006870470000B0
:100DD0000400002070B504460CB9012070BD94F8E1
:100DE0003D0028B9002084F83C00204600F03EFB7E
:100DF000242084F83D002068006820F0010021686C
:100E000008602068006840F400402168086020689D
:100E1000006820F400402168086000F02DFD0546C0
:100E20005C496068884206D85B48854201D201204F
:100E300007E0002005E05948854201D2012000E08A
:100E40000020012800D1C9E75548B5FBF0F620681D
:100E5000406820F03F003043216848604D49606899
:100E6000884201D8701C07E04FF4967070434FF42D
:100E70007A71B0FBF1F0401C2168096A21F03F0152
:100E800008432168086243496068884214D8681E94
:100E900061684900B0FBF1F0401CC0F30B0004286E
:100EA00001D204203DE0681E61684900B0FBF1F00A
:100EB000401CC0F30B0034E0A06838B9681E6168BC
:100EC00001EB4101B0FBF1F0401C0AE0681E6168D3
:100ED00001EBC10202EB0111B0FBF1F0401C40F448
:100EE0008040C0F30B0008B901201AE0A06848B99F
:100EF000681E616801EB4101B0FBF1F0401CC0F3DA
:100F00000B000CE0681E616801EBC10202EB0111ED
:100F1000B0FBF1F0401CC0F30B0040F4804040F403
:100F200000402168C9694CF6FF729143084321686B
:100F3000C861D4E9070108432168096821F0C001AC
:100F4000084321680860D4E90310084321688968D0
:100F500048F2FF329143084321688860D4E90501D3
:100F600008432168C96821F0FF0108432168C8606F
:100F70002068006840F001002168086000202064BB
:100F8000202084F83D000020206384F83E0000BF4C
:100F900024E70000A086010080841E0000093D00B7
:100FA00040420F002DE9FE4F04460F4690469946F9
:100FB000DDE90CAB0E9E00200290FFF705FF054611
:100FC00094F83D00202872D119230122CA492046F5
:100FD000009501F059FC10B10220BDE8FE8F00BF62
:100FE00094F83C00012801D10220F6E7012084F8A2
:100FF0003C0000BF2068006800F0010028B92068AC
:10100000006840F00100216808602068006820F452
:10101000006021680860222084F83D00402084F8A8
:101020003E0000202064C4F824A0A4F82AB0608DFB
:101030002085B248E0624B46424639462046CDE91B
:10104000006501F0D3FA08B10120C6E7208D88B908
:1010500000BF0020019020684069019020688069ED
:10106000019000BF00BF2068006840F40070216854
:1010700008604BE0208D01281AD12068006820F418
:1010800080602168086072B600BF0020019020686F
:101090004069019020688069019000BF00BF20680E
:1010A000006840F400702168086062B62EE020E11C
:1010B000208D022819D12068006840F40060216862
:1010C000086072B600BF002001902068406901905E
:1010D00020688069019000BF00BF2068006820F48C
:1010E00080602168086062B610E02068006840F403
:1010F00080602168086000BF00200190206840697E
:10110000019020688069019000BF00BFE2E0208D5F
:1011100003287DD8208D012815D12A463146204646
:1011200001F057FC08B1012057E720680069616AA7
:101130000870606A401C6062208D401E2085608DB2
:10114000401E6085C6E0208D02282CD13346002247
:101150006B492046009501F097FB08B101203CE760
:1011600072B62068006840F400702168086020684A
:101170000069616A0870606A401C6062208D401ED0
:101180002085608D401E608562B620680069616AB6
:101190000870606A401C6062208D401E2085608D52
:1011A000401E608596E03346002255492046009552
:1011B00001F06AFB08B101200FE72068006820F405
:1011C00080602168086072B620680069616A0870F2
:1011D000606A401C6062208D401E2085608D401E2C
:1011E0006085484800681921B0FBF1F04FF47A712E
:1011F000B0FBF1F0C0EBC00000EB8000029000BF3C
:101200000298401E02900298A8B90020206300E0D6
:1012100039E0202084F83D00002084F83E00206C56
:1012200040F02000206462B600BF002084F83C003B
:1012300000BF0120D1E620684069C0F3800000288B
:10124000DED02068006840F40070216808602068E3
:101250000069616A0870606A401C6062208D401EEF
:101260002085608D401E608562B620680069616AD5
:101270000870606A401C6062208D401E2085608D71
:10128000401E608526E02A463146204601F0A1FB3B
:1012900008B10120A1E620680069616A0870606AEF
:1012A000401C6062208D401E2085608D401E608540
:1012B00020684069C0F3800060B120680069616AFD
:1012C0000870606A401C6062208D401E2085608D21
:1012D000401E6085208D00287FF419AF202084F8FF
:1012E0003D00002084F83E0000BF84F83C0000BFB1
:1012F00073E6022071E60000020010000000FFFF0C
:1013000004000100100000202DE9FC5F04460F4698
:1013100090469946DDE90CAB0E9EFFF755FD05465C
:1013200094F83D0020287DD1192301224D49204603
:10133000009501F0A9FA10B10220BDE8FC9F00BFA2
:1013400094F83C00012801D10220F6E7012084F83E
:101350003C0000BF2068006800F0010028B9206848
:10136000006840F00100216808602068006820F4EF
:10137000006021680860212084F83D00402084F846
:101380003E0000202064C4F824A0A4F82AB0608D98
:1013900020853548E0624B46424639462046CDE935
:1013A000006501F0D3F908B10120C6E731E02A4613
:1013B0003146204601F04DFB50B1206C042805D188
:1013C0002068006840F40070216808600120B4E7DC
:1013D000606A007821680861606A401C6062208D44
:1013E000401E2085608D401E608520684069C0F3E6
:1013F000800070B1208D60B1606A0078216808615A
:10140000606A401C6062208D401E2085608D401EF9
:101410006085208D0028CAD12A463146204601F039
:1014200005FA00E01CE050B1206C042805D12068CA
:10143000006840F400702168086001207DE72068A2
:10144000006840F4007021680860202084F83D00A6
:10145000002084F83E0000BF84F83C0000BF6CE729
:1014600002206AE7020010000000FFFF10B586B0FE
:101470000446002002900390049005902B492068B8
:10148000884225D100BF2A48806940F008002849D9
:1014900088610846806900F00800019000BF00BF25
:1014A000C0200290122003900320059002A9214839
:1014B000FFF7F4FA00BF1E48C06940F400101C4951
:1014C000C8610846C06900F40010019000BF2AE01E
:1014D00019492068884226D100BF1548806940F02C
:1014E0000800134988610846806900F008000190EF
:1014F00000BF00BF4FF44060029012200390032011
:10150000059002A90B48FFF7C9FA00BF0848C06957
:1015100040F480000649C8610846C06900F48000B4
:10152000019000BF00BF06B010BD00000054004095
:1015300000100240000C01400058004003480068C1
:1015400003490978084401490860704704000020F5
:101550000C00002010B50848006840F01000064953
:101560000860032000F0A8F8002000F007F800F061
:101570002BF8002010BD00000020024070B504468A
:101580000E4800784FF47A71B1FBF0F00C4909680D
:10159000B1FBF0F5284600F00BFC08B1012070BD4E
:1015A000102C07D200222146501E00F047F80548B3
:1015B000046001E00120F2E70020F0E70C000020C9
:1015C000100000200800002008B500BF1148806905
:1015D00040F001000F4988610846806900F0010071
:1015E000009000BF00BF00BF0846C06940F08050B7
:1015F000C8610846C06900F08050009000BF00BF7D
:1016000000BF0549486820F0E06040F00070486085
:1016100000BF08BD0010024000000140014608461E
:10162000002809DB00F01F0301229A4043099B00B8
:1016300003F1E023C3F8002100BF70472DE9F05FFC
:1016400080460D461646002701F09CFD07463946A8
:101650002A46334601F00700C0F1070ABAF1040F29
:1016600002D94FF0040A01E0C0F1070AD14600F1A7
:10167000040ABAF1070F02D24FF0000A01E0A0F10C
:10168000030AD4464FF0010A0AFA09FAAAF1010A3C
:101690000AEA020A0AFA0CFA4FF0010B0BFA0CFBE9
:1016A000ABF1010B0BEA030B4AEA0B04214640465F
:1016B00001F070FDBDE8F09F00BF00F00702064B8F
:1016C00019684FF6FF031940044B0B4343EA02210C
:1016D000014B196000BF70470CED00E00000FA05F7
:1016E00070B504460D460CB9012070BD5A4800681B
:1016F00000F00700A8420ED25748006820F007000B
:101700002843554908600846006800F00700A842D1
:1017100001D00120E9E7207800F0020002281DD165
:10172000207800F00400042805D14C48406840F4BB
:10173000E0604A494860207800F00800082805D198
:101740004648406840F46050444948604348406817
:1017500020F0F000A168084340494860207800F07C
:10176000010078B36068012806D13C48006800F4A5
:10177000003090B90120B8E76068022806D13748E8
:10178000006800F0007040B90120AEE733480068FF
:1017900000F0020008B90120A7E73048406820F0B7
:1017A0000300616808432D494860FFF70DFB0646BA
:1017B00009E0FFF709FB801B41F28831884202D91A
:1017C000032092E707E02548406800F00C006168BC
:1017D000B0EB810FEDD12048006800F00700A8426F
:1017E0000ED91D48006820F0070028431A490860F8
:1017F0000846006800F00700A84201D0012074E705
:10180000207800F00400042807D11448406820F430
:10181000E060E168084311494860207800F0080062
:10182000082808D10D48406820F46050216940EA3A
:10183000C1000A49486000F03FF808494968C1F30F
:101840000311074A515CC840064908600648006811
:10185000FFF794FE002048E70020024000100240FD
:10186000F04B00081000002008000020014800682C
:10187000704700001000002000B5FFF7F7FF044993
:101880004968C1F30221034A515CC84000BD000011
:1018900000100240004C000800B5FFF7E7FF0449C4
:1018A0004968C1F3C221034A515CC84000BD000031
:1018B00000100240004C0008F0B585B00FF26C0C2F
:1018C0009CE8E01001A8A0E8E0101CA52D68009598
:1018D00000210022002300240020194D696801F036
:1018E0000C05F5B1042D02D0082D19D101E01548E1
:1018F00019E001ADC1F38346AC5D01F4803555B10B
:101900000F4D6D68C5F340451DF805200D4D65432D
:10191000B5FBF2F302E00C4D04FB05F3184602E0C0
:1019200000BF084800BF00BF05B0F0BD02030405BA
:10193000060708090A0B0C0D0E0F1010010200001B
:101940000010024000127A0000093D00F8B504467C
:101950000CB90120F8BD207800F00100002878D0F3
:10196000F848406800F00C0004280CD0F5484068A6
:1019700000F00C00082811D1F248406800F48030D3
:10198000B0F5803F0AD1EF48006800F4003000282D
:101990005FD0606800285CD10120DBE700BF606891
:1019A000B0F5803F06D1E748006840F48030E54953
:1019B000086028E0606858B9E248006820F4803088
:1019C000E04908600846006820F4802008601AE0BA
:1019D0006068B0F5A02F0BD1DA48006840F4802091
:1019E000D84908600846006840F4803008600AE082
:1019F000D448006820F48030D24908600846006866
:101A000020F48020086000BF606888B1FFF7DCF92F
:101A1000054606E0FFF7D8F9401B642801D90320EA
:101A200098E7C848006800F400300028F2D010E0C1
:101A3000FFF7CAF9054606E0FFF7C6F9401B642820
:101A400001D9032086E7BF48006800F40030002871
:101A5000F2D1207800F00200022857D1B94840683E
:101A600000F00C0050B1B748406800F00C000828A6
:101A700018D1B448406800F4803098B9B148006883
:101A800000F0020020B12069012801D0012061E7A7
:101A9000AC48006820F0F800616940EAC100A9493B
:101AA000086033E02069E8B10120A7490860FFF72A
:101AB0008BF9054606E0FFF787F9401B022801D99C
:101AC000032047E79F48006800F002000028F2D09A
:101AD0009C48006820F0F800616940EAC10099491B
:101AE000086013E0002098490860FFF76DF905468B
:101AF00006E0FFF769F9401B022801D9032029E716
:101B00009048006800F002000028F2D1207800F030
:101B1000080008282DD1A069B8B101208B490860C0
:101B2000FFF752F9054606E0FFF74EF9401B022881
:101B300001D903200EE78348406A00F00200002824
:101B4000F2D0012001F0DEF813E000207F490860A8
:101B5000FFF73AF9054606E0FFF736F9401B022881
:101B600001D90320F6E67748406A00F00200002819
:101B7000F2D1207800F00400042873D100277148C6
:101B8000C06900F0805070B900BF6E48C06940F075
:101B900080506C49C8610846C06900F080500090D0
:101BA00000BF00BF01276A48006800F48070B0B928
:101BB0006748006840F4807065490860FFF704F9E1
:101BC000054606E0FFF700F9401B642801D9032011
:101BD000C0E65F48006800F480700028F2D000BFC3
:101BE000E068012806D15748006A40F001005549D5
:101BF000086227E0E06858B95248006A20F0010006
:101C0000504908620846006A20F00400086219E0A2
:101C1000E06805280BD14B48006A40F004004949B0
:101C200008620846006A40F0010008620AE0454880
:101C3000006A20F00100434908620846006A20F06B
:101C40000400086200BFE068A0B1FFF7BDF80546D8
:101C500009E0FFF7B9F8401B41F28831884202D908
:101C6000032077E622E03748006A00F002000028EF
:101C7000EFD012E0FFF7A8F8054608E0FFF7A4F858
:101C8000401B41F28831884201D9032062E62D4889
:101C9000006A00F002000028F0D1012F05D1294888
:101CA000C06920F080502749C86100BFE069C8B30F
:101CB0002448406800F00C00082860D0E069022841
:101CC00048D1002020490866FFF77EF8054606E067
:101CD000FFF77AF8401B022801D903203AE6194899
:101CE000006800F000700028F2D1206AB0F5803F53
:101CF00007D11448406820F40030A1680843114916
:101D00004860D4E9080108430E49496821F4741178
:101D100008430C49486001200B490866FFF754F856
:101D2000054607E03DE0FFF74FF8401B022801D9C8
:101D300003200FE60348006800F000700028F2D08E
:101D40002FE00000001002400000424280044242A6
:101D500000700040002014490866FFF735F805467A
:101D600006E0FFF731F8401B022801D90320F1E516
:101D70000E48006800F000700028F2D111E0E06920
:101D8000012800D1E6E50948466806F48031206A5A
:101D9000814204D106F47011606A814201D00120B1
:101DA000D8E50020D6E500000000424200100240C5
:101DB00070B504462546681EB0F1807F01D301202E
:101DC0000FE0681E4FF0E02148610F214FF0FF3017
:101DD00001F0E0F900204FF0E02188610720086160
:101DE000002070BD7047704730B502460B4600BFFB
:101DF00092F83C00012801D1022030BD012082F878
:101E00003C0000BF022082F83D0010684468106862
:101E1000816824F070041868044310684460104D11
:101E20001068A8420BD01068B0F1804F07D00D4D5C
:101E30001068A84203D00C4D1068A84205D121F0CB
:101E400080015868014310688160012082F83D00DC
:101E500000BF002082F83C0000BF00BFCDE70000BB
:101E6000002C0140000400400008004010B504466A
:101E70000CB9012010BD94F83D0028B9002084F869
:101E80003C00204600F026F8022084F83D00211D89
:101E9000206800F08DFF012084F8460000BF84F820
:101EA0003E0001213F2001554020015541200155B0
:101EB00000BF00BF012084F84200432001554420A8
:101EC00001554520015500BF012084F83D00002048
:101ED000D0E7000038B504462068B0F1804F15D136
:101EE00000BF0B48C06940F001000949C8610846BD
:101EF000C06900F00100009000BF00BF0022114641
:101F00001C20FFF79BFB1C20FFF788FB38BD00005F
:101F100000100240014691F83D00012801D0012047
:101F20007047022081F83D000868C06840F0010059
:101F30000B68D860124B086898420BD00868B0F163
:101F4000804F07D00F4B0868984203D00E4B0868AB
:101F500098420CD10868806800F00702062A0CD06D
:101F60000868006840F001000B68186005E0086828
:101F7000006840F001000B6818600020D0E7000006
:101F8000002C014000040040000800402DE9F04111
:101F900004460D4600BF94F83C00012802D10220FF
:101FA000BDE8F081012084F83C0000BF022084F8E5
:101FB0003D002068866826F0770626F47F46206874
:101FC00086602868502833D00CDC202850D004DCF0
:101FD00000284BD0102851D149E0302849D0402862
:101FE0004CD139E060282DD0702807D0B0F5805F43
:101FF00003D0B0F5005F41D10DE040E0D5E9021318
:102000006A68206800F00EFF2068866846F0770650
:102010002068866033E0D5E902136A68206800F022
:1020200001FF2068806840F480402168886026E0D5
:10203000EA686968206800F0C5FF5021206800F058
:10204000FCFE1CE0EA686968206800F0CEFF6021B1
:10205000206800F0F2FE12E0EA686968206800F08B
:10206000B1FF4021206800F0E8FE08E000BF00BF9B
:1020700000BF2968206800F0E0FE00E000BF00BF5C
:10208000012084F83D0000BF002084F83C0000BF20
:1020900000BF85E7704710B5044620680069C0F3AB
:1020A0004000D8B12068C068C0F34000B0B16FF004
:1020B000020021680861012020772068806900F013
:1020C000030018B12046FFF7E5FF05E0204600F0C9
:1020D000F1F8204600F0B8F9002020772068006968
:1020E000C0F38000D8B12068C068C0F38000B0B1F0
:1020F0006FF0040021680861022020772068806961
:1021000000F4407018B12046FFF7C4FF05E02046F8
:1021100000F0D0F8204600F097F9002020772068E2
:102120000069C0F3C000D8B12068C068C0F3C00027
:10213000B0B16FF0080021680861042020772068A2
:10214000C06900F0030018B12046FFF7A3FF05E0C7
:10215000204600F0AFF8204600F076F90020207706
:1021600020680069C0F30010D8B12068C068C0F3CF
:102170000010B0B16FF010002168086108202077CE
:102180002068C06900F4407018B12046FFF782FF54
:1021900005E0204600F08EF8204600F055F90020BA
:1021A00020772068006900F0010058B12068C068FD
:1021B00000F0010030B16FF0010021680861204695
:1021C00000F044F920680069C0F3C01058B12068DD
:1021D000C068C0F3C01030B16FF0800021680861A2
:1021E0002046FFF7FFFD20680069C0F3801058B15A
:1021F0002068C068C0F3801030B16FF040002168E3
:102200000861204600F052F920680069C0F34010D0
:1022100058B12068C068C0F3401030B16FF02000A2
:10222000216808612046FFF7DEFD10BD10B586B0BD
:1022300004460020029003900490059019492068FC
:1022400088422CD100BF1848806940F0040016492C
:1022500088610846806900F00400019000BF00BF5B
:1022600000BF0846806940F0080088610846806920
:1022700000F00800019000BF00BFC02002900220C3
:102280000390059002A90948FEF708FC032002907C
:1022900002200390059002A90548FEF7FFFB06B057
:1022A00010BD000000040040001002400008014082
:1022B000000C0140704770B504460D46164600BF3D
:1022C00094F83C00012801D1022070BD012084F85F
:1022D0003C0000BF36B1042E1BD0082E31D00C2E8E
:1022E0005ED145E02946206800F0B0FD2068806995
:1022F00040F00800216888612068806920F00400AF
:10230000216888612068806929690843216888619B
:1023100047E02946206800F0C9FD2068806940F444
:102320000060216888612068806920F480602168ED
:10233000886120688069296940EA012021688861F4
:102340002FE02946206800F0E5FD2068C06940F0D4
:1023500008002168C8612068C06920F00400216875
:10236000C8612068C069296908432168C86118E00C
:102370002946206800F002FE2068C06940F4006031
:102380002168C8612068C06920F480602168C86144
:102390002068C069296940EA01202168C86100E01D
:1023A00000BF00BF00BF002084F83C0000BF00BF9A
:1023B0008BE710B504460CB9012010BD94F83D0020
:1023C00028B9002084F83C00204600F025F80220BF
:1023D00084F83D00211D206800F0EAFC012084F80B
:1023E000460000BF84F83E0001213F2001554020F7
:1023F00001554120015500BF00BF012084F8420073
:1024000043200155442001554520015500BF0120BE
:1024100084F83D000020D0E708B5094A01689142E0
:102420000DD100BF0749C96941F00201054AD161D8
:102430001146C96901F00201009100BF00BF08BD4B
:1024400000040040001002407047000038B5044608
:1024500010492068096888421BD10F480088401C39
:1024600000B20D490880B1F9000000EBD0714910AD
:10247000A0EB410169B9002001231A4607490090E9
:10248000074802F077F9074B074A0449044801F06E
:1024900026FC38BDD0000020140000201C000020C5
:1024A00016000020F93C00081C020020704710B5FF
:1024B00004460CB9012010BDA06900B100E000BFC6
:1024C00094F83D0028B9002084F83C00204600F034
:1024D00027F8242084F83D002068C06820F40050CC
:1024E0002168C860204600F095FD2068006920F44E
:1024F0009040216808612068406920F02A00216826
:1025000048612068C06840F400502168C86000201D
:102510002064202084F83D0084F83E000020CAE7B3
:1025200010B586B0044600200290039004900590F8
:102530001A49206888422ED100BF1948806940F4AA
:102540008040174988610846806900F48040019006
:1025500000BF00BF00BF0846806940F004008861EA
:102560000846806900F00400019000BF00BF4815D4
:102570000290022003900320059002A90948FEF76B
:102580008DFA4FF48060029000200390049002A91D
:102590000448FEF783FA06B010BD00000038014081
:1025A000001002400008014000BFFEE70146086835
:1025B0004069C0F38020B0B16FF480600A68506158
:1025C00000200863202081F83D00002081F83E00B3
:1025D000086C40F00400086400BF002081F83C0053
:1025E00000BF012070470020FCE700002DE9F84300
:1025F00004460F4615469946DDE9088620680068BE
:1026000040F48060216808602068006840F48070B1
:1026100021680860434600224FF0011120460096D1
:1026200000F032F960B12068006800F48070B0F505
:10263000807F02D14FF4007020640320BDE8F8834E
:1026400007F0FE0021680861334642463E492046B5
:1026500000F05DF908B10120F0E700BF0020009014
:1026600020684069009020688069009000BF00BF2A
:1026700032464146204600F0ECF950B1206C042867
:1026800005D12068006840F40070216808600120CE
:10269000D4E7B9F1010F03D1E8B22168086117E06E
:1026A000C5F307202168086132464146204600F004
:1026B000D0F950B1206C042805D12068006840F49E
:1026C0000070216808600120B8E7E8B2216808615D
:1026D00032464146204600F0BCF950B1206C042837
:1026E00005D12068006840F400702168086001206E
:1026F000A4E72068006840F48070216808604346C1
:1027000000224FF001112046009600F0BDF858B1AC
:102710002068006800F48070B0F5807F02D14FF42B
:1027200000702064032089E7F8B240F001002168BE
:102730000861334642460449204600F0E8F808B1F3
:1027400001207BE7002079E7020001002DE9F84332
:102750000446884615469946DDE908672068006802
:1027600040F4807021680860334600224FF0011168
:102770002046009700F088F860B12068006800F4F7
:102780008070B0F5807F02D14FF400702064032088
:10279000BDE8F88308F0FE00216808613B46324638
:1027A0002149204600F0B3F808B10120F0E700BF4E
:1027B00000200090206840690090206880690090A7
:1027C00000BF00BF3A463146204600F042F950B102
:1027D000206C042805D12068006840F4007021684E
:1027E00008600120D4E7B9F1010F03D1E8B22168F4
:1027F000086117E0C5F30720216808613A463146B1
:10280000204600F026F950B1206C042805D120683C
:10281000006840F40070216808600120B8E7E8B261
:10282000216808610020B3E70200010070B504468A
:102830000D46164620E02046FFF7B8FE08B10120FD
:1028400070BD681CC0B1FEF7BFFA801BA84200D85B
:1028500095B900202063202084F83D00002084F8F2
:102860003E00206C40F02000206400BF002084F86F
:102870003C0000BF0120E3E720684069C0F380000E
:102880000028D8D00020DBE72DE9F04104460D46B2
:1028900017461E46DDF818801CE0701CD0B1FEF70C
:1028A00093FAA0EB0800B04200D89EB90020206344
:1028B000202084F83D00002084F83E00206C40F089
:1028C0002000206400BF002084F83C0000BF0120ED
:1028D000BDE8F081C5F3074001280AD120684069AE
:1028E000A9B20840A9B2884201D101200BE0002022
:1028F00009E020688069A9B20840A9B2884201D1E4
:10290000012000E00020B842C7D00020E0E72DE918
:10291000F04104460D4616461F463DE020684069DA
:10292000C0F38020E8B12068006840F4007021689E
:1029300008606FF4806021684861002020632020D7
:1029400084F83D00002084F83E00206C40F0040034
:10295000206400BF002084F83C0000BF0120BDE8D7
:10296000F081701CC0B1FEF72FFAC01BB04200D836
:1029700096B900202063202084F83D00002084F8D0
:102980003E00206C40F02000206400BF002084F84E
:102990003C0000BF0120E2E7C5F3074001280AD14F
:1029A00020684069A9B20840A9B2884201D101203B
:1029B0000BE0002009E020688069A9B20840A9B2B4
:1029C000884201D1012000E000200028A6D000208C
:1029D000C5E770B504460D46164632E020684069EA
:1029E000C0F30010A0B16FF0100021684861002012
:1029F0002063202084F83D00002084F83E00206CF5
:102A0000206400BF002084F83C0000BF012070BD9E
:102A1000FEF7DAF9801BA84200D895B900202063A0
:102A2000202084F83D00002084F83E00206C40F017
:102A30002000206400BF002084F83C0000BF01207B
:102A4000E5E720684069C0F380100028C6D0002068
:102A5000DDE770B504460D46164620E02046FFF738
:102A6000A5FD08B1012070BD681CC0B1FEF7ACF92E
:102A7000801BA84200D895B900202063202084F84C
:102A80003D00002084F83E00206C40F020002064CF
:102A900000BF002084F83C0000BF0120E3E720686D
:102AA0004069C0F3C0100028D8D00020DBE7000048
:102AB00000B585B00020019002900390049000BF03
:102AC0001C48806940F020001A49886108468069E6
:102AD00000F02000009000BF00BF00BF08468069E2
:102AE00040F0040088610846806900F0040000900E
:102AF00000BF00BF00BF0846806940F00800886141
:102B00000846806900F00800009000BF00BF002266
:102B100008210948FEF752F908200190012002908F
:102B2000002003900220049001A90348FDF7B6FF9E
:102B300005B000BD00100240000C014010B50B486C
:102B40000B4908600B484860002109488160C1605A
:102B50004FF480410161002141618161C1610162E5
:102B6000FEF738F908B1FDF783FF10BD00540040AF
:102B700028000020A086010010B50B480B49086012
:102B80000B484860002109488160C1604FF48041D2
:102B90000161002141618161C1610162FEF71AF9A1
:102BA00008B1FDF765FF10BD005800407C00002013
:102BB000A086010000B587B0002003900490059026
:102BC0000690019002904FF0804014490860472021
:102BD000486000211148816041F28731C1600021C5
:102BE000016180218161FFF741F908B1FDF740FFE4
:102BF0004FF48050039003A90848FFF7C7F908B1C4
:102C0000FDF736FF00200190029001A90348FFF76D
:102C1000EBF808B1FDF72CFF07B000BDD000002095
:102C200000B589B00020079008901C216846FDF788
:102C300090FA22482249086000204860002120487C
:102C40008160C16001618161FFF7B3FB08B1FDF7ED
:102C50000FFF00200790089007A91948FFF7C4F854
:102C600008B1FDF705FF6020009000200190029060
:102C70000490002269461248FFF71DFB08B1FDF7DA
:102C8000F7FE042269460E48FFF715FB08B1FDF771
:102C9000EFFE082269460A48FFF70DFB08B1FDF771
:102CA000E7FE0C2269460648FFF705FB08B1FDF771
:102CB000DFFE0348FFF7BAFA09B000BD0004004088
:102CC0001801002010B50B480B4908604FF4E130A3
:102CD0004860002108488160C16001610C214161A8
:102CE00000218161C161FFF7E2FB08B1FDF7C0FE81
:102CF00010BD0000003801406001002000BFFEE769
:102D00007047704708B508490968C9084FF47A72D6
:102D1000B1FBF2F14143009100BF00BF00994A1E90
:102D200000920029F9D108BD10000020704710B5AD
:102D3000FEF704FC10BD00B58FB0282105A8FDF7F3
:102D400008FA14216846FDF704FA012005900004F2
:102D50000690002007900120099002200C90C103EA
:102D60000D914FF4E0110E9105A8FEF7EFFD08B1AB
:102D7000FDF77EFE0F2000900220019000200290BF
:102D80004FF4806003900020049002216846FEF713
:102D9000A7FC08B1FDF76CFE0FB000BD7047000046
:102DA00010B50248FFF777F910BD0000D0000020F1
:102DB00010B50268184B984208D0B0F1804F05D08A
:102DC000164B984202D0164B984203D122F0700263
:102DD0004B681A43104B984208D0B0F1804F05D091
:102DE0000E4B984202D00E4B984203D122F440720F
:102DF000CB681A4322F080034C6943EA0402026064
:102E00008B68C3620B688362034B984201D10B69E4
:102E100003630123436110BD002C01400004004006
:102E20000008004030B50C46816821F47F4142EA39
:102E3000032525432943816030BD0A46816821F07E
:102E4000700142F0070319438160704730B5056A8D
:102E500025F001050562026A4368846924F0700464
:102E600024F003040D682C4322F002028D682A43EB
:102E70000D4DA84206D100BF22F00802CD682A43BA
:102E800022F00402084DA84207D123F4807323F4F2
:102E900000734D692B438D692B43436084614D68FA
:102EA0004563026230BD0000002C014030B5056A68
:102EB00025F010050562026A4368846924F4E04441
:102EC00024F440740D6844EA052422F020028D6841
:102ED00042EA05120E4DA84207D100BF22F080023F
:102EE000CD6842EA051222F04002094DA84209D1FC
:102EF00023F4806323F400634D6943EA85038D69FD
:102F000043EA8503436084614D688563026230BD96
:102F1000002C014030B5056A25F480750562026A0F
:102F20004368C46924F0700424F003040D682C4342
:102F300022F400728D6842EA05220F4DA84207D1A3
:102F400000BF22F40062CD6842EA052222F48062CA
:102F5000094DA84209D123F4805323F400534D694D
:102F600043EA05138D6943EA05134360C4614D6864
:102F7000C563026230BD0000002C014030B5056A17
:102F800025F480550562036A4468C26922F4E04270
:102F900022F440720D6842EA052223F400538D6842
:102FA00043EA0533064DA84204D124F480444D6918
:102FB00044EA85144460C2614D680564036230BD13
:102FC000002C014030B50B461446026A056A25F014
:102FD00001050562816921F0F00141EA041122F046
:102FE0000A021A438161026230BD30B50B461446B5
:102FF000056A25F0100505628169026A21F47041B5
:1030000041EA043122F0A00242EA03128161026225
:1030100030BD000070B504462168096921F44051B3
:10302000E2681143226811612269A1681143626953
:1030300041EA02052168C96841F20C6291432943C3
:103040002268D1602168496921F44071A269114365
:10305000226851612D4A2168914202D1FEF71CFC81
:1030600001E0FEF709FC00EBC00101EB0011626812
:103070009200B1FBF2F100EBC00202EB00126368B8
:103080009B00B2FBF3F26423B2FBF3F202EBC20348
:1030900003EB0212A1EB8201322202EB0111642246
:1030A000B1FBF2F101F0F00100EBC00202EB001203
:1030B00063689B00B2FBF3F26423B2FBF3F201EB13
:1030C000021200EBC00101EB001163689B00B1FB31
:1030D000F3F100EBC00303EB00136668B600B3FB2B
:1030E000F6F36426B3FBF6F303EBC30606EB031318
:1030F000A1EB8301322303EB01116423B1FBF3F154
:1031000001F00F0111442268916070BD0038014048
:1031100000BFFEE70FB4054B10B503A9044A02989F
:1031200000F046FA10BC5DF814FB0000A54400084E
:1031300000000020490050EAC12018BF04204A0DB9
:1031400018BF40F0010040F2FF72B2EB515F08BFC0
:1031500040F00200012808BF052070474100080226
:1031600018BF04200A0E18BF40F001004FF07F4244
:1031700032EA010108BF40F00200012808BF052023
:103180007047000002480068C0F30220704700004A
:103190000CED00E010B5002804DB0A07130E054A09
:1031A000135406E00A07140E034A00F00F031B1F16
:1031B000D45410BD00E400E018ED00E02DE9F0412A
:1031C0004F1E00EBC7010446D1E9000115461E461B
:1031D00037F006020DD02A463346FDF7F7FA7F1E78
:1031E00004EBC703D3E90023FDF749FA37F00602E1
:1031F000F1D1022F25D0042F13D0062F18BFBDE820
:10320000F0812A463346FDF7E1FAD4E90A23FDF7B7
:1032100036FA2A463346FDF7D9FAD4E90823FDF7F2
:103220002EFA2A463346FDF7D1FAD4E90623FDF7F4
:1032300026FA2A463346FDF7C9FAD4E90423FDF7F6
:103240001EFA2A463346FDF7C1FAD4E90223FDF7F8
:1032500016FA2A463346FDF7B9FAD4E90023BDE849
:10326000F041FDF70CBA0122FDF7E3BBFDF707BA09
:10327000024A00201107FDF7DCBB000001FDFFFF43
:103280000121FDF7CABB00210846FCF7F7BF6FF02C
:103290005E010807FDF7C1BB2DE9F04D0D46144650
:1032A0004FF07F41B1EB440F9EBF4FF0FF312960DB
:1032B000BDE8F08D4FF0004040EA0421C4F3C75050
:1032C000783810F01F024A4B4FEA601CC2F120060A
:1032D0007B44C4F3C750A0F178004FEA601003EBC1
:1032E000800053F82C3008BFD0E901C612D0D0F8C6
:1032F00004C093402CFA06F73B4387680CFA02FCA3
:1033000027FA06F8C06807FA02F2F0404CEA080C07
:1033100042EA0006A3FB0132ACFB01C0A6FB01613F
:1033200001EB0C068E4234BF4FF0010C4FF0000C45
:10333000C1186144BCF1000F02D0814202D903E000
:10334000814201D2012000E00020104400F120025F
:103350004FEA92188006CA0C40EA42304F03C5F883
:103360000080FDF738F882463846FDF779FB6FF0AC
:103370001201FDF752FB07463046FDF771FB6FF077
:103380002501FDF74AFB834639465046FCF7ECFE23
:103390005946FCF7E9FE00F500666FF30B0651464F
:1033A0003046FCF733FF3946FCF730FF5946FCF74F
:1033B00030FF1049FCF730FF07460F493046FCF755
:1033C0002BFF3946FCF7D0FE07460C493046FCF788
:1033D00023FF3946FCF7C8FE14F0004F08BFBDE8D4
:1033E000F08DC8F1805180F000402960BDE8F08D7B
:1033F000D4190000DB0FC92F22AAFD290000C92F14
:1034000002E008C8121F08C1002AFAD170477047AD
:10341000002001E001C1121F002AFBD1704700000B
:103420000149086070470000240000202DE9FF5F7B
:1034300082B00021DDE90430020DDDF840B0034325
:1034400018D044F61050A2F2FF32424315141198DE
:1034500001281FD0A5EB0B00401C5FEA000A4FF0CB
:1034600000064E4FDFF83891B046504615D5CAF1E8
:10347000000413E0119801244AA3012801D16FEA46
:103480000B010298119AC0E90031C0E9024206B06E
:10349000BDE8F09FCBF10000DFE704460021404A81
:1034A000491842EB0450CDE9001012E0E00707D0C4
:1034B00032463B4640464946FDF788F980468946F4
:1034C00032463B4610461946FDF780F906460F4640
:1034D0006410002CEAD1DDE90401DDE90023BAF132
:1034E000000F06DAFDF772F942464B46FDF76EF91A
:1034F00005E0FCF701FF42464B46FCF7FDFE0446A3
:103500000E460022284BFDF73DFA03D84FF0FF305E
:10351000014607E00022254B20463146FDF7AFF873
:10352000FDF717FA102409E0002C0ADB0A22002319
:10353000FCF7C2FF039B30321A55641E50EA0102A9
:10354000F2D1641C039AC4F111031444119A012AA4
:1035500003D0012208430DD10AE0084304D0002023
:103560004FF0110B119072E7A3EB0B056D1E0DE0F0
:103570005B4504DD4FF0000205F1010504E003DACC
:103580004FF00002A5F10105002AECD00298119934
:10359000C0E90231C0E9004579E7000000001440AD
:1035A0000000F03F300000000000F0430000E03F6A
:1035B0002DE9FF4F95B09B468946064600250FE250
:1035C000252877D100242746F84A0121059400E0F8
:1035D000044316F8013F203B01FA03F01042F7D1F3
:1035E00030782A2811D06FF02F033078A0F1300204
:1035F000092A16D8059A44F0020402EB820203EB72
:1036000042021044761C0590EFE759F8042B05920E
:10361000002A03DA504244F40054059044F00204B6
:10362000761C30782E2816D116F8010F44F00404C9
:103630002A280DD06FF02F023078A0F13003092B2B
:1036400009D807EB870302EB4303C718761CF3E79F
:1036500059F8047B761C30786C280FD006DC4C2897
:1036600017D068280DD06A2814D104E0742810D02F
:103670007A280FD10DE044F400140AE044F48014D9
:1036800001E044F440147278824202D104F58014BF
:10369000761C761C307866280BD013DC582877D03F
:1036A00009DC002875D04528F6D04628F4D04728F4
:1036B0001AD19DE118E0632835D0642879D06528B7
:1036C00012D195E1702873D008DC6728F1D0692801
:1036D0006FD06E280DD06F2806D1B5E073282CD09E
:1036E000752875D0782874D05A46179990476D1C64
:1036F00075E1C4F30250022809D003280DD0D9F88F
:10370000001004280DD00D6009F1040967E1D9F813
:103710000010EA17C1E90052F6E7D9F800100D8051
:10372000F2E70D70F0E719F8041B8DF80010002087
:103730008DF80100EA46012003E059F804AB4FF090
:10374000FF3061074FF0000102D40DE008F10101E4
:103750008846B9420FDA8045F8DB1AF808100029CC
:10376000F4D108E008F1010188468142FADB1AF839
:1037700008100029F6D105985B46A0EB0807214602
:103780003846179A00F094FA284400EB080507E041
:103790004DE029E10DE01AF8010B5A4617999047C0
:1037A000B8F10108F7D25B4621463846179A13E173
:1037B00042E00A220092C4F302524FF0000A022AA9
:1037C00008D059F804CB032A4FEAEC710AD00DE077
:1037D00029E02AE009F1070121F00702F2E802C11D
:1037E000914609E00FFA8CFC4FEAEC71042A03D1F0
:1037F0004FFA8CFC4FEAEC71002907DA0A460021E7
:10380000DCF1000C61EB02012D2202E0220504D55F
:103810002B228DF80420012203E0E20701D02022B0
:10382000F7E7904659E00A2102E010220DE010214E
:103830004FF0000A00910BE010224FF0000A44F014
:1038400004040827009203E008224FF0000A0092C7
:10385000C4F30252022A05D059F804CB0021032AEE
:1038600008D009E009F1070121F00702F2E802C1DE
:10387000914605E01FFA8CFC042A01D10CF0FF0CE4
:103880004FF00008220728D5702806D0009B83F04F
:10389000100353EA0A0305D00EE040228DF80420FD
:1038A000012208E05CEA010206D030228DF80420F3
:1038B0008DF8050002229046009B83F0080353EA2E
:1038C0000A030AD15CEA010201D1620705D5302260
:1038D0008DF804204FF001087F1E582804D034A032
:1038E00003900EA802900DE036A0F9E7534660461B
:1038F000009AFCF7E1FD84460398825C0298401E22
:10390000029002705CEA0100F0D1029806A9081A40
:1039100000F1200A600702D524F4803400E001277A
:10392000574502DDA7EB0A0000E0002000EB0A018A
:10393000009005984144401A0590E00306D45B4688
:103940002146179A059800F0B3F90544002706E0D0
:1039500001A85A46C05D179990476D1C7F1C4745CA
:10396000F6DBE0030CD55B462146179A059800F07C
:103970009FF9054404E030205A46179990476D1C82
:103980000099481E00900029F5DC08E00298029991
:103990005A460078491C0291179990476D1CBAF15C
:1039A0000001AAF1010AF1DC65E10000092801002B
:1039B00030313233343536373839616263646566A5
:1039C0000000000030313233343536373839414267
:1039D000434445460000000000F058F90544761CB9
:1039E000307800287FF4ECAD19B02846BDE8F08FA0
:1039F000620700D4062709F1070222F0070CFCE851
:103A00000223E14603F000485FEA080C02D00FF2FF
:103A1000702C0DE05FEA045C02D50FF2682C07E021
:103A20005FEAC47C02D00FF2602C01E0AFF2700CB0
:103A30004FF0FF3823F00043CDF850C065280CD07C
:103A400006DC452809D046281DD047283DD13DE059
:103A5000662818D067287ED138E00021112F01DBBD
:103A6000112000E0781CCDE9000106A90EA8FFF79F
:103A7000DDFCDDE90F010E9A03910021009207F1B0
:103A8000010A04914DE04FF000400097CDE901108C
:103A900006A90EA8FFF7CAFCDDE90F0203920E9BF0
:103AA00011990022DDF80CA00093049211B9791C41
:103AB00000EB010AB7EB0A0004D4C0F1FF3007F1B4
:103AC000010A0490AAEB0700019044E0012F00DAFC
:103AD00001270021112F01DD112000E03846CDE93A
:103AE000000106A90EA8FFF7A1FCDDE90F010E9A5F
:103AF0000391002104910092BA4621070CD4039946
:103B0000514500DA8A46BAF1010F05DD009AAAF1A3
:103B10000101515C302908D0B84202DA10F1040FDB
:103B200006DA0121CDE9011015E0AAF10101E9E76A
:103B3000002805DC049901440491AAEB000102E08D
:103B4000411C514500DD8A460499401A401C0190F1
:103B50004FF000400290200704D40198504501DB4B
:103B6000CDF8048000208DF84F0002980DF14F072A
:103B7000B0F1004F25D02B200E9002984FF0020894
:103B800000280CDA404202902D200E9007E00A2116
:103B90000298FCF77BFC3031029007F8011DB8F168
:103BA0000001A8F10108F2DC02980028EFD1791E8B
:103BB0000E980870307800F0200040F0450007F8BB
:103BC000020D12A8C01B00F107081498007800B17C
:103BD000012000EB0A01019801EBE07105984144D6
:103BE000401A401E0590E00306D45B462146179A12
:103BF000059800F05DF805441498007818B15A460D
:103C0000179990476D1CE00324D55B462146179A0F
:103C1000059800F04DF805441CE00498002807DBE7
:103C2000DDE90301884203DD0098405C179901E05B
:103C3000179930205A469047049805F10105401C19
:103C400004900198401E019004D12E205A461799E5
:103C500090476D1CBAF10001AAF1010ADDDC05E014
:103C600017F8010B5A46179990476D1CB8F10001DF
:103C7000A8F10108F4DC5B462146179A0598ABE6EB
:103C80002D0000002B000000200000002DE9F04175
:103C9000044600251E461746880404D405E039462C
:103CA0002020B0476D1C641EF9D52846BDE8F08180
:103CB0002DE9F041044600251E469046C80301D573
:103CC000302700E02027880404D505E04146384627
:103CD000B0476D1C641EF9D52846BDE8F0812DE97A
:103CE000F04105460E4617461C463A4631462846E0
:103CF000A047BDE8F08100002DE9F04F89B0814672
:103D00001446B9F90000FCF766FB05463249FCF79A
:103D100083FA0690B9F90200FCF75DFB05462E49CF
:103D2000FCF77AFA0790B9F90400FCF754FB054652
:103D30002949FCF771FA08900898FCF76EFB0746D2
:103D400088460798FCF769FB82463A46434600F0EE
:103D50005FF90546FCF774FBA06008990846FCF77C
:103D60005BFA029007990846FCF756FA019002990F
:103D7000FCF7FAF90390FCF750FB074600F058FEF9
:103D800005460E460698FCF748FB2A463346CDE921
:103D9000040100F03DF981F000418246FCF750FB40
:103DA00020606068FCF739FB05460E46A068FCF70A
:103DB00034FB82468B462068FCF72FFB07463A46C9
:103DC0000B4606A0CDE900ABCDE90256FFF7A2F9FC
:103DD00009B0BDE8F08F00000AE81C3B7B706F73F0
:103DE000653A25662C25662C25667D0A0D000000A7
:103DF0002DE9F84F04460D4621F00040009173492B
:103E0000814211DC7249884201DC06D12CB1204686
:103E10002946BDE8F84FFFF726BA6E48002DCCBF03
:103E20006D496E49BDE8F88F6D49814211DD6D49DC
:103E30008142D8BF4FF0FF366DDD20462946FFF79F
:103E400079F9042808BFFFF713FA20462946BDE890
:103E5000F88F6549654F25F00045814233DD64499F
:103E6000814219DD002632464FF080432046294624
:103E7000FCF705FC80468A46012220462946FCF7CD
:103E8000D8FD00223B46FCF79BFC42465346FCF71C
:103E900033FA04460D463EE001260022BA463B4670
:103EA00020462946FCF7EBFB80460F46002253468E
:103EB00020462946FCF784FC42463B46FCF71CFAA8
:103EC00004460D4627E04B4981421BDDDFF828A15F
:103ED00002260022534620462946FCF777FC0022A2
:103EE0003B46FCF7CCFB80460F460022534620465B
:103EF0002946FCF765FC42463B46FCF7FDF90446C3
:103F00000D4608E0032622462B4600203B49FCF7DD
:103F1000F3F904460D4622462B4610461946FCF797
:103F200055FC8B46824602460B46FCF74FFC074683
:103F30000246334888460B4606217844FFF73EF98F
:103F400052465B46FCF742FC82462E488B463A4678
:103F5000434605217844FFF731F93A464346FCF7DA
:103F600035FC02460B46002E504659460CDAFCF74B
:103F700086FB22462B46FCF729FC01B022462B4645
:103F8000BDE8F04FFCF71FBCFCF779FB22462B463F
:103F9000FCF71CFC1C4A7A4402EBC603D3E900235D
:103FA000FCF70EFC22462B46FCF70AFC174A7A4423
:103FB00002EBC603D3E90023FCF705FC009A002AB4
:103FC000B8BF81F00041BDE8F88F00000000104448
:103FD0000000F07F182D4454FB21F93FFB21F9BF6D
:103FE0000000DC3F0000203E0000F33F0000F03FF7
:103FF0000000E63F008003400000F83F0000F0BFF3
:10400000320D0000F00C00008E0C0000560C000079
:104010002DE9F04D9446CCF1000423F000464CEA23
:104020000404524F46EAD4749A46884621F000426E
:10403000BC4206D8454240EA050442EAD474BC4278
:1040400004D9BDE8F04D6246FFF710B9AAF140551A
:10405000A5F17F6555EA0C040BD0022404EAAA748A
:10406000434DDFF810E144EAD87452EA000B04D063
:104070000CE0BDE8F04DFFF7BBBE002C14BF012CD7
:10408000BDE8F08D022C30D0032C32D056EA0C0B58
:104090000AD0BE4220D1BA4209D126F0804622F091
:1040A00080423346114617E000291ADB25E0DFF88D
:1040B000C8B0FB44002C04BFDBE90001BDE8F08D73
:1040C000012C02BFDBE9000181F00041BDE8F08D69
:1040D000022C0AD0032C0CD0BA4212D1B8F1000F36
:1040E0000BDA23482549BDE8F08D28462449BDE870
:1040F000F08D28467146BDE8F08D1D482149BDE888
:10410000F08D921B12153C2AC4BF19481D490EDCC4
:10411000BAF1000FBEBF12F13C0F0020014606DBD2
:104120006246FCF7E9F821F00041FFF761FE002C40
:1041300008BFBDE8F08D012C04BF81F00041BDE84F
:10414000F08D114A114B022C07D0FCF739FB2A469F
:10415000BDE8F04D0A4BFCF733BBFCF731FB2A46B8
:10416000BDE8F04D064BFCF72EBB00000000F07FD1
:10417000182D4454FB2109C0EA0B0000FB21F9BFB4
:10418000FB210940FB21F93F075C143326A6A13C23
:104190002DE9FE4F06460C461546A660E168A86864
:1041A000FCF73AF8029021696868FCF735F8824616
:1041B00021686869FCF730F8019061682869FCF7AC
:1041C0002BF80090A168E868FCF726F88346009970
:1041D000FBF7CAFF81460199FBF7C6FF80465146AF
:1041E000FCF714F807460299FCF710F86061606864
:1041F0002060A06860602069E06061692161606999
:10420000BDE8FE8F2DE9F74F84B089461446494634
:104210000498FCF733F803900398FCF7FEF8074680
:104220003A460B463A483B49FCF766F80546FCF728
:1042300007F9834600F022FC824651465046FBF7C0
:10424000EBFF8046344800F069F883464FF0804128
:10425000FBF7E2FF07465146FBF7DEFF06464FF04D
:104260007E51FBF781FF05464146FBF77DFF02903B
:1042700000214846FCF700F902D807B0BDE8F08FEE
:1042800051465046FBF7C8FF05460299FBF7F6FF7B
:10429000E0604FF08040E168FBF7BEFF2061E1681D
:1042A00061614FF07E50206051465046FBF7B4FFED
:1042B00007464FF07E51FBF7A9FF06464FF08041BD
:1042C000FBF7AAFF05460299FBF7D8FF606051464D
:1042D0005046FBF7A1FF83460F4800F01FF84FF050
:1042E00080410190FBF798FF80465146FBF794FF11
:1042F00007464FF07E51FBF78CFF06465946FBF709
:1043000033FF05460299FBF7B9FFA06000BFB4E791
:104310007A008BFCFA210940D80F493F2DE9F84378
:10432000044602464F486946B0EB420F09D94FF0A8
:10433000E640B0EB420F94BF00204FF0FF300090FA
:1043400030E0494B22F00040834271D94749204672
:10435000FBF762FFFCF718F98046FCF745F800F020
:104360000300009042494046FBF756FF054641498D
:104370004046FBF751FF06463F494046FBF74CFFDE
:1043800007463E494046FBF747FF2146FBF741FF02
:104390003946FBF73BFF3146FBF738FF2946FBF771
:1043A00035FF04462546009C002C45DB294614F0C9
:1043B000010F08461CD0FBF72FFF06463049FBF7DC
:1043C0002BFF3049FBF725FF3146FBF725FF2E4930
:1043D000FBF7CAFE3146FBF71FFF2946FBF71CFF20
:1043E0002946FBF7C1FE14F0020F1CD0BDE8F8838C
:1043F000FBF712FF05462549FBF70EFF2449FBF7A3
:10440000B3FE2946FBF708FF2249FBF7ADFE29461C
:10441000FBF702FF4FF07E51FBF7A6FE14F0020FF0
:1044200008BFBDE8F88380F00040BDE8F883FFE7EF
:104430001046FEF731FFB4E76800B0F17F4F3CBF94
:104440004FF07E50BDE8F88307D14FF00100FEF732
:10445000E7FFBDE8F843FEF716BF2846BDE8F8437E
:10446000FEF70EBFB61F927E490E494683F9223FE2
:104470001A61342C0020A23300A0FD390000C93F8E
:10448000336D4C39DA82083CA0AA2ABEB93AB2BAD6
:10449000CA9F2A3DDDFFFFBE10B504462046FCF74B
:1044A000E9FA10BD00BF054A126802F04002002A76
:1044B000F9D0C2B2014B1B1D1A6070470038014091
:1044C000FEB504460D4616461F4642F20F706100C7
:1044D00001232A46CDE9006702900448FCF762FDFB
:1044E00010B14FF0FF30FEBD0020FCE72800002097
:1044F000FEB504460D46164642F20F700121CDE985
:1045000000610290610001232A460448FCF74AFD3D
:1045100010B14FF0FF30FEBD0020FCE72800002066
:1045200037B584B004460D4642F20F70012106AA49
:10453000CDE900210290610001232A460448FCF7DE
:10454000E3FE18B14FF0FF3007B030BD0020FBE7AD
:1045500028000020FCF7FEFFFEF7EDFBFEF7A8FAAF
:10456000FEF7ECFAFEF7AEFBFEF706FBFEF722FBCA
:10457000FEF756FB0748FDF7CDFC07A0FEF7CAFD86
:1045800000BF00F0D5F90128FBD107A0FEF7C2FD5E
:1045900000BFFEE7D000002053797374656D204999
:1045A0006E6974210D0A00006D707520496E697482
:1045B000210D0A0070B50446B4F90000FBF70BFFAB
:1045C0000646144AA2F14801FFF7E2FD0546FBF753
:1045D0000BFF00B22080B4F90200FBF7FCFE064698
:1045E0000C4AA2F13001FFF7D3FD0546FBF7FCFEB4
:1045F00000B26080B4F90400FBF7EDFE0646054A00
:10460000A2F11801FFF7C4FD0546FBF7EDFE00B26D
:10461000A08070BD040200200188094A1288891A0E
:1046200009B201804188064A9288891A09B24180FC
:104630008188034A1289891A09B281807047000073
:10464000A401002010B586B00020039004900590CE
:104650001EA0FEF75FFD00241CE001A800F082F917
:10466000BDF90410039808440390BDF9061004989E
:1046700008440490BDF90800A0F58050059908444D
:10468000059018A003A90EC9FEF744FD0520FFF709
:1046900003FF641C642CE0DB039890FBF4F01849E2
:1046A0000860049890FBF4F04860059890FBF4F0E3
:1046B0008860084683684268016812A0FEF72AFDF8
:1046C00018A0FEF727FD06B010BD0000416363206F
:1046D00043616C6962726174696F6E2053746172B8
:1046E000740A0D00616363655F73616D706C655F73
:1046F00073756D3A25642C25642C25640A0D000021
:10470000A40100204163635F526177446174615F7B
:104710004F66667365743A25642C25642C25640AFB
:104720000D0000004163632043616C696272617433
:10473000696F6E2053746F700A0D000010B500226F
:104740006B216820FFF7ECFE002219216820FFF79B
:10475000E7FE00221A216820FFF7E2FE08221B2153
:104760006820FFF7DDFE10221C216820FFF7D8FE2D
:1047700010BD00002DE9F0410446884615461E464E
:10478000069F204600F0EEF8204600F0EBF8012DE1
:1047900005D12046FFF740FF204600F037F8012FF3
:1047A00008D1B4F90430B4F90220B4F900100BA018
:1047B000FEF7B0FC012E02D12046FFF7FBFE012FD1
:1047C00008D1B4F90430B4F90220B4F9001009A0FA
:1047D000FEF7A0FC0120BDE8F08100007B414343CF
:1047E0005F7261773A25642C25642C25647D0A0D5F
:1047F000000000007B4143435F66696C7465723A58
:1048000025642C25642C25647D0A0D000188094A45
:104810009289891A09B2018042880649098A511A87
:1048200009B2418082880349898A511A09B281807C
:1048300070470000A401002010B586B0002003904E
:10484000049005901DA0FEF765FC00241AE001A865
:1048500000F0B4F8BDF90410039808440390BDF9C2
:104860000610049808440490BDF9081005980844FF
:10487000059019A003A90EC9FEF74CFC0520FFF70F
:104880000BFE641C642CE2DB039890FBF4F01949E6
:10489000C860049890FBF4F116480161059890FBFC
:1048A000F4F11448416143690269C16812A0FEF73E
:1048B00031FC19A0FEF72EFC06B010BD4779726FCF
:1048C0002043616C6962726174696F6E2053746118
:1048D00072740A0D00000000616363655F73616DAF
:1048E000706C655F73756D3A25642C25642C2564A6
:1048F0000A0D0000A40100204779726F5F526177B2
:10490000446174615F4F66667365743A25642C2553
:10491000642C25640A0D00004779726F2043616C96
:104920006962726174696F6E2053746F700A0D0052
:1049300010B500BF00F06EF80128FBD1FFF7FEFEB6
:10494000FFF780FEFFF778FF034A04490448FFF7AA
:1049500059FC012010BD000004020020000020418D
:104960000000C8427CB50446052608E006236A46D6
:104970003B216820FFF7A4FD054605B904E0301E81
:10498000A6F10101CEB2F1D100BF9DF801009DF862
:10499000001040EA012000B220809DF803009DF83D
:1049A000021040EA012000B260809DF805009DF8E9
:1049B000041040EA012000B2A0807CBD7CB5044612
:1049C000052608E006236A4643216820FFF778FDA4
:1049D000054605B904E0301EA6F10101CEB2F1D1C1
:1049E00000BF9DF801009DF8001040EA012000B2D0
:1049F00020809DF803009DF8021040EA012000B2DB
:104A000060809DF805009DF8041040EA012000B286
:104A1000A0807CBD08B56A4675216820FFF768FD57
:104A20009DF80000682801D1012008BD0020FCE7A6
:104A30002DE9F04106460F46FBF73AFF041E0D46EE
:104A400018BF0120284320F00040C0F17F6000F132
:104A5000E040C00F0ED0301C18BF0120384320F0BA
:104A60000040C0F17F6000F1E040C00F04BF0120B2
:104A7000FEF7D6FC20462946BDE8F0812DE9F84333
:104A8000044602464C486946B0EB420F09D94FF044
:104A9000E640B0EB420F94BF00204FF0FF30009093
:104AA00030E0464B22F00040834265D9444920461D
:104AB000FBF7B2FBFBF768FD8046FBF795FC00F0C7
:104AC000030000903F494046FBF7A6FB05463E49E0
:104AD0004046FBF7A1FB06463C494046FBF79CFBE2
:104AE00007463B494046FBF797FB2146FBF791FB06
:104AF0003946FBF78BFB3146FBF788FB2946FBF772
:104B000085FB0446009D002D3ADB21460846FBF755
:104B100083FB06462F49FBF77FFB2F49FBF724FB5E
:104B20003146FBF779FB2D49FBF71EFB3146FBF7BE
:104B300073FB2B49FBF718FB3146FBF76DFB29494B
:104B4000FBF712FB3146FBF767FB2749FBF70CFB32
:104B50003146FBF761FB2146FBF75EFB2146FBF785
:104B600003FB15F0010F08BFBDE8F8830146BDE85F
:104B7000F8431E48FBF782BB1046FEF78DFBC0E7EB
:104B80006000B0F17F4F09D22046FEF7E7FA042813
:104B900008BFFEF77CFB2046BDE8F88306D1012064
:104BA000FEF73EFCBDE8F843FEF76DBB2046BDE8CE
:104BB000F843FEF765BB0000B61F927E490E4946DA
:104BC00083F9223F1A61342C0020A23300A0FD3962
:104BD0000000C93FBBE9223C0C6D063B8A76CE3C07
:104BE000ACB5593D35A1083E29AAAA3E000080BFB8
:104BF000000000000000000001020304060708098D
:104C000000000000010203044FBB610567ACDD3FFB
:104C1000182D4454FB21E93F9BF681D20B73EF3FE3
:104C2000182D4454FB21F93FE2652F227F2B7A3C5B
:104C3000075C143326A6813CBDCBF07A8807703C14
:104C4000075C143326A6913CC4EB98999999C9BF87
:104C5000711623FEC671BCBF6D9A74AFF2B0B3BFBC
:104C60009AFDDE522DDEADBF2F6C6A2C44B4A2BF7C
:104C70000D5555555555D53FFF8300922449C23FE8
:104C80006E204CC5CD45B73F513DD0A0660DB13F1C
:104C9000EB0D76244B7BA93F11DA22E33AAD903F2E
:104CA0000000000000000000000000006E83F9A278
:104CB0002915444ED15727FCC0DD34F5999562DBA8
:104CC0004190433CAB6351FEE84C000800000020DB
:104CD0002800000000340008104D000828000020C3
:104CE0000006000010340008000000000000000072
:104CF00010000000010000000024F400000000008B
:104D000000000000000000000000000000000000A3
:04000005080000ED02
:00000001FF
